{
  "_format": "hh-sol-artifact-1",
  "contractName": "Arcturium",
  "sourceName": "contracts/Arcturium.sol",
  "abi": [
    {
      "inputs": [],
      "stateMutability": "nonpayable",
      "type": "constructor"
    },
    {
      "inputs": [],
      "name": "ApprovalCallerNotOwnerNorApproved",
      "type": "error"
    },
    {
      "inputs": [],
      "name": "ApprovalQueryForNonexistentToken",
      "type": "error"
    },
    {
      "inputs": [],
      "name": "ApprovalToCurrentOwner",
      "type": "error"
    },
    {
      "inputs": [],
      "name": "ApproveToCaller",
      "type": "error"
    },
    {
      "inputs": [],
      "name": "BalanceQueryForZeroAddress",
      "type": "error"
    },
    {
      "inputs": [],
      "name": "MintToZeroAddress",
      "type": "error"
    },
    {
      "inputs": [],
      "name": "MintZeroQuantity",
      "type": "error"
    },
    {
      "inputs": [],
      "name": "OwnerQueryForNonexistentToken",
      "type": "error"
    },
    {
      "inputs": [],
      "name": "TransferCallerNotOwnerNorApproved",
      "type": "error"
    },
    {
      "inputs": [],
      "name": "TransferFromIncorrectOwner",
      "type": "error"
    },
    {
      "inputs": [],
      "name": "TransferToNonERC721ReceiverImplementer",
      "type": "error"
    },
    {
      "inputs": [],
      "name": "TransferToZeroAddress",
      "type": "error"
    },
    {
      "inputs": [],
      "name": "URIQueryForNonexistentToken",
      "type": "error"
    },
    {
      "anonymous": false,
      "inputs": [
        {
          "indexed": true,
          "internalType": "address",
          "name": "owner",
          "type": "address"
        },
        {
          "indexed": true,
          "internalType": "address",
          "name": "approved",
          "type": "address"
        },
        {
          "indexed": true,
          "internalType": "uint256",
          "name": "tokenId",
          "type": "uint256"
        }
      ],
      "name": "Approval",
      "type": "event"
    },
    {
      "anonymous": false,
      "inputs": [
        {
          "indexed": true,
          "internalType": "address",
          "name": "owner",
          "type": "address"
        },
        {
          "indexed": true,
          "internalType": "address",
          "name": "operator",
          "type": "address"
        },
        {
          "indexed": false,
          "internalType": "bool",
          "name": "approved",
          "type": "bool"
        }
      ],
      "name": "ApprovalForAll",
      "type": "event"
    },
    {
      "anonymous": false,
      "inputs": [
        {
          "indexed": true,
          "internalType": "address",
          "name": "previousOwner",
          "type": "address"
        },
        {
          "indexed": true,
          "internalType": "address",
          "name": "newOwner",
          "type": "address"
        }
      ],
      "name": "OwnershipTransferred",
      "type": "event"
    },
    {
      "anonymous": false,
      "inputs": [
        {
          "indexed": true,
          "internalType": "address",
          "name": "from",
          "type": "address"
        },
        {
          "indexed": true,
          "internalType": "address",
          "name": "to",
          "type": "address"
        },
        {
          "indexed": true,
          "internalType": "uint256",
          "name": "tokenId",
          "type": "uint256"
        }
      ],
      "name": "Transfer",
      "type": "event"
    },
    {
      "inputs": [
        {
          "internalType": "address",
          "name": "to",
          "type": "address"
        },
        {
          "internalType": "uint256",
          "name": "tokenId",
          "type": "uint256"
        }
      ],
      "name": "approve",
      "outputs": [],
      "stateMutability": "nonpayable",
      "type": "function"
    },
    {
      "inputs": [
        {
          "internalType": "address",
          "name": "owner",
          "type": "address"
        }
      ],
      "name": "balanceOf",
      "outputs": [
        {
          "internalType": "uint256",
          "name": "",
          "type": "uint256"
        }
      ],
      "stateMutability": "view",
      "type": "function"
    },
    {
      "inputs": [
        {
          "internalType": "uint256",
          "name": "tokenId",
          "type": "uint256"
        }
      ],
      "name": "getApproved",
      "outputs": [
        {
          "internalType": "address",
          "name": "",
          "type": "address"
        }
      ],
      "stateMutability": "view",
      "type": "function"
    },
    {
      "inputs": [
        {
          "internalType": "address",
          "name": "owner",
          "type": "address"
        },
        {
          "internalType": "address",
          "name": "operator",
          "type": "address"
        }
      ],
      "name": "isApprovedForAll",
      "outputs": [
        {
          "internalType": "bool",
          "name": "",
          "type": "bool"
        }
      ],
      "stateMutability": "view",
      "type": "function"
    },
    {
      "inputs": [],
      "name": "maxPublic",
      "outputs": [
        {
          "internalType": "uint256",
          "name": "",
          "type": "uint256"
        }
      ],
      "stateMutability": "view",
      "type": "function"
    },
    {
      "inputs": [],
      "name": "maxSupply",
      "outputs": [
        {
          "internalType": "uint256",
          "name": "",
          "type": "uint256"
        }
      ],
      "stateMutability": "view",
      "type": "function"
    },
    {
      "inputs": [],
      "name": "name",
      "outputs": [
        {
          "internalType": "string",
          "name": "",
          "type": "string"
        }
      ],
      "stateMutability": "view",
      "type": "function"
    },
    {
      "inputs": [],
      "name": "owner",
      "outputs": [
        {
          "internalType": "address",
          "name": "",
          "type": "address"
        }
      ],
      "stateMutability": "view",
      "type": "function"
    },
    {
      "inputs": [
        {
          "internalType": "uint256",
          "name": "tokenId",
          "type": "uint256"
        }
      ],
      "name": "ownerOf",
      "outputs": [
        {
          "internalType": "address",
          "name": "",
          "type": "address"
        }
      ],
      "stateMutability": "view",
      "type": "function"
    },
    {
      "inputs": [
        {
          "internalType": "uint256",
          "name": "numberOfTokens",
          "type": "uint256"
        }
      ],
      "name": "publicMint",
      "outputs": [],
      "stateMutability": "nonpayable",
      "type": "function"
    },
    {
      "inputs": [],
      "name": "renounceOwnership",
      "outputs": [],
      "stateMutability": "nonpayable",
      "type": "function"
    },
    {
      "inputs": [
        {
          "internalType": "address",
          "name": "from",
          "type": "address"
        },
        {
          "internalType": "address",
          "name": "to",
          "type": "address"
        },
        {
          "internalType": "uint256",
          "name": "tokenId",
          "type": "uint256"
        }
      ],
      "name": "safeTransferFrom",
      "outputs": [],
      "stateMutability": "nonpayable",
      "type": "function"
    },
    {
      "inputs": [
        {
          "internalType": "address",
          "name": "from",
          "type": "address"
        },
        {
          "internalType": "address",
          "name": "to",
          "type": "address"
        },
        {
          "internalType": "uint256",
          "name": "tokenId",
          "type": "uint256"
        },
        {
          "internalType": "bytes",
          "name": "_data",
          "type": "bytes"
        }
      ],
      "name": "safeTransferFrom",
      "outputs": [],
      "stateMutability": "nonpayable",
      "type": "function"
    },
    {
      "inputs": [
        {
          "internalType": "address",
          "name": "operator",
          "type": "address"
        },
        {
          "internalType": "bool",
          "name": "approved",
          "type": "bool"
        }
      ],
      "name": "setApprovalForAll",
      "outputs": [],
      "stateMutability": "nonpayable",
      "type": "function"
    },
    {
      "inputs": [
        {
          "internalType": "string",
          "name": "baseTokenUri_",
          "type": "string"
        }
      ],
      "name": "setBaseTokenUri",
      "outputs": [],
      "stateMutability": "nonpayable",
      "type": "function"
    },
    {
      "inputs": [
        {
          "internalType": "bytes4",
          "name": "interfaceId",
          "type": "bytes4"
        }
      ],
      "name": "supportsInterface",
      "outputs": [
        {
          "internalType": "bool",
          "name": "",
          "type": "bool"
        }
      ],
      "stateMutability": "view",
      "type": "function"
    },
    {
      "inputs": [],
      "name": "symbol",
      "outputs": [
        {
          "internalType": "string",
          "name": "",
          "type": "string"
        }
      ],
      "stateMutability": "view",
      "type": "function"
    },
    {
      "inputs": [
        {
          "internalType": "uint256",
          "name": "tokenId",
          "type": "uint256"
        }
      ],
      "name": "tokenURI",
      "outputs": [
        {
          "internalType": "string",
          "name": "",
          "type": "string"
        }
      ],
      "stateMutability": "view",
      "type": "function"
    },
    {
      "inputs": [],
      "name": "totalSupply",
      "outputs": [
        {
          "internalType": "uint256",
          "name": "",
          "type": "uint256"
        }
      ],
      "stateMutability": "view",
      "type": "function"
    },
    {
      "inputs": [
        {
          "internalType": "address",
          "name": "from",
          "type": "address"
        },
        {
          "internalType": "address",
          "name": "to",
          "type": "address"
        },
        {
          "internalType": "uint256",
          "name": "tokenId",
          "type": "uint256"
        }
      ],
      "name": "transferFrom",
      "outputs": [],
      "stateMutability": "nonpayable",
      "type": "function"
    },
    {
      "inputs": [
        {
          "internalType": "address",
          "name": "newOwner",
          "type": "address"
        }
      ],
      "name": "transferOwnership",
      "outputs": [],
      "stateMutability": "nonpayable",
      "type": "function"
    },
    {
      "inputs": [],
      "name": "withdraw",
      "outputs": [],
      "stateMutability": "nonpayable",
      "type": "function"
    }
  ],
  "bytecode": "0x6080604052600a80556006600b5573e03064f8fb12b6457a04166e1462889b98323931600c60006101000a81548173ffffffffffffffffffffffffffffffffffffffff021916908373ffffffffffffffffffffffffffffffffffffffff160217905550737ff7549e6594b24c88c4f08bcbb67aa6fc549175600d60006101000a81548173ffffffffffffffffffffffffffffffffffffffff021916908373ffffffffffffffffffffffffffffffffffffffff160217905550348015620000c457600080fd5b506040518060400160405280600981526020017f41726374757269756d00000000000000000000000000000000000000000000008152506040518060400160405280600381526020017f41726300000000000000000000000000000000000000000000000000000000008152508160029080519060200190620001499291906200027c565b508060039080519060200190620001629291906200027c565b5062000173620001a960201b60201c565b60008190555050506200019b6200018f620001ae60201b60201c565b620001b660201b60201c565b600160098190555062000391565b600090565b600033905090565b6000600860009054906101000a900473ffffffffffffffffffffffffffffffffffffffff16905081600860006101000a81548173ffffffffffffffffffffffffffffffffffffffff021916908373ffffffffffffffffffffffffffffffffffffffff1602179055508173ffffffffffffffffffffffffffffffffffffffff168173ffffffffffffffffffffffffffffffffffffffff167f8be0079c531659141344cd1fd0a4f28419497f9722a3daafe3b4186f6b6457e060405160405180910390a35050565b8280546200028a906200032c565b90600052602060002090601f016020900481019282620002ae5760008555620002fa565b82601f10620002c957805160ff1916838001178555620002fa565b82800160010185558215620002fa579182015b82811115620002f9578251825591602001919060010190620002dc565b5b5090506200030991906200030d565b5090565b5b80821115620003285760008160009055506001016200030e565b5090565b600060028204905060018216806200034557607f821691505b602082108114156200035c576200035b62000362565b5b50919050565b7f4e487b7100000000000000000000000000000000000000000000000000000000600052602260045260246000fd5b612f5d80620003a16000396000f3fe608060405234801561001057600080fd5b50600436106101425760003560e01c8063715018a6116100b8578063a22cb4651161007c578063a22cb4651461033d578063b88d4fde14610359578063c87b56dd14610375578063d5abeb01146103a5578063e985e9c5146103c3578063f2fde38b146103f357610142565b8063715018a6146102bd5780637dc42975146102c75780638da5cb5b146102e557806395652cfa1461030357806395d89b411461031f57610142565b806323b872dd1161010a57806323b872dd146101ff5780632db115441461021b5780633ccfd60b1461023757806342842e0e146102415780636352211e1461025d57806370a082311461028d57610142565b806301ffc9a71461014757806306fdde0314610177578063081812fc14610195578063095ea7b3146101c557806318160ddd146101e1575b600080fd5b610161600480360381019061015c91906123c7565b61040f565b60405161016e91906127df565b60405180910390f35b61017f6104f1565b60405161018c91906127fa565b60405180910390f35b6101af60048036038101906101aa919061245e565b610583565b6040516101bc9190612778565b60405180910390f35b6101df60048036038101906101da919061238b565b6105ff565b005b6101e9610704565b6040516101f6919061291c565b60405180910390f35b61021960048036038101906102149190612285565b61071b565b005b6102356004803603810190610230919061245e565b61072b565b005b61023f61086f565b005b61025b60048036038101906102569190612285565b610983565b005b6102776004803603810190610272919061245e565b6109a3565b6040516102849190612778565b60405180910390f35b6102a760048036038101906102a29190612220565b6109b9565b6040516102b4919061291c565b60405180910390f35b6102c5610a89565b005b6102cf610a9d565b6040516102dc919061291c565b60405180910390f35b6102ed610aa3565b6040516102fa9190612778565b60405180910390f35b61031d60048036038101906103189190612419565b610acd565b005b610327610aeb565b60405161033491906127fa565b60405180910390f35b6103576004803603810190610352919061234f565b610b7d565b005b610373600480360381019061036e91906122d4565b610cf5565b005b61038f600480360381019061038a919061245e565b610d6d565b60405161039c91906127fa565b60405180910390f35b6103ad610de9565b6040516103ba919061291c565b60405180910390f35b6103dd60048036038101906103d89190612249565b610def565b6040516103ea91906127df565b60405180910390f35b61040d60048036038101906104089190612220565b610e83565b005b60007f80ac58cd000000000000000000000000000000000000000000000000000000007bffffffffffffffffffffffffffffffffffffffffffffffffffffffff1916827bffffffffffffffffffffffffffffffffffffffffffffffffffffffff191614806104da57507f5b5e139f000000000000000000000000000000000000000000000000000000007bffffffffffffffffffffffffffffffffffffffffffffffffffffffff1916827bffffffffffffffffffffffffffffffffffffffffffffffffffffffff1916145b806104ea57506104e982610f07565b5b9050919050565b60606002805461050090612b61565b80601f016020809104026020016040519081016040528092919081815260200182805461052c90612b61565b80156105795780601f1061054e57610100808354040283529160200191610579565b820191906000526020600020905b81548152906001019060200180831161055c57829003601f168201915b5050505050905090565b600061058e82610f71565b6105c4576040517fcf4700e400000000000000000000000000000000000000000000000000000000815260040160405180910390fd5b6006600083815260200190815260200160002060009054906101000a900473ffffffffffffffffffffffffffffffffffffffff169050919050565b600061060a826109a3565b90508073ffffffffffffffffffffffffffffffffffffffff168373ffffffffffffffffffffffffffffffffffffffff161415610672576040517f943f7b8c00000000000000000000000000000000000000000000000000000000815260040160405180910390fd5b8073ffffffffffffffffffffffffffffffffffffffff16610691610fbf565b73ffffffffffffffffffffffffffffffffffffffff16146106f4576106bd816106b8610fbf565b610def565b6106f3576040517fcfb3b94200000000000000000000000000000000000000000000000000000000815260040160405180910390fd5b5b6106ff838383610fc7565b505050565b600061070e611079565b6001546000540303905090565b61072683838361107e565b505050565b80600a5481610738610704565b61074291906129f0565b1115610783576040517f08c379a000000000000000000000000000000000000000000000000000000000815260040161077a9061289c565b60405180910390fd5b600260095414156107c9576040517f08c379a00000000000000000000000000000000000000000000000000000000081526004016107c0906128bc565b60405180910390fd5b600260098190555060008211610814576040517f08c379a000000000000000000000000000000000000000000000000000000000815260040161080b906128fc565b60405180910390fd5b600b54821115610859576040517f08c379a00000000000000000000000000000000000000000000000000000000081526004016108509061287c565b60405180910390fd5b6108633383611534565b60016009819055505050565b610877611552565b600260095414156108bd576040517f08c379a00000000000000000000000000000000000000000000000000000000081526004016108b4906128bc565b60405180910390fd5b600260098190555060006108cf610aa3565b73ffffffffffffffffffffffffffffffffffffffff16476040516108f290612763565b60006040518083038185875af1925050503d806000811461092f576040519150601f19603f3d011682016040523d82523d6000602084013e610934565b606091505b5050905080610978576040517f08c379a000000000000000000000000000000000000000000000000000000000815260040161096f9061283c565b60405180910390fd5b506001600981905550565b61099e83838360405180602001604052806000815250610cf5565b505050565b60006109ae826115d0565b600001519050919050565b60008073ffffffffffffffffffffffffffffffffffffffff168273ffffffffffffffffffffffffffffffffffffffff161415610a21576040517f8f4eb60400000000000000000000000000000000000000000000000000000000815260040160405180910390fd5b600560008373ffffffffffffffffffffffffffffffffffffffff1673ffffffffffffffffffffffffffffffffffffffff16815260200190815260200160002060000160009054906101000a900467ffffffffffffffff1667ffffffffffffffff169050919050565b610a91611552565b610a9b600061185b565b565b600b5481565b6000600860009054906101000a900473ffffffffffffffffffffffffffffffffffffffff16905090565b610ad5611552565b8181600e9190610ae692919061201f565b505050565b606060038054610afa90612b61565b80601f0160208091040260200160405190810160405280929190818152602001828054610b2690612b61565b8015610b735780601f10610b4857610100808354040283529160200191610b73565b820191906000526020600020905b815481529060010190602001808311610b5657829003601f168201915b5050505050905090565b610b85610fbf565b73ffffffffffffffffffffffffffffffffffffffff168273ffffffffffffffffffffffffffffffffffffffff161415610bea576040517fb06307db00000000000000000000000000000000000000000000000000000000815260040160405180910390fd5b8060076000610bf7610fbf565b73ffffffffffffffffffffffffffffffffffffffff1673ffffffffffffffffffffffffffffffffffffffff16815260200190815260200160002060008473ffffffffffffffffffffffffffffffffffffffff1673ffffffffffffffffffffffffffffffffffffffff16815260200190815260200160002060006101000a81548160ff0219169083151502179055508173ffffffffffffffffffffffffffffffffffffffff16610ca4610fbf565b73ffffffffffffffffffffffffffffffffffffffff167f17307eab39ab6107e8899845ad3d59bd9653f200f220920489ca2b5937696c3183604051610ce991906127df565b60405180910390a35050565b610d0084848461107e565b610d1f8373ffffffffffffffffffffffffffffffffffffffff16611921565b15610d6757610d3084848484611944565b610d66576040517fd1a57ed600000000000000000000000000000000000000000000000000000000815260040160405180910390fd5b5b50505050565b6060610d7882610f71565b610db7576040517f08c379a0000000000000000000000000000000000000000000000000000000008152600401610dae906128dc565b60405180910390fd5b600e610dc283611aa4565b604051602001610dd3929190612734565b6040516020818303038152906040529050919050565b600a5481565b6000600760008473ffffffffffffffffffffffffffffffffffffffff1673ffffffffffffffffffffffffffffffffffffffff16815260200190815260200160002060008373ffffffffffffffffffffffffffffffffffffffff1673ffffffffffffffffffffffffffffffffffffffff16815260200190815260200160002060009054906101000a900460ff16905092915050565b610e8b611552565b600073ffffffffffffffffffffffffffffffffffffffff168173ffffffffffffffffffffffffffffffffffffffff161415610efb576040517f08c379a0000000000000000000000000000000000000000000000000000000008152600401610ef29061281c565b60405180910390fd5b610f048161185b565b50565b60007f01ffc9a7000000000000000000000000000000000000000000000000000000007bffffffffffffffffffffffffffffffffffffffffffffffffffffffff1916827bffffffffffffffffffffffffffffffffffffffffffffffffffffffff1916149050919050565b600081610f7c611079565b11158015610f8b575060005482105b8015610fb8575060046000838152602001908152602001600020600001601c9054906101000a900460ff16155b9050919050565b600033905090565b826006600084815260200190815260200160002060006101000a81548173ffffffffffffffffffffffffffffffffffffffff021916908373ffffffffffffffffffffffffffffffffffffffff160217905550818373ffffffffffffffffffffffffffffffffffffffff168273ffffffffffffffffffffffffffffffffffffffff167f8c5be1e5ebec7d5bd14f71427d1e84f3dd0314c0f7b2291e5b200ac8c7c3b92560405160405180910390a4505050565b600090565b6000611089826115d0565b90508373ffffffffffffffffffffffffffffffffffffffff16816000015173ffffffffffffffffffffffffffffffffffffffff16146110f4576040517fa114810000000000000000000000000000000000000000000000000000000000815260040160405180910390fd5b60008473ffffffffffffffffffffffffffffffffffffffff16611115610fbf565b73ffffffffffffffffffffffffffffffffffffffff16148061114457506111438561113e610fbf565b610def565b5b806111895750611152610fbf565b73ffffffffffffffffffffffffffffffffffffffff1661117184610583565b73ffffffffffffffffffffffffffffffffffffffff16145b9050806111c2576040517f59c896be00000000000000000000000000000000000000000000000000000000815260040160405180910390fd5b600073ffffffffffffffffffffffffffffffffffffffff168473ffffffffffffffffffffffffffffffffffffffff161415611229576040517fea553b3400000000000000000000000000000000000000000000000000000000815260040160405180910390fd5b6112368585856001611c51565b61124260008487610fc7565b6001600560008773ffffffffffffffffffffffffffffffffffffffff1673ffffffffffffffffffffffffffffffffffffffff16815260200190815260200160002060000160008282829054906101000a900467ffffffffffffffff160392506101000a81548167ffffffffffffffff021916908367ffffffffffffffff1602179055506001600560008673ffffffffffffffffffffffffffffffffffffffff1673ffffffffffffffffffffffffffffffffffffffff16815260200190815260200160002060000160008282829054906101000a900467ffffffffffffffff160192506101000a81548167ffffffffffffffff021916908367ffffffffffffffff1602179055506000600460008581526020019081526020016000209050848160000160006101000a81548173ffffffffffffffffffffffffffffffffffffffff021916908373ffffffffffffffffffffffffffffffffffffffff160217905550428160000160146101000a81548167ffffffffffffffff021916908367ffffffffffffffff16021790555060006001850190506000600460008381526020019081526020016000209050600073ffffffffffffffffffffffffffffffffffffffff168160000160009054906101000a900473ffffffffffffffffffffffffffffffffffffffff1673ffffffffffffffffffffffffffffffffffffffff1614156114c25760005482146114c157878160000160006101000a81548173ffffffffffffffffffffffffffffffffffffffff021916908373ffffffffffffffffffffffffffffffffffffffff16021790555084602001518160000160146101000a81548167ffffffffffffffff021916908367ffffffffffffffff1602179055505b5b505050828473ffffffffffffffffffffffffffffffffffffffff168673ffffffffffffffffffffffffffffffffffffffff167fddf252ad1be2c89b69c2b068fc378daa952ba7f163c4a11628f55a4df523b3ef60405160405180910390a461152d8585856001611c57565b5050505050565b61154e828260405180602001604052806000815250611c5d565b5050565b61155a610fbf565b73ffffffffffffffffffffffffffffffffffffffff16611578610aa3565b73ffffffffffffffffffffffffffffffffffffffff16146115ce576040517f08c379a00000000000000000000000000000000000000000000000000000000081526004016115c59061285c565b60405180910390fd5b565b6115d86120a5565b6000829050806115e6611079565b1161182457600054811015611823576000600460008381526020019081526020016000206040518060600160405290816000820160009054906101000a900473ffffffffffffffffffffffffffffffffffffffff1673ffffffffffffffffffffffffffffffffffffffff1673ffffffffffffffffffffffffffffffffffffffff1681526020016000820160149054906101000a900467ffffffffffffffff1667ffffffffffffffff1667ffffffffffffffff16815260200160008201601c9054906101000a900460ff1615151515815250509050806040015161182157600073ffffffffffffffffffffffffffffffffffffffff16816000015173ffffffffffffffffffffffffffffffffffffffff1614611705578092505050611856565b5b60011561182057818060019003925050600460008381526020019081526020016000206040518060600160405290816000820160009054906101000a900473ffffffffffffffffffffffffffffffffffffffff1673ffffffffffffffffffffffffffffffffffffffff1673ffffffffffffffffffffffffffffffffffffffff1681526020016000820160149054906101000a900467ffffffffffffffff1667ffffffffffffffff1667ffffffffffffffff16815260200160008201601c9054906101000a900460ff1615151515815250509050600073ffffffffffffffffffffffffffffffffffffffff16816000015173ffffffffffffffffffffffffffffffffffffffff161461181b578092505050611856565b611706565b5b505b5b6040517fdf2d9b4200000000000000000000000000000000000000000000000000000000815260040160405180910390fd5b919050565b6000600860009054906101000a900473ffffffffffffffffffffffffffffffffffffffff16905081600860006101000a81548173ffffffffffffffffffffffffffffffffffffffff021916908373ffffffffffffffffffffffffffffffffffffffff1602179055508173ffffffffffffffffffffffffffffffffffffffff168173ffffffffffffffffffffffffffffffffffffffff167f8be0079c531659141344cd1fd0a4f28419497f9722a3daafe3b4186f6b6457e060405160405180910390a35050565b6000808273ffffffffffffffffffffffffffffffffffffffff163b119050919050565b60008373ffffffffffffffffffffffffffffffffffffffff1663150b7a0261196a610fbf565b8786866040518563ffffffff1660e01b815260040161198c9493929190612793565b602060405180830381600087803b1580156119a657600080fd5b505af19250505080156119d757506040513d601f19601f820116820180604052508101906119d491906123f0565b60015b611a51573d8060008114611a07576040519150601f19603f3d011682016040523d82523d6000602084013e611a0c565b606091505b50600081511415611a49576040517fd1a57ed600000000000000000000000000000000000000000000000000000000815260040160405180910390fd5b805181602001fd5b63150b7a0260e01b7bffffffffffffffffffffffffffffffffffffffffffffffffffffffff1916817bffffffffffffffffffffffffffffffffffffffffffffffffffffffff191614915050949350505050565b60606000821415611aec576040518060400160405280600181526020017f30000000000000000000000000000000000000000000000000000000000000008152509050611c4c565b600082905060005b60008214611b1e578080611b0790612bc4565b915050600a82611b179190612a46565b9150611af4565b60008167ffffffffffffffff811115611b60577f4e487b7100000000000000000000000000000000000000000000000000000000600052604160045260246000fd5b6040519080825280601f01601f191660200182016040528015611b925781602001600182028036833780820191505090505b5090505b60008514611c4557600182611bab9190612a77565b9150600a85611bba9190612c0d565b6030611bc691906129f0565b60f81b818381518110611c02577f4e487b7100000000000000000000000000000000000000000000000000000000600052603260045260246000fd5b60200101907effffffffffffffffffffffffffffffffffffffffffffffffffffffffffffff1916908160001a905350600a85611c3e9190612a46565b9450611b96565b8093505050505b919050565b50505050565b50505050565b600080549050600073ffffffffffffffffffffffffffffffffffffffff168473ffffffffffffffffffffffffffffffffffffffff161415611cca576040517f2e07630000000000000000000000000000000000000000000000000000000000815260040160405180910390fd5b6000831415611d05576040517fb562e8dd00000000000000000000000000000000000000000000000000000000815260040160405180910390fd5b611d126000858386611c51565b82600560008673ffffffffffffffffffffffffffffffffffffffff1673ffffffffffffffffffffffffffffffffffffffff16815260200190815260200160002060000160008282829054906101000a900467ffffffffffffffff160192506101000a81548167ffffffffffffffff021916908367ffffffffffffffff16021790555082600560008673ffffffffffffffffffffffffffffffffffffffff1673ffffffffffffffffffffffffffffffffffffffff16815260200190815260200160002060000160088282829054906101000a900467ffffffffffffffff160192506101000a81548167ffffffffffffffff021916908367ffffffffffffffff160217905550836004600083815260200190815260200160002060000160006101000a81548173ffffffffffffffffffffffffffffffffffffffff021916908373ffffffffffffffffffffffffffffffffffffffff160217905550426004600083815260200190815260200160002060000160146101000a81548167ffffffffffffffff021916908367ffffffffffffffff160217905550600081905060008482019050611ed38673ffffffffffffffffffffffffffffffffffffffff16611921565b15611f98575b818673ffffffffffffffffffffffffffffffffffffffff16600073ffffffffffffffffffffffffffffffffffffffff167fddf252ad1be2c89b69c2b068fc378daa952ba7f163c4a11628f55a4df523b3ef60405160405180910390a4611f486000878480600101955087611944565b611f7e576040517fd1a57ed600000000000000000000000000000000000000000000000000000000815260040160405180910390fd5b808210611ed9578260005414611f9357600080fd5b612003565b5b818060010192508673ffffffffffffffffffffffffffffffffffffffff16600073ffffffffffffffffffffffffffffffffffffffff167fddf252ad1be2c89b69c2b068fc378daa952ba7f163c4a11628f55a4df523b3ef60405160405180910390a4808210611f99575b8160008190555050506120196000858386611c57565b50505050565b82805461202b90612b61565b90600052602060002090601f01602090048101928261204d5760008555612094565b82601f1061206657803560ff1916838001178555612094565b82800160010185558215612094579182015b82811115612093578235825591602001919060010190612078565b5b5090506120a191906120e8565b5090565b6040518060600160405280600073ffffffffffffffffffffffffffffffffffffffff168152602001600067ffffffffffffffff1681526020016000151581525090565b5b808211156121015760008160009055506001016120e9565b5090565b60006121186121138461295c565b612937565b90508281526020810184848401111561213057600080fd5b61213b848285612b1f565b509392505050565b60008135905061215281612ecb565b92915050565b60008135905061216781612ee2565b92915050565b60008135905061217c81612ef9565b92915050565b60008151905061219181612ef9565b92915050565b600082601f8301126121a857600080fd5b81356121b8848260208601612105565b91505092915050565b60008083601f8401126121d357600080fd5b8235905067ffffffffffffffff8111156121ec57600080fd5b60208301915083600182028301111561220457600080fd5b9250929050565b60008135905061221a81612f10565b92915050565b60006020828403121561223257600080fd5b600061224084828501612143565b91505092915050565b6000806040838503121561225c57600080fd5b600061226a85828601612143565b925050602061227b85828601612143565b9150509250929050565b60008060006060848603121561229a57600080fd5b60006122a886828701612143565b93505060206122b986828701612143565b92505060406122ca8682870161220b565b9150509250925092565b600080600080608085870312156122ea57600080fd5b60006122f887828801612143565b945050602061230987828801612143565b935050604061231a8782880161220b565b925050606085013567ffffffffffffffff81111561233757600080fd5b61234387828801612197565b91505092959194509250565b6000806040838503121561236257600080fd5b600061237085828601612143565b925050602061238185828601612158565b9150509250929050565b6000806040838503121561239e57600080fd5b60006123ac85828601612143565b92505060206123bd8582860161220b565b9150509250929050565b6000602082840312156123d957600080fd5b60006123e78482850161216d565b91505092915050565b60006020828403121561240257600080fd5b600061241084828501612182565b91505092915050565b6000806020838503121561242c57600080fd5b600083013567ffffffffffffffff81111561244657600080fd5b612452858286016121c1565b92509250509250929050565b60006020828403121561247057600080fd5b600061247e8482850161220b565b91505092915050565b61249081612aab565b82525050565b61249f81612abd565b82525050565b60006124b0826129a2565b6124ba81856129b8565b93506124ca818560208601612b2e565b6124d381612cfa565b840191505092915050565b60006124e9826129ad565b6124f381856129d4565b9350612503818560208601612b2e565b61250c81612cfa565b840191505092915050565b6000612522826129ad565b61252c81856129e5565b935061253c818560208601612b2e565b80840191505092915050565b6000815461255581612b61565b61255f81866129e5565b9450600182166000811461257a576001811461258b576125be565b60ff198316865281860193506125be565b6125948561298d565b60005b838110156125b657815481890152600182019150602081019050612597565b838801955050505b50505092915050565b60006125d46026836129d4565b91506125df82612d0b565b604082019050919050565b60006125f7600f836129d4565b915061260282612d5a565b602082019050919050565b600061261a6005836129e5565b915061262582612d83565b600582019050919050565b600061263d6020836129d4565b915061264882612dac565b602082019050919050565b6000612660601b836129d4565b915061266b82612dd5565b602082019050919050565b60006126836026836129d4565b915061268e82612dfe565b604082019050919050565b60006126a66000836129c9565b91506126b182612e4d565b600082019050919050565b60006126c9601f836129d4565b91506126d482612e50565b602082019050919050565b60006126ec6015836129d4565b91506126f782612e79565b602082019050919050565b600061270f6016836129d4565b915061271a82612ea2565b602082019050919050565b61272e81612b15565b82525050565b60006127408285612548565b915061274c8284612517565b91506127578261260d565b91508190509392505050565b600061276e82612699565b9150819050919050565b600060208201905061278d6000830184612487565b92915050565b60006080820190506127a86000830187612487565b6127b56020830186612487565b6127c26040830185612725565b81810360608301526127d481846124a5565b905095945050505050565b60006020820190506127f46000830184612496565b92915050565b6000602082019050818103600083015261281481846124de565b905092915050565b60006020820190508181036000830152612835816125c7565b9050919050565b60006020820190508181036000830152612855816125ea565b9050919050565b6000602082019050818103600083015261287581612630565b9050919050565b6000602082019050818103600083015261289581612653565b9050919050565b600060208201905081810360008301526128b581612676565b9050919050565b600060208201905081810360008301526128d5816126bc565b9050919050565b600060208201905081810360008301526128f5816126df565b9050919050565b6000602082019050818103600083015261291581612702565b9050919050565b60006020820190506129316000830184612725565b92915050565b6000612941612952565b905061294d8282612b93565b919050565b6000604051905090565b600067ffffffffffffffff82111561297757612976612ccb565b5b61298082612cfa565b9050602081019050919050565b60008190508160005260206000209050919050565b600081519050919050565b600081519050919050565b600082825260208201905092915050565b600081905092915050565b600082825260208201905092915050565b600081905092915050565b60006129fb82612b15565b9150612a0683612b15565b9250827fffffffffffffffffffffffffffffffffffffffffffffffffffffffffffffffff03821115612a3b57612a3a612c3e565b5b828201905092915050565b6000612a5182612b15565b9150612a5c83612b15565b925082612a6c57612a6b612c6d565b5b828204905092915050565b6000612a8282612b15565b9150612a8d83612b15565b925082821015612aa057612a9f612c3e565b5b828203905092915050565b6000612ab682612af5565b9050919050565b60008115159050919050565b60007fffffffff0000000000000000000000000000000000000000000000000000000082169050919050565b600073ffffffffffffffffffffffffffffffffffffffff82169050919050565b6000819050919050565b82818337600083830152505050565b60005b83811015612b4c578082015181840152602081019050612b31565b83811115612b5b576000848401525b50505050565b60006002820490506001821680612b7957607f821691505b60208210811415612b8d57612b8c612c9c565b5b50919050565b612b9c82612cfa565b810181811067ffffffffffffffff82111715612bbb57612bba612ccb565b5b80604052505050565b6000612bcf82612b15565b91507fffffffffffffffffffffffffffffffffffffffffffffffffffffffffffffffff821415612c0257612c01612c3e565b5b600182019050919050565b6000612c1882612b15565b9150612c2383612b15565b925082612c3357612c32612c6d565b5b828206905092915050565b7f4e487b7100000000000000000000000000000000000000000000000000000000600052601160045260246000fd5b7f4e487b7100000000000000000000000000000000000000000000000000000000600052601260045260246000fd5b7f4e487b7100000000000000000000000000000000000000000000000000000000600052602260045260246000fd5b7f4e487b7100000000000000000000000000000000000000000000000000000000600052604160045260246000fd5b6000601f19601f8301169050919050565b7f4f776e61626c653a206e6577206f776e657220697320746865207a65726f206160008201527f6464726573730000000000000000000000000000000000000000000000000000602082015250565b7f5472616e73666572206661696c65640000000000000000000000000000000000600082015250565b7f2e6a736f6e000000000000000000000000000000000000000000000000000000600082015250565b7f4f776e61626c653a2063616c6c6572206973206e6f7420746865206f776e6572600082015250565b7f4578636565646564206d617820746f6b656e2070757263686173650000000000600082015250565b7f507572636861736520776f756c6420657863656564204d617820546f6b656e2060008201527f537570706c790000000000000000000000000000000000000000000000000000602082015250565b50565b7f5265656e7472616e637947756172643a207265656e7472616e742063616c6c00600082015250565b7f546f6b656e20646f6573206e6f74206578697374210000000000000000000000600082015250565b7f4d757374206d696e74206174206c65617374206f6e6500000000000000000000600082015250565b612ed481612aab565b8114612edf57600080fd5b50565b612eeb81612abd565b8114612ef657600080fd5b50565b612f0281612ac9565b8114612f0d57600080fd5b50565b612f1981612b15565b8114612f2457600080fd5b5056fea26469706673582212208c85a16f7c01526c2ca52bf1d289e37bbf629ce5d11155dea1e40d75ee3d584464736f6c63430008040033",
  "linkReferences": {},
  "deployedLinkReferences": {}
}