{
  "_format": "hh-sol-artifact-1",
  "contractName": "DropERC721",
  "sourceName": "contracts/DropERC721.sol",
  "abi": [
    {
      "inputs": [],
      "stateMutability": "nonpayable",
      "type": "constructor"
    },
    {
      "inputs": [],
      "name": "Ownable__NotAuthorized",
      "type": "error"
    },
    {
      "inputs": [
        {
          "internalType": "uint256",
          "name": "platformFeeBps",
          "type": "uint256"
        }
      ],
      "name": "PlatformFee__ExceedsMaxBps",
      "type": "error"
    },
    {
      "inputs": [],
      "name": "PlatformFee__NotAuthorized",
      "type": "error"
    },
    {
      "inputs": [],
      "name": "PrimarySale__NotAuthorized",
      "type": "error"
    },
    {
      "inputs": [
        {
          "internalType": "uint256",
          "name": "royaltyBps",
          "type": "uint256"
        }
      ],
      "name": "Royalty__ExceedsMaxBps",
      "type": "error"
    },
    {
      "inputs": [],
      "name": "Royalty__NotAuthorized",
      "type": "error"
    },
    {
      "anonymous": false,
      "inputs": [
        {
          "indexed": true,
          "internalType": "address",
          "name": "owner",
          "type": "address"
        },
        {
          "indexed": true,
          "internalType": "address",
          "name": "approved",
          "type": "address"
        },
        {
          "indexed": true,
          "internalType": "uint256",
          "name": "tokenId",
          "type": "uint256"
        }
      ],
      "name": "Approval",
      "type": "event"
    },
    {
      "anonymous": false,
      "inputs": [
        {
          "indexed": true,
          "internalType": "address",
          "name": "owner",
          "type": "address"
        },
        {
          "indexed": true,
          "internalType": "address",
          "name": "operator",
          "type": "address"
        },
        {
          "indexed": false,
          "internalType": "bool",
          "name": "approved",
          "type": "bool"
        }
      ],
      "name": "ApprovalForAll",
      "type": "event"
    },
    {
      "anonymous": false,
      "inputs": [
        {
          "components": [
            {
              "internalType": "uint256",
              "name": "startTimestamp",
              "type": "uint256"
            },
            {
              "internalType": "uint256",
              "name": "maxClaimableSupply",
              "type": "uint256"
            },
            {
              "internalType": "uint256",
              "name": "supplyClaimed",
              "type": "uint256"
            },
            {
              "internalType": "uint256",
              "name": "quantityLimitPerTransaction",
              "type": "uint256"
            },
            {
              "internalType": "uint256",
              "name": "waitTimeInSecondsBetweenClaims",
              "type": "uint256"
            },
            {
              "internalType": "bytes32",
              "name": "merkleRoot",
              "type": "bytes32"
            },
            {
              "internalType": "uint256",
              "name": "pricePerToken",
              "type": "uint256"
            },
            {
              "internalType": "address",
              "name": "currency",
              "type": "address"
            }
          ],
          "indexed": false,
          "internalType": "struct IDropClaimCondition.ClaimCondition[]",
          "name": "claimConditions",
          "type": "tuple[]"
        }
      ],
      "name": "ClaimConditionsUpdated",
      "type": "event"
    },
    {
      "anonymous": false,
      "inputs": [
        {
          "indexed": true,
          "internalType": "address",
          "name": "newRoyaltyRecipient",
          "type": "address"
        },
        {
          "indexed": false,
          "internalType": "uint256",
          "name": "newRoyaltyBps",
          "type": "uint256"
        }
      ],
      "name": "DefaultRoyalty",
      "type": "event"
    },
    {
      "anonymous": false,
      "inputs": [
        {
          "indexed": false,
          "internalType": "uint8",
          "name": "version",
          "type": "uint8"
        }
      ],
      "name": "Initialized",
      "type": "event"
    },
    {
      "anonymous": false,
      "inputs": [
        {
          "indexed": false,
          "internalType": "uint256",
          "name": "maxTotalSupply",
          "type": "uint256"
        }
      ],
      "name": "MaxTotalSupplyUpdated",
      "type": "event"
    },
    {
      "anonymous": false,
      "inputs": [
        {
          "indexed": false,
          "internalType": "uint256",
          "name": "count",
          "type": "uint256"
        }
      ],
      "name": "MaxWalletClaimCountUpdated",
      "type": "event"
    },
    {
      "anonymous": false,
      "inputs": [
        {
          "indexed": false,
          "internalType": "uint256",
          "name": "endTokenId",
          "type": "uint256"
        },
        {
          "indexed": false,
          "internalType": "string",
          "name": "revealedURI",
          "type": "string"
        }
      ],
      "name": "NFTRevealed",
      "type": "event"
    },
    {
      "anonymous": false,
      "inputs": [
        {
          "indexed": true,
          "internalType": "address",
          "name": "prevOwner",
          "type": "address"
        },
        {
          "indexed": true,
          "internalType": "address",
          "name": "newOwner",
          "type": "address"
        }
      ],
      "name": "OwnerUpdated",
      "type": "event"
    },
    {
      "anonymous": false,
      "inputs": [
        {
          "indexed": true,
          "internalType": "address",
          "name": "platformFeeRecipient",
          "type": "address"
        },
        {
          "indexed": false,
          "internalType": "uint256",
          "name": "platformFeeBps",
          "type": "uint256"
        }
      ],
      "name": "PlatformFeeInfoUpdated",
      "type": "event"
    },
    {
      "anonymous": false,
      "inputs": [
        {
          "indexed": true,
          "internalType": "address",
          "name": "recipient",
          "type": "address"
        }
      ],
      "name": "PrimarySaleRecipientUpdated",
      "type": "event"
    },
    {
      "anonymous": false,
      "inputs": [
        {
          "indexed": true,
          "internalType": "bytes32",
          "name": "role",
          "type": "bytes32"
        },
        {
          "indexed": true,
          "internalType": "bytes32",
          "name": "previousAdminRole",
          "type": "bytes32"
        },
        {
          "indexed": true,
          "internalType": "bytes32",
          "name": "newAdminRole",
          "type": "bytes32"
        }
      ],
      "name": "RoleAdminChanged",
      "type": "event"
    },
    {
      "anonymous": false,
      "inputs": [
        {
          "indexed": true,
          "internalType": "bytes32",
          "name": "role",
          "type": "bytes32"
        },
        {
          "indexed": true,
          "internalType": "address",
          "name": "account",
          "type": "address"
        },
        {
          "indexed": true,
          "internalType": "address",
          "name": "sender",
          "type": "address"
        }
      ],
      "name": "RoleGranted",
      "type": "event"
    },
    {
      "anonymous": false,
      "inputs": [
        {
          "indexed": true,
          "internalType": "bytes32",
          "name": "role",
          "type": "bytes32"
        },
        {
          "indexed": true,
          "internalType": "address",
          "name": "account",
          "type": "address"
        },
        {
          "indexed": true,
          "internalType": "address",
          "name": "sender",
          "type": "address"
        }
      ],
      "name": "RoleRevoked",
      "type": "event"
    },
    {
      "anonymous": false,
      "inputs": [
        {
          "indexed": true,
          "internalType": "uint256",
          "name": "tokenId",
          "type": "uint256"
        },
        {
          "indexed": true,
          "internalType": "address",
          "name": "royaltyRecipient",
          "type": "address"
        },
        {
          "indexed": false,
          "internalType": "uint256",
          "name": "royaltyBps",
          "type": "uint256"
        }
      ],
      "name": "RoyaltyForToken",
      "type": "event"
    },
    {
      "anonymous": false,
      "inputs": [
        {
          "indexed": true,
          "internalType": "uint256",
          "name": "claimConditionIndex",
          "type": "uint256"
        },
        {
          "indexed": true,
          "internalType": "address",
          "name": "claimer",
          "type": "address"
        },
        {
          "indexed": true,
          "internalType": "address",
          "name": "receiver",
          "type": "address"
        },
        {
          "indexed": false,
          "internalType": "uint256",
          "name": "startTokenId",
          "type": "uint256"
        },
        {
          "indexed": false,
          "internalType": "uint256",
          "name": "quantityClaimed",
          "type": "uint256"
        }
      ],
      "name": "TokensClaimed",
      "type": "event"
    },
    {
      "anonymous": false,
      "inputs": [
        {
          "indexed": false,
          "internalType": "uint256",
          "name": "startTokenId",
          "type": "uint256"
        },
        {
          "indexed": false,
          "internalType": "uint256",
          "name": "endTokenId",
          "type": "uint256"
        },
        {
          "indexed": false,
          "internalType": "string",
          "name": "baseURI",
          "type": "string"
        },
        {
          "indexed": false,
          "internalType": "bytes",
          "name": "encryptedBaseURI",
          "type": "bytes"
        }
      ],
      "name": "TokensLazyMinted",
      "type": "event"
    },
    {
      "anonymous": false,
      "inputs": [
        {
          "indexed": true,
          "internalType": "address",
          "name": "from",
          "type": "address"
        },
        {
          "indexed": true,
          "internalType": "address",
          "name": "to",
          "type": "address"
        },
        {
          "indexed": true,
          "internalType": "uint256",
          "name": "tokenId",
          "type": "uint256"
        }
      ],
      "name": "Transfer",
      "type": "event"
    },
    {
      "anonymous": false,
      "inputs": [
        {
          "indexed": true,
          "internalType": "address",
          "name": "wallet",
          "type": "address"
        },
        {
          "indexed": false,
          "internalType": "uint256",
          "name": "count",
          "type": "uint256"
        }
      ],
      "name": "WalletClaimCountUpdated",
      "type": "event"
    },
    {
      "inputs": [],
      "name": "DEFAULT_ADMIN_ROLE",
      "outputs": [
        {
          "internalType": "bytes32",
          "name": "",
          "type": "bytes32"
        }
      ],
      "stateMutability": "view",
      "type": "function"
    },
    {
      "inputs": [
        {
          "internalType": "address",
          "name": "to",
          "type": "address"
        },
        {
          "internalType": "uint256",
          "name": "tokenId",
          "type": "uint256"
        }
      ],
      "name": "approve",
      "outputs": [],
      "stateMutability": "nonpayable",
      "type": "function"
    },
    {
      "inputs": [
        {
          "internalType": "address",
          "name": "owner",
          "type": "address"
        }
      ],
      "name": "balanceOf",
      "outputs": [
        {
          "internalType": "uint256",
          "name": "",
          "type": "uint256"
        }
      ],
      "stateMutability": "view",
      "type": "function"
    },
    {
      "inputs": [
        {
          "internalType": "uint256",
          "name": "",
          "type": "uint256"
        }
      ],
      "name": "baseURIIndices",
      "outputs": [
        {
          "internalType": "uint256",
          "name": "",
          "type": "uint256"
        }
      ],
      "stateMutability": "view",
      "type": "function"
    },
    {
      "inputs": [
        {
          "internalType": "uint256",
          "name": "tokenId",
          "type": "uint256"
        }
      ],
      "name": "burn",
      "outputs": [],
      "stateMutability": "nonpayable",
      "type": "function"
    },
    {
      "inputs": [
        {
          "internalType": "address",
          "name": "_receiver",
          "type": "address"
        },
        {
          "internalType": "uint256",
          "name": "_quantity",
          "type": "uint256"
        },
        {
          "internalType": "address",
          "name": "_currency",
          "type": "address"
        },
        {
          "internalType": "uint256",
          "name": "_pricePerToken",
          "type": "uint256"
        },
        {
          "internalType": "bytes32[]",
          "name": "_proofs",
          "type": "bytes32[]"
        },
        {
          "internalType": "uint256",
          "name": "_proofMaxQuantityPerTransaction",
          "type": "uint256"
        }
      ],
      "name": "claim",
      "outputs": [],
      "stateMutability": "payable",
      "type": "function"
    },
    {
      "inputs": [],
      "name": "claimCondition",
      "outputs": [
        {
          "internalType": "uint256",
          "name": "currentStartId",
          "type": "uint256"
        },
        {
          "internalType": "uint256",
          "name": "count",
          "type": "uint256"
        }
      ],
      "stateMutability": "view",
      "type": "function"
    },
    {
      "inputs": [],
      "name": "contractType",
      "outputs": [
        {
          "internalType": "bytes32",
          "name": "",
          "type": "bytes32"
        }
      ],
      "stateMutability": "pure",
      "type": "function"
    },
    {
      "inputs": [],
      "name": "contractURI",
      "outputs": [
        {
          "internalType": "string",
          "name": "",
          "type": "string"
        }
      ],
      "stateMutability": "view",
      "type": "function"
    },
    {
      "inputs": [],
      "name": "contractVersion",
      "outputs": [
        {
          "internalType": "uint8",
          "name": "",
          "type": "uint8"
        }
      ],
      "stateMutability": "pure",
      "type": "function"
    },
    {
      "inputs": [
        {
          "internalType": "bytes",
          "name": "data",
          "type": "bytes"
        },
        {
          "internalType": "bytes",
          "name": "key",
          "type": "bytes"
        }
      ],
      "name": "encryptDecrypt",
      "outputs": [
        {
          "internalType": "bytes",
          "name": "result",
          "type": "bytes"
        }
      ],
      "stateMutability": "pure",
      "type": "function"
    },
    {
      "inputs": [
        {
          "internalType": "uint256",
          "name": "",
          "type": "uint256"
        }
      ],
      "name": "encryptedBaseURI",
      "outputs": [
        {
          "internalType": "bytes",
          "name": "",
          "type": "bytes"
        }
      ],
      "stateMutability": "view",
      "type": "function"
    },
    {
      "inputs": [],
      "name": "getActiveClaimConditionId",
      "outputs": [
        {
          "internalType": "uint256",
          "name": "",
          "type": "uint256"
        }
      ],
      "stateMutability": "view",
      "type": "function"
    },
    {
      "inputs": [
        {
          "internalType": "uint256",
          "name": "tokenId",
          "type": "uint256"
        }
      ],
      "name": "getApproved",
      "outputs": [
        {
          "internalType": "address",
          "name": "",
          "type": "address"
        }
      ],
      "stateMutability": "view",
      "type": "function"
    },
    {
      "inputs": [],
      "name": "getBaseURICount",
      "outputs": [
        {
          "internalType": "uint256",
          "name": "",
          "type": "uint256"
        }
      ],
      "stateMutability": "view",
      "type": "function"
    },
    {
      "inputs": [
        {
          "internalType": "uint256",
          "name": "_conditionId",
          "type": "uint256"
        }
      ],
      "name": "getClaimConditionById",
      "outputs": [
        {
          "components": [
            {
              "internalType": "uint256",
              "name": "startTimestamp",
              "type": "uint256"
            },
            {
              "internalType": "uint256",
              "name": "maxClaimableSupply",
              "type": "uint256"
            },
            {
              "internalType": "uint256",
              "name": "supplyClaimed",
              "type": "uint256"
            },
            {
              "internalType": "uint256",
              "name": "quantityLimitPerTransaction",
              "type": "uint256"
            },
            {
              "internalType": "uint256",
              "name": "waitTimeInSecondsBetweenClaims",
              "type": "uint256"
            },
            {
              "internalType": "bytes32",
              "name": "merkleRoot",
              "type": "bytes32"
            },
            {
              "internalType": "uint256",
              "name": "pricePerToken",
              "type": "uint256"
            },
            {
              "internalType": "address",
              "name": "currency",
              "type": "address"
            }
          ],
          "internalType": "struct IDropClaimCondition.ClaimCondition",
          "name": "condition",
          "type": "tuple"
        }
      ],
      "stateMutability": "view",
      "type": "function"
    },
    {
      "inputs": [
        {
          "internalType": "uint256",
          "name": "_conditionId",
          "type": "uint256"
        },
        {
          "internalType": "address",
          "name": "_claimer",
          "type": "address"
        }
      ],
      "name": "getClaimTimestamp",
      "outputs": [
        {
          "internalType": "uint256",
          "name": "lastClaimTimestamp",
          "type": "uint256"
        },
        {
          "internalType": "uint256",
          "name": "nextValidClaimTimestamp",
          "type": "uint256"
        }
      ],
      "stateMutability": "view",
      "type": "function"
    },
    {
      "inputs": [],
      "name": "getDefaultRoyaltyInfo",
      "outputs": [
        {
          "internalType": "address",
          "name": "",
          "type": "address"
        },
        {
          "internalType": "uint16",
          "name": "",
          "type": "uint16"
        }
      ],
      "stateMutability": "view",
      "type": "function"
    },
    {
      "inputs": [],
      "name": "getPlatformFeeInfo",
      "outputs": [
        {
          "internalType": "address",
          "name": "",
          "type": "address"
        },
        {
          "internalType": "uint16",
          "name": "",
          "type": "uint16"
        }
      ],
      "stateMutability": "view",
      "type": "function"
    },
    {
      "inputs": [
        {
          "internalType": "bytes32",
          "name": "role",
          "type": "bytes32"
        }
      ],
      "name": "getRoleAdmin",
      "outputs": [
        {
          "internalType": "bytes32",
          "name": "",
          "type": "bytes32"
        }
      ],
      "stateMutability": "view",
      "type": "function"
    },
    {
      "inputs": [
        {
          "internalType": "bytes32",
          "name": "role",
          "type": "bytes32"
        },
        {
          "internalType": "uint256",
          "name": "index",
          "type": "uint256"
        }
      ],
      "name": "getRoleMember",
      "outputs": [
        {
          "internalType": "address",
          "name": "",
          "type": "address"
        }
      ],
      "stateMutability": "view",
      "type": "function"
    },
    {
      "inputs": [
        {
          "internalType": "bytes32",
          "name": "role",
          "type": "bytes32"
        }
      ],
      "name": "getRoleMemberCount",
      "outputs": [
        {
          "internalType": "uint256",
          "name": "",
          "type": "uint256"
        }
      ],
      "stateMutability": "view",
      "type": "function"
    },
    {
      "inputs": [
        {
          "internalType": "uint256",
          "name": "_tokenId",
          "type": "uint256"
        }
      ],
      "name": "getRoyaltyInfoForToken",
      "outputs": [
        {
          "internalType": "address",
          "name": "",
          "type": "address"
        },
        {
          "internalType": "uint16",
          "name": "",
          "type": "uint16"
        }
      ],
      "stateMutability": "view",
      "type": "function"
    },
    {
      "inputs": [
        {
          "internalType": "bytes32",
          "name": "role",
          "type": "bytes32"
        },
        {
          "internalType": "address",
          "name": "account",
          "type": "address"
        }
      ],
      "name": "grantRole",
      "outputs": [],
      "stateMutability": "nonpayable",
      "type": "function"
    },
    {
      "inputs": [
        {
          "internalType": "bytes32",
          "name": "role",
          "type": "bytes32"
        },
        {
          "internalType": "address",
          "name": "account",
          "type": "address"
        }
      ],
      "name": "hasRole",
      "outputs": [
        {
          "internalType": "bool",
          "name": "",
          "type": "bool"
        }
      ],
      "stateMutability": "view",
      "type": "function"
    },
    {
      "inputs": [
        {
          "internalType": "address",
          "name": "_defaultAdmin",
          "type": "address"
        },
        {
          "internalType": "string",
          "name": "_name",
          "type": "string"
        },
        {
          "internalType": "string",
          "name": "_symbol",
          "type": "string"
        },
        {
          "internalType": "string",
          "name": "_contractURI",
          "type": "string"
        },
        {
          "internalType": "address[]",
          "name": "_trustedForwarders",
          "type": "address[]"
        },
        {
          "internalType": "address",
          "name": "_saleRecipient",
          "type": "address"
        },
        {
          "internalType": "address",
          "name": "_royaltyRecipient",
          "type": "address"
        },
        {
          "internalType": "uint128",
          "name": "_royaltyBps",
          "type": "uint128"
        },
        {
          "internalType": "uint128",
          "name": "_platformFeeBps",
          "type": "uint128"
        },
        {
          "internalType": "address",
          "name": "_platformFeeRecipient",
          "type": "address"
        }
      ],
      "name": "initialize",
      "outputs": [],
      "stateMutability": "nonpayable",
      "type": "function"
    },
    {
      "inputs": [
        {
          "internalType": "address",
          "name": "owner",
          "type": "address"
        },
        {
          "internalType": "address",
          "name": "operator",
          "type": "address"
        }
      ],
      "name": "isApprovedForAll",
      "outputs": [
        {
          "internalType": "bool",
          "name": "",
          "type": "bool"
        }
      ],
      "stateMutability": "view",
      "type": "function"
    },
    {
      "inputs": [
        {
          "internalType": "address",
          "name": "forwarder",
          "type": "address"
        }
      ],
      "name": "isTrustedForwarder",
      "outputs": [
        {
          "internalType": "bool",
          "name": "",
          "type": "bool"
        }
      ],
      "stateMutability": "view",
      "type": "function"
    },
    {
      "inputs": [
        {
          "internalType": "uint256",
          "name": "_amount",
          "type": "uint256"
        },
        {
          "internalType": "string",
          "name": "_baseURIForTokens",
          "type": "string"
        },
        {
          "internalType": "bytes",
          "name": "_encryptedBaseURI",
          "type": "bytes"
        }
      ],
      "name": "lazyMint",
      "outputs": [],
      "stateMutability": "nonpayable",
      "type": "function"
    },
    {
      "inputs": [],
      "name": "maxTotalSupply",
      "outputs": [
        {
          "internalType": "uint256",
          "name": "",
          "type": "uint256"
        }
      ],
      "stateMutability": "view",
      "type": "function"
    },
    {
      "inputs": [],
      "name": "maxWalletClaimCount",
      "outputs": [
        {
          "internalType": "uint256",
          "name": "",
          "type": "uint256"
        }
      ],
      "stateMutability": "view",
      "type": "function"
    },
    {
      "inputs": [
        {
          "internalType": "bytes[]",
          "name": "data",
          "type": "bytes[]"
        }
      ],
      "name": "multicall",
      "outputs": [
        {
          "internalType": "bytes[]",
          "name": "results",
          "type": "bytes[]"
        }
      ],
      "stateMutability": "nonpayable",
      "type": "function"
    },
    {
      "inputs": [],
      "name": "name",
      "outputs": [
        {
          "internalType": "string",
          "name": "",
          "type": "string"
        }
      ],
      "stateMutability": "view",
      "type": "function"
    },
    {
      "inputs": [],
      "name": "nextTokenIdToClaim",
      "outputs": [
        {
          "internalType": "uint256",
          "name": "",
          "type": "uint256"
        }
      ],
      "stateMutability": "view",
      "type": "function"
    },
    {
      "inputs": [],
      "name": "nextTokenIdToMint",
      "outputs": [
        {
          "internalType": "uint256",
          "name": "",
          "type": "uint256"
        }
      ],
      "stateMutability": "view",
      "type": "function"
    },
    {
      "inputs": [],
      "name": "owner",
      "outputs": [
        {
          "internalType": "address",
          "name": "",
          "type": "address"
        }
      ],
      "stateMutability": "view",
      "type": "function"
    },
    {
      "inputs": [
        {
          "internalType": "uint256",
          "name": "tokenId",
          "type": "uint256"
        }
      ],
      "name": "ownerOf",
      "outputs": [
        {
          "internalType": "address",
          "name": "",
          "type": "address"
        }
      ],
      "stateMutability": "view",
      "type": "function"
    },
    {
      "inputs": [],
      "name": "primarySaleRecipient",
      "outputs": [
        {
          "internalType": "address",
          "name": "",
          "type": "address"
        }
      ],
      "stateMutability": "view",
      "type": "function"
    },
    {
      "inputs": [
        {
          "internalType": "bytes32",
          "name": "role",
          "type": "bytes32"
        },
        {
          "internalType": "address",
          "name": "account",
          "type": "address"
        }
      ],
      "name": "renounceRole",
      "outputs": [],
      "stateMutability": "nonpayable",
      "type": "function"
    },
    {
      "inputs": [
        {
          "internalType": "uint256",
          "name": "index",
          "type": "uint256"
        },
        {
          "internalType": "bytes",
          "name": "_key",
          "type": "bytes"
        }
      ],
      "name": "reveal",
      "outputs": [
        {
          "internalType": "string",
          "name": "revealedURI",
          "type": "string"
        }
      ],
      "stateMutability": "nonpayable",
      "type": "function"
    },
    {
      "inputs": [
        {
          "internalType": "bytes32",
          "name": "role",
          "type": "bytes32"
        },
        {
          "internalType": "address",
          "name": "account",
          "type": "address"
        }
      ],
      "name": "revokeRole",
      "outputs": [],
      "stateMutability": "nonpayable",
      "type": "function"
    },
    {
      "inputs": [
        {
          "internalType": "uint256",
          "name": "tokenId",
          "type": "uint256"
        },
        {
          "internalType": "uint256",
          "name": "salePrice",
          "type": "uint256"
        }
      ],
      "name": "royaltyInfo",
      "outputs": [
        {
          "internalType": "address",
          "name": "receiver",
          "type": "address"
        },
        {
          "internalType": "uint256",
          "name": "royaltyAmount",
          "type": "uint256"
        }
      ],
      "stateMutability": "view",
      "type": "function"
    },
    {
      "inputs": [
        {
          "internalType": "address",
          "name": "from",
          "type": "address"
        },
        {
          "internalType": "address",
          "name": "to",
          "type": "address"
        },
        {
          "internalType": "uint256",
          "name": "tokenId",
          "type": "uint256"
        }
      ],
      "name": "safeTransferFrom",
      "outputs": [],
      "stateMutability": "nonpayable",
      "type": "function"
    },
    {
      "inputs": [
        {
          "internalType": "address",
          "name": "from",
          "type": "address"
        },
        {
          "internalType": "address",
          "name": "to",
          "type": "address"
        },
        {
          "internalType": "uint256",
          "name": "tokenId",
          "type": "uint256"
        },
        {
          "internalType": "bytes",
          "name": "data",
          "type": "bytes"
        }
      ],
      "name": "safeTransferFrom",
      "outputs": [],
      "stateMutability": "nonpayable",
      "type": "function"
    },
    {
      "inputs": [
        {
          "internalType": "address",
          "name": "operator",
          "type": "address"
        },
        {
          "internalType": "bool",
          "name": "approved",
          "type": "bool"
        }
      ],
      "name": "setApprovalForAll",
      "outputs": [],
      "stateMutability": "nonpayable",
      "type": "function"
    },
    {
      "inputs": [
        {
          "components": [
            {
              "internalType": "uint256",
              "name": "startTimestamp",
              "type": "uint256"
            },
            {
              "internalType": "uint256",
              "name": "maxClaimableSupply",
              "type": "uint256"
            },
            {
              "internalType": "uint256",
              "name": "supplyClaimed",
              "type": "uint256"
            },
            {
              "internalType": "uint256",
              "name": "quantityLimitPerTransaction",
              "type": "uint256"
            },
            {
              "internalType": "uint256",
              "name": "waitTimeInSecondsBetweenClaims",
              "type": "uint256"
            },
            {
              "internalType": "bytes32",
              "name": "merkleRoot",
              "type": "bytes32"
            },
            {
              "internalType": "uint256",
              "name": "pricePerToken",
              "type": "uint256"
            },
            {
              "internalType": "address",
              "name": "currency",
              "type": "address"
            }
          ],
          "internalType": "struct IDropClaimCondition.ClaimCondition[]",
          "name": "_phases",
          "type": "tuple[]"
        },
        {
          "internalType": "bool",
          "name": "_resetClaimEligibility",
          "type": "bool"
        }
      ],
      "name": "setClaimConditions",
      "outputs": [],
      "stateMutability": "nonpayable",
      "type": "function"
    },
    {
      "inputs": [
        {
          "internalType": "string",
          "name": "_uri",
          "type": "string"
        }
      ],
      "name": "setContractURI",
      "outputs": [],
      "stateMutability": "nonpayable",
      "type": "function"
    },
    {
      "inputs": [
        {
          "internalType": "address",
          "name": "_royaltyRecipient",
          "type": "address"
        },
        {
          "internalType": "uint256",
          "name": "_royaltyBps",
          "type": "uint256"
        }
      ],
      "name": "setDefaultRoyaltyInfo",
      "outputs": [],
      "stateMutability": "nonpayable",
      "type": "function"
    },
    {
      "inputs": [
        {
          "internalType": "uint256",
          "name": "_maxTotalSupply",
          "type": "uint256"
        }
      ],
      "name": "setMaxTotalSupply",
      "outputs": [],
      "stateMutability": "nonpayable",
      "type": "function"
    },
    {
      "inputs": [
        {
          "internalType": "uint256",
          "name": "_count",
          "type": "uint256"
        }
      ],
      "name": "setMaxWalletClaimCount",
      "outputs": [],
      "stateMutability": "nonpayable",
      "type": "function"
    },
    {
      "inputs": [
        {
          "internalType": "address",
          "name": "_newOwner",
          "type": "address"
        }
      ],
      "name": "setOwner",
      "outputs": [],
      "stateMutability": "nonpayable",
      "type": "function"
    },
    {
      "inputs": [
        {
          "internalType": "address",
          "name": "_platformFeeRecipient",
          "type": "address"
        },
        {
          "internalType": "uint256",
          "name": "_platformFeeBps",
          "type": "uint256"
        }
      ],
      "name": "setPlatformFeeInfo",
      "outputs": [],
      "stateMutability": "nonpayable",
      "type": "function"
    },
    {
      "inputs": [
        {
          "internalType": "address",
          "name": "_saleRecipient",
          "type": "address"
        }
      ],
      "name": "setPrimarySaleRecipient",
      "outputs": [],
      "stateMutability": "nonpayable",
      "type": "function"
    },
    {
      "inputs": [
        {
          "internalType": "uint256",
          "name": "_tokenId",
          "type": "uint256"
        },
        {
          "internalType": "address",
          "name": "_recipient",
          "type": "address"
        },
        {
          "internalType": "uint256",
          "name": "_bps",
          "type": "uint256"
        }
      ],
      "name": "setRoyaltyInfoForToken",
      "outputs": [],
      "stateMutability": "nonpayable",
      "type": "function"
    },
    {
      "inputs": [
        {
          "internalType": "address",
          "name": "_claimer",
          "type": "address"
        },
        {
          "internalType": "uint256",
          "name": "_count",
          "type": "uint256"
        }
      ],
      "name": "setWalletClaimCount",
      "outputs": [],
      "stateMutability": "nonpayable",
      "type": "function"
    },
    {
      "inputs": [
        {
          "internalType": "bytes4",
          "name": "interfaceId",
          "type": "bytes4"
        }
      ],
      "name": "supportsInterface",
      "outputs": [
        {
          "internalType": "bool",
          "name": "",
          "type": "bool"
        }
      ],
      "stateMutability": "view",
      "type": "function"
    },
    {
      "inputs": [],
      "name": "symbol",
      "outputs": [
        {
          "internalType": "string",
          "name": "",
          "type": "string"
        }
      ],
      "stateMutability": "view",
      "type": "function"
    },
    {
      "inputs": [
        {
          "internalType": "uint256",
          "name": "index",
          "type": "uint256"
        }
      ],
      "name": "tokenByIndex",
      "outputs": [
        {
          "internalType": "uint256",
          "name": "",
          "type": "uint256"
        }
      ],
      "stateMutability": "view",
      "type": "function"
    },
    {
      "inputs": [
        {
          "internalType": "address",
          "name": "owner",
          "type": "address"
        },
        {
          "internalType": "uint256",
          "name": "index",
          "type": "uint256"
        }
      ],
      "name": "tokenOfOwnerByIndex",
      "outputs": [
        {
          "internalType": "uint256",
          "name": "",
          "type": "uint256"
        }
      ],
      "stateMutability": "view",
      "type": "function"
    },
    {
      "inputs": [
        {
          "internalType": "uint256",
          "name": "_tokenId",
          "type": "uint256"
        }
      ],
      "name": "tokenURI",
      "outputs": [
        {
          "internalType": "string",
          "name": "",
          "type": "string"
        }
      ],
      "stateMutability": "view",
      "type": "function"
    },
    {
      "inputs": [],
      "name": "totalSupply",
      "outputs": [
        {
          "internalType": "uint256",
          "name": "",
          "type": "uint256"
        }
      ],
      "stateMutability": "view",
      "type": "function"
    },
    {
      "inputs": [
        {
          "internalType": "address",
          "name": "from",
          "type": "address"
        },
        {
          "internalType": "address",
          "name": "to",
          "type": "address"
        },
        {
          "internalType": "uint256",
          "name": "tokenId",
          "type": "uint256"
        }
      ],
      "name": "transferFrom",
      "outputs": [],
      "stateMutability": "nonpayable",
      "type": "function"
    },
    {
      "inputs": [
        {
          "internalType": "uint256",
          "name": "_conditionId",
          "type": "uint256"
        },
        {
          "internalType": "address",
          "name": "_claimer",
          "type": "address"
        },
        {
          "internalType": "uint256",
          "name": "_quantity",
          "type": "uint256"
        },
        {
          "internalType": "address",
          "name": "_currency",
          "type": "address"
        },
        {
          "internalType": "uint256",
          "name": "_pricePerToken",
          "type": "uint256"
        },
        {
          "internalType": "bool",
          "name": "verifyMaxQuantityPerTransaction",
          "type": "bool"
        }
      ],
      "name": "verifyClaim",
      "outputs": [],
      "stateMutability": "view",
      "type": "function"
    },
    {
      "inputs": [
        {
          "internalType": "uint256",
          "name": "_conditionId",
          "type": "uint256"
        },
        {
          "internalType": "address",
          "name": "_claimer",
          "type": "address"
        },
        {
          "internalType": "uint256",
          "name": "_quantity",
          "type": "uint256"
        },
        {
          "internalType": "bytes32[]",
          "name": "_proofs",
          "type": "bytes32[]"
        },
        {
          "internalType": "uint256",
          "name": "_proofMaxQuantityPerTransaction",
          "type": "uint256"
        }
      ],
      "name": "verifyClaimMerkleProof",
      "outputs": [
        {
          "internalType": "bool",
          "name": "validMerkleProof",
          "type": "bool"
        },
        {
          "internalType": "uint256",
          "name": "merkleProofIndex",
          "type": "uint256"
        }
      ],
      "stateMutability": "view",
      "type": "function"
    },
    {
      "inputs": [
        {
          "internalType": "address",
          "name": "",
          "type": "address"
        }
      ],
      "name": "walletClaimCount",
      "outputs": [
        {
          "internalType": "uint256",
          "name": "",
          "type": "uint256"
        }
      ],
      "stateMutability": "view",
      "type": "function"
    }
  ],
  "bytecode": "0x60806040523480156200001157600080fd5b5060008060019054906101000a900460ff16159050808015620000445750600160008054906101000a900460ff1660ff16105b8062000080575062000061306200016360201b62003c1e1760201c565b1580156200007f5750600160008054906101000a900460ff1660ff16145b5b620000c2576040517f08c379a0000000000000000000000000000000000000000000000000000000008152600401620000b9906200020d565b60405180910390fd5b60016000806101000a81548160ff021916908360ff160217905550801562000100576001600060016101000a81548160ff0219169083151502179055505b80156200015c5760008060016101000a81548160ff0219169083151502179055507f7f26b83ff96e1f2b6a682f133852f6798a09c465da95921460cefb3847402498600160405162000153919062000289565b60405180910390a15b50620002a6565b6000808273ffffffffffffffffffffffffffffffffffffffff163b119050919050565b600082825260208201905092915050565b7f496e697469616c697a61626c653a20636f6e747261637420697320616c72656160008201527f647920696e697469616c697a6564000000000000000000000000000000000000602082015250565b6000620001f5602e8362000186565b9150620002028262000197565b604082019050919050565b600060208201905081810360008301526200022881620001e6565b9050919050565b6000819050919050565b600060ff82169050919050565b6000819050919050565b6000620002716200026b62000265846200022f565b62000246565b62000239565b9050919050565b620002838162000250565b82525050565b6000602082019050620002a0600083018462000278565b92915050565b61a05080620002b66000396000f3fe6080604052600436106103ce5760003560e01c80637a5a8e7e116101fd578063b24f2d3911610118578063d45573f6116100ab578063e15916341161007a578063e159163414610f43578063e23b816414610f6c578063e715032214610f95578063e8a3d48514610fd2578063e985e9c514610ffd576103ce565b8063d45573f614610e85578063d547741f14610eb1578063d637ed5914610eda578063d860483f14610f06576103ce565b8063ca15c873116100e7578063ca15c87314610db7578063cb2ef6f714610df4578063ce80564214610e1f578063d37c353b14610e5c576103ce565b8063b24f2d3914610cfa578063b88d4fde14610d26578063c68907de14610d4f578063c87b56dd14610d7a576103ce565b80639bcf7a1511610190578063ac9650d81161015f578063ac9650d814610c2b578063acd083f814610c68578063af3be89014610c93578063afb8291614610cd1576103ce565b80639bcf7a1514610b83578063a0a8e46014610bac578063a217fddf14610bd7578063a22cb46514610c02576103ce565b80639010d07c116101cc5780639010d07c14610ab557806391d1485414610af2578063938e3d7b14610b2f57806395d89b4114610b58576103ce565b80637a5a8e7e146109f35780638290995914610a0f57806386ee745d14610a4c5780638da5cb5b14610a8a576103ce565b80633b1475a7116102ed578063508679571161028057806363b45e2d1161024f57806363b45e2d146109255780636f4f2837146109505780636f8934f41461097957806370a08231146109b6576103ce565b80635086795714610859578063572b6c0514610882578063600dd5ea146108bf5780636352211e146108e8576103ce565b806342966c68116102bc57806342966c68146107785780634352ab41146107a15780634cc157df146107de5780634f6ccce71461081c576103ce565b80633b1475a7146106d25780633ea33f29146106fd5780633f3e4c111461072657806342842e0e1461074f576103ce565b80631e7ac488116103655780632ab4d052116103345780632ab4d052146106185780632f2ff15d146106435780632f745c591461066c57806336568abe146106a9576103ce565b80631e7ac4881461054b57806323b872dd14610574578063248a9ca31461059d5780632a55205a146105da576103ce565b8063081812fc116103a1578063081812fc14610491578063095ea7b3146104ce57806313af4035146104f757806318160ddd14610520576103ce565b806301ffc9a7146103d3578063059817691461041057806306fdde031461043b578063079fe40e14610466575b600080fd5b3480156103df57600080fd5b506103fa60048036038101906103f5919061689a565b61103a565b60405161040791906168e2565b60405180910390f35b34801561041c57600080fd5b506104256110b4565b6040516104329190616916565b60405180910390f35b34801561044757600080fd5b506104506110bb565b60405161045d91906169ca565b60405180910390f35b34801561047257600080fd5b5061047b61114e565b6040516104889190616a2d565b60405180910390f35b34801561049d57600080fd5b506104b860048036038101906104b39190616a74565b611175565b6040516104c59190616a2d565b60405180910390f35b3480156104da57600080fd5b506104f560048036038101906104f09190616acd565b6111bc565b005b34801561050357600080fd5b5061051e60048036038101906105199190616b0d565b6112d4565b005b34801561052c57600080fd5b506105356113f6565b6040516105429190616916565b60405180910390f35b34801561055757600080fd5b50610572600480360381019061056d9190616acd565b611404565b005b34801561058057600080fd5b5061059b60048036038101906105969190616b3a565b611509565b005b3480156105a957600080fd5b506105c460048036038101906105bf9190616bc3565b611569565b6040516105d19190616bff565b60405180910390f35b3480156105e657600080fd5b5061060160048036038101906105fc9190616c1a565b611589565b60405161060f929190616c5a565b60405180910390f35b34801561062457600080fd5b5061062d6115c7565b60405161063a9190616916565b60405180910390f35b34801561064f57600080fd5b5061066a60048036038101906106659190616c83565b6115ce565b005b34801561067857600080fd5b50610693600480360381019061068e9190616acd565b6115ef565b6040516106a09190616916565b60405180910390f35b3480156106b557600080fd5b506106d060048036038101906106cb9190616c83565b611695565b005b3480156106de57600080fd5b506106e7611718565b6040516106f49190616916565b60405180910390f35b34801561070957600080fd5b50610724600480360381019061071f9190616acd565b61171f565b005b34801561073257600080fd5b5061074d60048036038101906107489190616a74565b6117c4565b005b34801561075b57600080fd5b5061077660048036038101906107719190616b3a565b611814565b005b34801561078457600080fd5b5061079f600480360381019061079a9190616a74565b611834565b005b3480156107ad57600080fd5b506107c860048036038101906107c39190616b0d565b611890565b6040516107d59190616916565b60405180910390f35b3480156107ea57600080fd5b5061080560048036038101906108009190616a74565b6118a9565b604051610813929190616ce0565b60405180910390f35b34801561082857600080fd5b50610843600480360381019061083e9190616a74565b6119b7565b6040516108509190616916565b60405180910390f35b34801561086557600080fd5b50610880600480360381019061087b9190616a74565b611a29565b005b34801561088e57600080fd5b506108a960048036038101906108a49190616b0d565b611a79565b6040516108b691906168e2565b60405180910390f35b3480156108cb57600080fd5b506108e660048036038101906108e19190616acd565b611acf565b005b3480156108f457600080fd5b5061090f600480360381019061090a9190616a74565b611bd4565b60405161091c9190616a2d565b60405180910390f35b34801561093157600080fd5b5061093a611c87565b6040516109479190616916565b60405180910390f35b34801561095c57600080fd5b5061097760048036038101906109729190616b0d565b611c95565b005b34801561098557600080fd5b506109a0600480360381019061099b9190616a74565b611d2b565b6040516109ad9190616dd8565b60405180910390f35b3480156109c257600080fd5b506109dd60048036038101906109d89190616b0d565b611df9565b6040516109ea9190616916565b60405180910390f35b610a0d6004803603810190610a089190616e59565b611eb2565b005b348015610a1b57600080fd5b50610a366004803603810190610a319190616a74565b6120ce565b604051610a439190616f5d565b60405180910390f35b348015610a5857600080fd5b50610a736004803603810190610a6e9190616f7f565b61216f565b604051610a81929190616fbf565b60405180910390f35b348015610a9657600080fd5b50610a9f61221b565b604051610aac9190616a2d565b60405180910390f35b348015610ac157600080fd5b50610adc6004803603810190610ad79190616fe8565b612282565b604051610ae99190616a2d565b60405180910390f35b348015610afe57600080fd5b50610b196004803603810190610b149190616c83565b6122b2565b604051610b2691906168e2565b60405180910390f35b348015610b3b57600080fd5b50610b566004803603810190610b51919061707e565b61231d565b005b348015610b6457600080fd5b50610b6d612342565b604051610b7a91906169ca565b60405180910390f35b348015610b8f57600080fd5b50610baa6004803603810190610ba591906170cb565b6123d5565b005b348015610bb857600080fd5b50610bc161250f565b604051610bce919061713a565b60405180910390f35b348015610be357600080fd5b50610bec612518565b604051610bf99190616bff565b60405180910390f35b348015610c0e57600080fd5b50610c296004803603810190610c249190617181565b61251f565b005b348015610c3757600080fd5b50610c526004803603810190610c4d9190617217565b612535565b604051610c5f9190617370565b60405180910390f35b348015610c7457600080fd5b50610c7d612641565b604051610c8a9190616916565b60405180910390f35b348015610c9f57600080fd5b50610cba6004803603810190610cb59190617392565b612648565b604051610cc892919061742c565b60405180910390f35b348015610cdd57600080fd5b50610cf86004803603810190610cf39190617455565b6128a0565b005b348015610d0657600080fd5b50610d0f612c55565b604051610d1d929190616ce0565b60405180910390f35b348015610d3257600080fd5b50610d4d6004803603810190610d489190617612565b612c96565b005b348015610d5b57600080fd5b50610d64612cf8565b604051610d719190616916565b60405180910390f35b348015610d8657600080fd5b50610da16004803603810190610d9c9190616a74565b612db8565b604051610dae91906169ca565b60405180910390f35b348015610dc357600080fd5b50610dde6004803603810190610dd99190616bc3565b612f24565b604051610deb9190616916565b60405180910390f35b348015610e0057600080fd5b50610e09612f49565b604051610e169190616bff565b60405180910390f35b348015610e2b57600080fd5b50610e466004803603810190610e4191906176eb565b612f71565b604051610e5391906169ca565b60405180910390f35b348015610e6857600080fd5b50610e836004803603810190610e7e919061774b565b613188565b005b348015610e9157600080fd5b50610e9a6132b2565b604051610ea8929190616ce0565b60405180910390f35b348015610ebd57600080fd5b50610ed86004803603810190610ed39190616c83565b6132f3565b005b348015610ee657600080fd5b50610eef613314565b604051610efd929190616fbf565b60405180910390f35b348015610f1257600080fd5b50610f2d6004803603810190610f289190616a74565b613327565b604051610f3a9190616916565b60405180910390f35b348015610f4f57600080fd5b50610f6a6004803603810190610f65919061798c565b61334c565b005b348015610f7857600080fd5b50610f936004803603810190610f8e9190617b32565b61368f565b005b348015610fa157600080fd5b50610fbc6004803603810190610fb79190617b92565b613a70565b604051610fc99190616f5d565b60405180910390f35b348015610fde57600080fd5b50610fe7613afa565b604051610ff491906169ca565b60405180910390f35b34801561100957600080fd5b50611024600480360381019061101f9190617c0e565b613b89565b60405161103191906168e2565b60405180910390f35b600061104582613c41565b806110ad5750817bffffffffffffffffffffffffffffffffffffffffffffffffffffffff19167f2a55205a000000000000000000000000000000000000000000000000000000007bffffffffffffffffffffffffffffffffffffffffffffffffffffffff1916145b9050919050565b6101c75481565b606061015f80546110cb90617c7d565b80601f01602080910402602001604051908101604052809291908181526020018280546110f790617c7d565b80156111445780601f1061111957610100808354040283529160200191611144565b820191906000526020600020905b81548152906001019060200180831161112757829003601f168201915b5050505050905090565b6101c660009054906101000a900473ffffffffffffffffffffffffffffffffffffffff1681565b600061118082613cbb565b610163600083815260200190815260200160002060009054906101000a900473ffffffffffffffffffffffffffffffffffffffff169050919050565b60006111c782611bd4565b90508073ffffffffffffffffffffffffffffffffffffffff168373ffffffffffffffffffffffffffffffffffffffff161415611238576040517f08c379a000000000000000000000000000000000000000000000000000000000815260040161122f90617d21565b60405180910390fd5b8073ffffffffffffffffffffffffffffffffffffffff16611257613d06565b73ffffffffffffffffffffffffffffffffffffffff161480611286575061128581611280613d06565b613b89565b5b6112c5576040517f08c379a00000000000000000000000000000000000000000000000000000000081526004016112bc90617db3565b60405180910390fd5b6112cf8383613d15565b505050565b6000801b6112e181613dcf565b6112ee6000801b836122b2565b61132d576040517f08c379a000000000000000000000000000000000000000000000000000000000815260040161132490617e1f565b60405180910390fd5b60006101c360009054906101000a900473ffffffffffffffffffffffffffffffffffffffff169050826101c360006101000a81548173ffffffffffffffffffffffffffffffffffffffff021916908373ffffffffffffffffffffffffffffffffffffffff1602179055508273ffffffffffffffffffffffffffffffffffffffff168173ffffffffffffffffffffffffffffffffffffffff167f8292fce18fa69edf4db7b94ea2e58241df0ae57f97e0a6c9b29067028bf92d7660405160405180910390a3505050565b600061019380549050905090565b6000801b61141181613dcf565b612710821115611456576040517f08c379a000000000000000000000000000000000000000000000000000000000815260040161144d90617e8b565b60405180910390fd5b816101c960146101000a81548161ffff021916908361ffff160217905550826101c960006101000a81548173ffffffffffffffffffffffffffffffffffffffff021916908373ffffffffffffffffffffffffffffffffffffffff1602179055508273ffffffffffffffffffffffffffffffffffffffff167fe2497bd806ec41a6e0dd992c29a72efc0ef8fec9092d1978fd4a1e00b2f18304836040516114fc9190616916565b60405180910390a2505050565b61151a611514613d06565b82613de3565b611559576040517f08c379a000000000000000000000000000000000000000000000000000000000815260040161155090617f1d565b60405180910390fd5b611564838383613e78565b505050565b600060fb6000838152602001908152602001600020600101549050919050565b600080600080611598866118a9565b61ffff169150915081935061271081866115b29190617f6c565b6115bc9190617ff5565b925050509250929050565b6101c85481565b6115d782611569565b6115e081613dcf565b6115ea83836140e2565b505050565b60006115fa83611df9565b821061163b576040517f08c379a000000000000000000000000000000000000000000000000000000000815260040161163290618098565b60405180910390fd5b61019160008473ffffffffffffffffffffffffffffffffffffffff1673ffffffffffffffffffffffffffffffffffffffff168152602001908152602001600020600083815260200190815260200160002054905092915050565b61169d613d06565b73ffffffffffffffffffffffffffffffffffffffff168173ffffffffffffffffffffffffffffffffffffffff161461170a576040517f08c379a00000000000000000000000000000000000000000000000000000000081526004016117019061812a565b60405180910390fd5b6117148282614117565b5050565b6101c45481565b6000801b61172c81613dcf565b816101d460008573ffffffffffffffffffffffffffffffffffffffff1673ffffffffffffffffffffffffffffffffffffffff168152602001908152602001600020819055508273ffffffffffffffffffffffffffffffffffffffff167f8973b95d42472e89416ea69404f8038c041db700af9ec294e7b4cd4e1ff2801c836040516117b79190616916565b60405180910390a2505050565b6000801b6117d181613dcf565b816101c8819055507ff2672935fc79f5237559e2e2999dbe743bf65430894ac2b37666890e7c69e1af826040516118089190616916565b60405180910390a15050565b61182f83838360405180602001604052806000815250612c96565b505050565b61184561183f613d06565b82613de3565b611884576040517f08c379a000000000000000000000000000000000000000000000000000000000815260040161187b90618196565b60405180910390fd5b61188d8161414c565b50565b6101d46020528060005260406000206000915090505481565b60008060006101d560008581526020019081526020016000206040518060400160405290816000820160009054906101000a900473ffffffffffffffffffffffffffffffffffffffff1673ffffffffffffffffffffffffffffffffffffffff1673ffffffffffffffffffffffffffffffffffffffff1681526020016001820154815250509050600073ffffffffffffffffffffffffffffffffffffffff16816000015173ffffffffffffffffffffffffffffffffffffffff161461197657806000015181602001516119ad565b6101ca60009054906101000a900473ffffffffffffffffffffffffffffffffffffffff166101ca60149054906101000a900461ffff165b9250925050915091565b60006119c16113f6565b8210611a02576040517f08c379a00000000000000000000000000000000000000000000000000000000081526004016119f990618228565b60405180910390fd5b6101938281548110611a1757611a16618248565b5b90600052602060002001549050919050565b6000801b611a3681613dcf565b816101c7819055507ff9d383c69b6255cbd431ca23734f43bdf15e694c7494956c917498469bcbce7382604051611a6d9190616916565b60405180910390a15050565b6000606560008373ffffffffffffffffffffffffffffffffffffffff1673ffffffffffffffffffffffffffffffffffffffff16815260200190815260200160002060009054906101000a900460ff169050919050565b6000801b611adc81613dcf565b612710821115611b21576040517f08c379a0000000000000000000000000000000000000000000000000000000008152600401611b18906182c3565b60405180910390fd5b826101ca60006101000a81548173ffffffffffffffffffffffffffffffffffffffff021916908373ffffffffffffffffffffffffffffffffffffffff160217905550816101ca60146101000a81548161ffff021916908361ffff1602179055508273ffffffffffffffffffffffffffffffffffffffff167f90d7ec04bcb8978719414f82e52e4cb651db41d0e6f8cea6118c2191e6183adb83604051611bc79190616916565b60405180910390a2505050565b600080610161600084815260200190815260200160002060009054906101000a900473ffffffffffffffffffffffffffffffffffffffff169050600073ffffffffffffffffffffffffffffffffffffffff168173ffffffffffffffffffffffffffffffffffffffff161415611c7e576040517f08c379a0000000000000000000000000000000000000000000000000000000008152600401611c759061832f565b60405180910390fd5b80915050919050565b60006101cc80549050905090565b6000801b611ca281613dcf565b816101c660006101000a81548173ffffffffffffffffffffffffffffffffffffffff021916908373ffffffffffffffffffffffffffffffffffffffff1602179055508173ffffffffffffffffffffffffffffffffffffffff167f299d17e95023f496e0ffc4909cff1a61f74bb5eb18de6f900f4155bfa1b3b33360405160405180910390a25050565b611d336165e1565b6101cd600201600083815260200190815260200160002060405180610100016040529081600082015481526020016001820154815260200160028201548152602001600382015481526020016004820154815260200160058201548152602001600682015481526020016007820160009054906101000a900473ffffffffffffffffffffffffffffffffffffffff1673ffffffffffffffffffffffffffffffffffffffff1673ffffffffffffffffffffffffffffffffffffffff16815250509050919050565b60008073ffffffffffffffffffffffffffffffffffffffff168273ffffffffffffffffffffffffffffffffffffffff161415611e6a576040517f08c379a0000000000000000000000000000000000000000000000000000000008152600401611e61906183c1565b60405180910390fd5b61016260008373ffffffffffffffffffffffffffffffffffffffff1673ffffffffffffffffffffffffffffffffffffffff168152602001908152602001600020549050919050565b60026001541415611ef8576040517f08c379a0000000000000000000000000000000000000000000000000000000008152600401611eef9061842d565b60405180910390fd5b6002600181905550611f0933611a79565b80611f4657503273ffffffffffffffffffffffffffffffffffffffff16611f2e613d06565b73ffffffffffffffffffffffffffffffffffffffff16145b611f85576040517f08c379a0000000000000000000000000000000000000000000000000000000008152600401611f7c90618499565b60405180910390fd5b60006101c55490506000611f97612cf8565b9050600080611fb183611fa8613d06565b8c8a8a8a612648565b91509150600080861480611fe157506000801b6101cd600201600086815260200190815260200160002060050154145b9050611ff884611fef613d06565b8d8d8d866128a0565b8280156120055750600086115b1561203457612033826101cd600401600087815260200190815260200160002061426b90919063ffffffff16565b5b61203f8b8b8b6142a9565b61204a8c858d614403565b8b73ffffffffffffffffffffffffffffffffffffffff16612069613d06565b73ffffffffffffffffffffffffffffffffffffffff16857ffa76a4010d9533e3e964f2930a65fb6042a12fa6ff5b08281837a10b0be7321e888f6040516120b1929190616fbf565b60405180910390a450505050506001808190555050505050505050565b6101d360205280600052604060002060009150905080546120ee90617c7d565b80601f016020809104026020016040519081016040528092919081815260200182805461211a90617c7d565b80156121675780601f1061213c57610100808354040283529160200191612167565b820191906000526020600020905b81548152906001019060200180831161214a57829003601f168201915b505050505081565b6000806101cd600301600085815260200190815260200160002060008473ffffffffffffffffffffffffffffffffffffffff1673ffffffffffffffffffffffffffffffffffffffff1681526020019081526020016000205491506101cd6002016000858152602001908152602001600020600401548201905081811015612214577fffffffffffffffffffffffffffffffffffffffffffffffffffffffffffffffff90505b9250929050565b600061224d6000801b6101c360009054906101000a900473ffffffffffffffffffffffffffffffffffffffff166122b2565b61225857600061227d565b6101c360009054906101000a900473ffffffffffffffffffffffffffffffffffffffff165b905090565b60006122aa8261012d600086815260200190815260200160002061454190919063ffffffff16565b905092915050565b600060fb600084815260200190815260200160002060000160008373ffffffffffffffffffffffffffffffffffffffff1673ffffffffffffffffffffffffffffffffffffffff16815260200190815260200160002060009054906101000a900460ff16905092915050565b6000801b61232a81613dcf565b82826101cb919061233c92919061663f565b50505050565b6060610160805461235290617c7d565b80601f016020809104026020016040519081016040528092919081815260200182805461237e90617c7d565b80156123cb5780601f106123a0576101008083540402835291602001916123cb565b820191906000526020600020905b8154815290600101906020018083116123ae57829003601f168201915b5050505050905090565b6000801b6123e281613dcf565b612710821115612427576040517f08c379a000000000000000000000000000000000000000000000000000000000815260040161241e906182c3565b60405180910390fd5b60405180604001604052808473ffffffffffffffffffffffffffffffffffffffff168152602001838152506101d5600086815260200190815260200160002060008201518160000160006101000a81548173ffffffffffffffffffffffffffffffffffffffff021916908373ffffffffffffffffffffffffffffffffffffffff160217905550602082015181600101559050508273ffffffffffffffffffffffffffffffffffffffff16847f7365cf4122f072a3365c20d54eff9b38d73c096c28e1892ec8f5b0e403a0f12d846040516125019190616916565b60405180910390a350505050565b60006002905090565b6000801b81565b61253161252a613d06565b838361455b565b5050565b60608282905067ffffffffffffffff811115612554576125536174e7565b5b60405190808252806020026020018201604052801561258757816020015b60608152602001906001900390816125725790505b50905060005b8383905081101561263a57612609308585848181106125af576125ae618248565b5b90506020028101906125c191906184c8565b8080601f016020809104026020016040519081016040528093929190818152602001838380828437600081840152601f19601f820116905080830192505050505050506146c9565b82828151811061261c5761261b618248565b5b602002602001018190525080806126329061852b565b91505061258d565b5092915050565b6101c55481565b60008060006101cd60020160008a815260200190815260200160002060405180610100016040529081600082015481526020016001820154815260200160028201548152602001600382015481526020016004820154815260200160058201548152602001600682015481526020016007820160009054906101000a900473ffffffffffffffffffffffffffffffffffffffff1673ffffffffffffffffffffffffffffffffffffffff1673ffffffffffffffffffffffffffffffffffffffff168152505090506000801b8160a001511461289457612794868680806020026020016040519081016040528093929190818152602001838360200280828437600081840152601f19601f820116905080830192505050505050508260a001518a876040516020016127799291906185dd565b604051602081830303815290604052805190602001206147ad565b8093508194505050826127dc576040517f08c379a00000000000000000000000000000000000000000000000000000000081526004016127d390618655565b60405180910390fd5b612805826101cd60040160008c815260200190815260200160002061488990919063ffffffff16565b15612845576040517f08c379a000000000000000000000000000000000000000000000000000000000815260040161283c906186c1565b60405180910390fd5b60008414806128545750838711155b612893576040517f08c379a000000000000000000000000000000000000000000000000000000000815260040161288a9061872d565b60405180910390fd5b5b50965096945050505050565b60006101cd600201600088815260200190815260200160002060405180610100016040529081600082015481526020016001820154815260200160028201548152602001600382015481526020016004820154815260200160058201548152602001600682015481526020016007820160009054906101000a900473ffffffffffffffffffffffffffffffffffffffff1673ffffffffffffffffffffffffffffffffffffffff1673ffffffffffffffffffffffffffffffffffffffff168152505090508060e0015173ffffffffffffffffffffffffffffffffffffffff168473ffffffffffffffffffffffffffffffffffffffff161480156129a557508060c0015183145b6129e4576040517f08c379a00000000000000000000000000000000000000000000000000000000081526004016129db90618799565b60405180910390fd5b600085118015612a015750811580612a00575080606001518511155b5b612a40576040517f08c379a0000000000000000000000000000000000000000000000000000000008152600401612a3790618805565b60405180910390fd5b8060200151858260400151612a559190618825565b1115612a96576040517f08c379a0000000000000000000000000000000000000000000000000000000008152600401612a8d906188c7565b60405180910390fd5b6101c454856101c554612aa99190618825565b1115612aea576040517f08c379a0000000000000000000000000000000000000000000000000000000008152600401612ae190618933565b60405180910390fd5b60006101c8541480612b0d57506101c854856101c554612b0a9190618825565b11155b612b4c576040517f08c379a0000000000000000000000000000000000000000000000000000000008152600401612b439061899f565b60405180910390fd5b60006101c7541480612bac57506101c754856101d460008973ffffffffffffffffffffffffffffffffffffffff1673ffffffffffffffffffffffffffffffffffffffff16815260200190815260200160002054612ba99190618825565b11155b612beb576040517f08c379a0000000000000000000000000000000000000000000000000000000008152600401612be290618a0b565b60405180910390fd5b600080612bf8898961216f565b915091506000821480612c0b5750804210155b612c4a576040517f08c379a0000000000000000000000000000000000000000000000000000000008152600401612c4190618a77565b60405180910390fd5b505050505050505050565b6000806101ca60009054906101000a900473ffffffffffffffffffffffffffffffffffffffff166101ca60149054906101000a900461ffff16915091509091565b612ca7612ca1613d06565b83613de3565b612ce6576040517f08c379a0000000000000000000000000000000000000000000000000000000008152600401612cdd90617f1d565b60405180910390fd5b612cf2848484846148c5565b50505050565b6000806101cd600101546101cd60000154612d139190618825565b90505b6101cd60000154811115612d79576101cd6002016000600183612d399190618a97565b8152602001908152602001600020600001544210612d6657600181612d5e9190618a97565b915050612db5565b8080612d7190618acb565b915050612d16565b506040517f08c379a0000000000000000000000000000000000000000000000000000000008152600401612dac90618b41565b60405180910390fd5b90565b606060005b6101cc80549050811015612f0b576101cc8181548110612de057612ddf618248565b5b9060005260206000200154831015612ef75760006101d360006101cc8481548110612e0e57612e0d618248565b5b906000526020600020015481526020019081526020016000208054612e3290617c7d565b905014612e93576101d260006101cc8381548110612e5357612e52618248565b5b90600052602060002001548152602001908152602001600020604051602001612e7c9190618c4c565b604051602081830303815290604052915050612f1f565b6101d260006101cc8381548110612ead57612eac618248565b5b90600052602060002001548152602001908152602001600020612ecf84614921565b604051602001612ee0929190618c9f565b604051602081830303815290604052915050612f1f565b600181612f049190618825565b9050612dbd565b506040518060200160405280600081525090505b919050565b6000612f4261012d6000848152602001908152602001600020614a82565b9050919050565b60007f44726f7045524337323100000000000000000000000000000000000000000000905090565b60607f9f2df0fed2c77648de5860a4cc508cd0818c85b8b8a1ab4ceeef8d981c8956a6612f9d81613dcf565b6101cc805490508510612fe5576040517f08c379a0000000000000000000000000000000000000000000000000000000008152600401612fdc90618d0f565b60405180910390fd5b60006101cc8681548110612ffc57612ffb618248565b5b9060005260206000200154905060006101d36000838152602001908152602001600020805461302a90617c7d565b80601f016020809104026020016040519081016040528092919081815260200182805461305690617c7d565b80156130a35780601f10613078576101008083540402835291602001916130a3565b820191906000526020600020905b81548152906001019060200180831161308657829003601f168201915b505050505090506000815114156130ef576040517f08c379a00000000000000000000000000000000000000000000000000000000081526004016130e690618d7b565b60405180910390fd5b6130fa818787613a70565b9350836101d2600084815260200190815260200160002090805190602001906131249291906166c5565b506101d360008381526020019081526020016000206000613145919061674b565b7f09b52c0c3a3e08761cd3917c8e49275ed1e0982477b54047add8b4d70513bc868285604051613176929190618d9b565b60405180910390a15050509392505050565b7f9f2df0fed2c77648de5860a4cc508cd0818c85b8b8a1ab4ceeef8d981c8956a66131b281613dcf565b60006101c4549050600087826131c89190618825565b9050806101c48190555086866101d2600084815260200190815260200160002091906131f592919061663f565b506101cc819080600181540180825580915050600190039060005260206000200160009091909190915055600085859050146132505784846101d36000848152602001908152602001600020919061324e92919061678b565b505b7f2a0365091ef1a40953c670dce28177e37520648a6fdc91506bffac0ab045570d8260018a856132809190618825565b61328a9190618a97565b898989896040516132a096959493929190618e25565b60405180910390a15050505050505050565b6000806101c960009054906101000a900473ffffffffffffffffffffffffffffffffffffffff166101c960149054906101000a900461ffff16915091509091565b6132fc82611569565b61330581613dcf565b61330f8383614117565b505050565b6101cd8060000154908060010154905082565b6101cc818154811061333857600080fd5b906000526020600020016000915090505481565b60008060019054906101000a900460ff1615905080801561337d5750600160008054906101000a900460ff1660ff16105b806133aa575061338c30613c1e565b1580156133a95750600160008054906101000a900460ff1660ff16145b5b6133e9576040517f08c379a00000000000000000000000000000000000000000000000000000000081526004016133e090618eee565b60405180910390fd5b60016000806101000a81548160ff021916908360ff1602179055508015613426576001600060016101000a81548160ff0219169083151502179055505b61342e614a97565b61343787614af0565b6134418a8a614b53565b846101ca60006101000a81548173ffffffffffffffffffffffffffffffffffffffff021916908373ffffffffffffffffffffffffffffffffffffffff160217905550836101ca60146101000a81548161ffff021916908361ffff160217905550816101c960006101000a81548173ffffffffffffffffffffffffffffffffffffffff021916908373ffffffffffffffffffffffffffffffffffffffff160217905550826101c960146101000a81548161ffff021916908361ffff160217905550856101c660006101000a81548173ffffffffffffffffffffffffffffffffffffffff021916908373ffffffffffffffffffffffffffffffffffffffff160217905550876101cb908051906020019061355a9291906166c5565b508a6101c360006101000a81548173ffffffffffffffffffffffffffffffffffffffff021916908373ffffffffffffffffffffffffffffffffffffffff1602179055506135aa6000801b8c614bb0565b6135d47f9f2df0fed2c77648de5860a4cc508cd0818c85b8b8a1ab4ceeef8d981c8956a68c614bb0565b6135fe7f8502233096d909befbda0999bb8ea2f3a6be3c138b9fbf003752a4c8bce86f6c8c614bb0565b6136297f8502233096d909befbda0999bb8ea2f3a6be3c138b9fbf003752a4c8bce86f6c6000614bb0565b80156136825760008060016101000a81548160ff0219169083151502179055507f7f26b83ff96e1f2b6a682f133852f6798a09c465da95921460cefb384740249860016040516136799190618f53565b60405180910390a15b5050505050505050505050565b6000801b61369c81613dcf565b60006101cd60000154905060006101cd600101549050600082905084156136cc5781836136c99190618825565b90505b868690506101cd60010181905550806101cd60000181905550600080600090505b88889050811015613895576000811480613723575088888281811061371557613714618248565b5b905061010002016000013582105b613762576040517f08c379a000000000000000000000000000000000000000000000000000000000815260040161375990618fba565b60405180910390fd5b60006101cd600201600083866137789190618825565b815260200190815260200160002060020154905089898381811061379f5761379e618248565b5b90506101000201602001358111156137ec576040517f08c379a00000000000000000000000000000000000000000000000000000000081526004016137e390619026565b60405180910390fd5b8989838181106137ff576137fe618248565b5b905061010002016101cd6002016000848761381a9190618825565b81526020019081526020016000208181613834919061932f565b905050806101cd6002016000848761384c9190618825565b81526020019081526020016000206002018190555089898381811061387457613873618248565b5b9050610100020160000135925050808061388d9061852b565b9150506136ed565b5085156139545760008490505b8281101561394e576101cd60020160008281526020019081526020016000206000808201600090556001820160009055600282016000905560038201600090556004820160009055600582016000905560068201600090556007820160006101000a81549073ffffffffffffffffffffffffffffffffffffffff021916905550506101cd60040160008281526020019081526020016000205080806139469061852b565b9150506138a2565b50613a2d565b87879050831115613a2c5760008888905090505b83811015613a2a576101cd600201600082856139849190618825565b81526020019081526020016000206000808201600090556001820160009055600282016000905560038201600090556004820160009055600582016000905560068201600090556007820160006101000a81549073ffffffffffffffffffffffffffffffffffffffff021916905550506101cd60040160008285613a089190618825565b8152602001908152602001600020508080613a229061852b565b915050613968565b505b5b7f22ddd1bcb3816651679299dbffccb94973edec10c32e88dc2f4735c7699a02ca8888604051613a5e92919061950e565b60405180910390a15050505050505050565b6060600084519050604051915060208183010160405280825260005b81811015613af1576000858583604051602001613aab93929190619562565b6040516020818303038152906040528051906020012090506000602083018801519050818118905080602084018601525050602081613aea9190618825565b9050613a8c565b50509392505050565b6101cb8054613b0890617c7d565b80601f0160208091040260200160405190810160405280929190818152602001828054613b3490617c7d565b8015613b815780601f10613b5657610100808354040283529160200191613b81565b820191906000526020600020905b815481529060010190602001808311613b6457829003601f168201915b505050505081565b600061016460008473ffffffffffffffffffffffffffffffffffffffff1673ffffffffffffffffffffffffffffffffffffffff16815260200190815260200160002060008373ffffffffffffffffffffffffffffffffffffffff1673ffffffffffffffffffffffffffffffffffffffff16815260200190815260200160002060009054906101000a900460ff16905092915050565b6000808273ffffffffffffffffffffffffffffffffffffffff163b119050919050565b60007f780e9d63000000000000000000000000000000000000000000000000000000007bffffffffffffffffffffffffffffffffffffffffffffffffffffffff1916827bffffffffffffffffffffffffffffffffffffffffffffffffffffffff19161480613cb45750613cb382614bbe565b5b9050919050565b613cc481614ca0565b613d03576040517f08c379a0000000000000000000000000000000000000000000000000000000008152600401613cfa9061832f565b60405180910390fd5b50565b6000613d10614d0d565b905090565b81610163600083815260200190815260200160002060006101000a81548173ffffffffffffffffffffffffffffffffffffffff021916908373ffffffffffffffffffffffffffffffffffffffff160217905550808273ffffffffffffffffffffffffffffffffffffffff16613d8983611bd4565b73ffffffffffffffffffffffffffffffffffffffff167f8c5be1e5ebec7d5bd14f71427d1e84f3dd0314c0f7b2291e5b200ac8c7c3b92560405160405180910390a45050565b613de081613ddb613d06565b614d3f565b50565b600080613def83611bd4565b90508073ffffffffffffffffffffffffffffffffffffffff168473ffffffffffffffffffffffffffffffffffffffff161480613e315750613e308185613b89565b5b80613e6f57508373ffffffffffffffffffffffffffffffffffffffff16613e5784611175565b73ffffffffffffffffffffffffffffffffffffffff16145b91505092915050565b8273ffffffffffffffffffffffffffffffffffffffff16613e9882611bd4565b73ffffffffffffffffffffffffffffffffffffffff1614613eee576040517f08c379a0000000000000000000000000000000000000000000000000000000008152600401613ee5906195fe565b60405180910390fd5b600073ffffffffffffffffffffffffffffffffffffffff168273ffffffffffffffffffffffffffffffffffffffff161415613f5e576040517f08c379a0000000000000000000000000000000000000000000000000000000008152600401613f5590619690565b60405180910390fd5b613f69838383614ddc565b613f74600082613d15565b600161016260008573ffffffffffffffffffffffffffffffffffffffff1673ffffffffffffffffffffffffffffffffffffffff1681526020019081526020016000206000828254613fc59190618a97565b92505081905550600161016260008473ffffffffffffffffffffffffffffffffffffffff1673ffffffffffffffffffffffffffffffffffffffff168152602001908152602001600020600082825461401d9190618825565b9250508190555081610161600083815260200190815260200160002060006101000a81548173ffffffffffffffffffffffffffffffffffffffff021916908373ffffffffffffffffffffffffffffffffffffffff160217905550808273ffffffffffffffffffffffffffffffffffffffff168473ffffffffffffffffffffffffffffffffffffffff167fddf252ad1be2c89b69c2b068fc378daa952ba7f163c4a11628f55a4df523b3ef60405160405180910390a46140dd838383614f2a565b505050565b6140ec8282614f2f565b6141128161012d600085815260200190815260200160002061501090919063ffffffff16565b505050565b6141218282615040565b6141478161012d600085815260200190815260200160002061512290919063ffffffff16565b505050565b600061415782611bd4565b905061416581600084614ddc565b614170600083613d15565b600161016260008373ffffffffffffffffffffffffffffffffffffffff1673ffffffffffffffffffffffffffffffffffffffff16815260200190815260200160002060008282546141c19190618a97565b92505081905550610161600083815260200190815260200160002060006101000a81549073ffffffffffffffffffffffffffffffffffffffff021916905581600073ffffffffffffffffffffffffffffffffffffffff168273ffffffffffffffffffffffffffffffffffffffff167fddf252ad1be2c89b69c2b068fc378daa952ba7f163c4a11628f55a4df523b3ef60405160405180910390a461426781600084614f2a565b5050565b6000600882901c9050600060ff83166001901b9050808460000160008481526020019081526020016000206000828254179250508190555050505050565b60008114156142b7576143fe565b600081846142c59190617f6c565b905060006127106101c960149054906101000a900461ffff1661ffff16836142ed9190617f6c565b6142f79190617ff5565b905073eeeeeeeeeeeeeeeeeeeeeeeeeeeeeeeeeeeeeeee73ffffffffffffffffffffffffffffffffffffffff168473ffffffffffffffffffffffffffffffffffffffff16141561438457813414614383576040517f08c379a000000000000000000000000000000000000000000000000000000000815260040161437a906196fc565b60405180910390fd5b5b6143ba84614390613d06565b6101c960009054906101000a900473ffffffffffffffffffffffffffffffffffffffff1684615152565b6143fb846143c6613d06565b6101c660009054906101000a900473ffffffffffffffffffffffffffffffffffffffff1684866143f69190618a97565b615152565b50505b505050565b806101cd6002016000848152602001908152602001600020600201600082825461442d9190618825565b92505081905550426101cd60030160008481526020019081526020016000206000614456613d06565b73ffffffffffffffffffffffffffffffffffffffff1673ffffffffffffffffffffffffffffffffffffffff16815260200190815260200160002081905550806101d460006144a2613d06565b73ffffffffffffffffffffffffffffffffffffffff1673ffffffffffffffffffffffffffffffffffffffff16815260200190815260200160002060008282546144eb9190618825565b9250508190555060006101c554905060005b828110156145325761450f85836151cb565b60018261451c9190618825565b915060018161452b9190618825565b90506144fd565b50806101c58190555050505050565b600061455083600001836153a7565b60001c905092915050565b8173ffffffffffffffffffffffffffffffffffffffff168373ffffffffffffffffffffffffffffffffffffffff1614156145ca576040517f08c379a00000000000000000000000000000000000000000000000000000000081526004016145c190619768565b60405180910390fd5b8061016460008573ffffffffffffffffffffffffffffffffffffffff1673ffffffffffffffffffffffffffffffffffffffff16815260200190815260200160002060008473ffffffffffffffffffffffffffffffffffffffff1673ffffffffffffffffffffffffffffffffffffffff16815260200190815260200160002060006101000a81548160ff0219169083151502179055508173ffffffffffffffffffffffffffffffffffffffff168373ffffffffffffffffffffffffffffffffffffffff167f17307eab39ab6107e8899845ad3d59bd9653f200f220920489ca2b5937696c31836040516146bc91906168e2565b60405180910390a3505050565b60606146d483613c1e565b614713576040517f08c379a000000000000000000000000000000000000000000000000000000000815260040161470a906197fa565b60405180910390fd5b6000808473ffffffffffffffffffffffffffffffffffffffff168460405161473b919061984b565b600060405180830381855af49150503d8060008114614776576040519150601f19603f3d011682016040523d82523d6000602084013e61477b565b606091505b50915091506147a38282604051806060016040528060278152602001619ff4602791396153d2565b9250505092915050565b60008060008390506000805b8751811015614876576002826147cf9190617f6c565b915060008882815181106147e6576147e5618248565b5b6020026020010151905080841161482757838160405160200161480a929190619883565b604051602081830303815290604052805190602001209350614862565b808460405160200161483a929190619883565b60405160208183030381529060405280519060200120935060018361485f9190618825565b92505b50808061486e9061852b565b9150506147b9565b5085821481935093505050935093915050565b600080600883901c9050600060ff84166001901b9050600081866000016000858152602001908152602001600020541614159250505092915050565b6148d0848484613e78565b6148dc84848484615439565b61491b576040517f08c379a000000000000000000000000000000000000000000000000000000000815260040161491290619921565b60405180910390fd5b50505050565b60606000821415614969576040518060400160405280600181526020017f30000000000000000000000000000000000000000000000000000000000000008152509050614a7d565b600082905060005b6000821461499b5780806149849061852b565b915050600a826149949190617ff5565b9150614971565b60008167ffffffffffffffff8111156149b7576149b66174e7565b5b6040519080825280601f01601f1916602001820160405280156149e95781602001600182028036833780820191505090505b5090505b60008514614a7657600182614a029190618a97565b9150600a85614a119190619941565b6030614a1d9190618825565b60f81b818381518110614a3357614a32618248565b5b60200101907effffffffffffffffffffffffffffffffffffffffffffffffffffffffffffff1916908160001a905350600a85614a6f9190617ff5565b94506149ed565b8093505050505b919050565b6000614a90826000016155c1565b9050919050565b600060019054906101000a900460ff16614ae6576040517f08c379a0000000000000000000000000000000000000000000000000000000008152600401614add906199e4565b60405180910390fd5b614aee6155d2565b565b600060019054906101000a900460ff16614b3f576040517f08c379a0000000000000000000000000000000000000000000000000000000008152600401614b36906199e4565b60405180910390fd5b614b4761562a565b614b508161567b565b50565b600060019054906101000a900460ff16614ba2576040517f08c379a0000000000000000000000000000000000000000000000000000000008152600401614b99906199e4565b60405180910390fd5b614bac828261575f565b5050565b614bba82826140e2565b5050565b60007f80ac58cd000000000000000000000000000000000000000000000000000000007bffffffffffffffffffffffffffffffffffffffffffffffffffffffff1916827bffffffffffffffffffffffffffffffffffffffffffffffffffffffff19161480614c8957507f5b5e139f000000000000000000000000000000000000000000000000000000007bffffffffffffffffffffffffffffffffffffffffffffffffffffffff1916827bffffffffffffffffffffffffffffffffffffffffffffffffffffffff1916145b80614c995750614c98826157e2565b5b9050919050565b60008073ffffffffffffffffffffffffffffffffffffffff16610161600084815260200190815260200160002060009054906101000a900473ffffffffffffffffffffffffffffffffffffffff1673ffffffffffffffffffffffffffffffffffffffff1614159050919050565b6000614d1833611a79565b15614d2c57601436033560601c9050614d3b565b614d3461585c565b9050614d3c565b5b90565b614d4982826122b2565b614dd857614d6e8173ffffffffffffffffffffffffffffffffffffffff166014615864565b614d7c8360001c6020615864565b604051602001614d8d929190619a9c565b6040516020818303038152906040526040517f08c379a0000000000000000000000000000000000000000000000000000000008152600401614dcf91906169ca565b60405180910390fd5b5050565b614de7838383615aa0565b614e127f8502233096d909befbda0999bb8ea2f3a6be3c138b9fbf003752a4c8bce86f6c60006122b2565b158015614e4c5750600073ffffffffffffffffffffffffffffffffffffffff168373ffffffffffffffffffffffffffffffffffffffff1614155b8015614e855750600073ffffffffffffffffffffffffffffffffffffffff168273ffffffffffffffffffffffffffffffffffffffff1614155b15614f2557614eb47f8502233096d909befbda0999bb8ea2f3a6be3c138b9fbf003752a4c8bce86f6c846122b2565b80614ee55750614ee47f8502233096d909befbda0999bb8ea2f3a6be3c138b9fbf003752a4c8bce86f6c836122b2565b5b614f24576040517f08c379a0000000000000000000000000000000000000000000000000000000008152600401614f1b90619b22565b60405180910390fd5b5b505050565b505050565b614f3982826122b2565b61500c57600160fb600084815260200190815260200160002060000160008373ffffffffffffffffffffffffffffffffffffffff1673ffffffffffffffffffffffffffffffffffffffff16815260200190815260200160002060006101000a81548160ff021916908315150217905550614fb1613d06565b73ffffffffffffffffffffffffffffffffffffffff168173ffffffffffffffffffffffffffffffffffffffff16837f2f8788117e7eff1d82e926ec794901d17c78024a50270940304540a733656f0d60405160405180910390a45b5050565b6000615038836000018373ffffffffffffffffffffffffffffffffffffffff1660001b615bb4565b905092915050565b61504a82826122b2565b1561511e57600060fb600084815260200190815260200160002060000160008373ffffffffffffffffffffffffffffffffffffffff1673ffffffffffffffffffffffffffffffffffffffff16815260200190815260200160002060006101000a81548160ff0219169083151502179055506150c3613d06565b73ffffffffffffffffffffffffffffffffffffffff168173ffffffffffffffffffffffffffffffffffffffff16837ff6391f5c32d9c69d2a47ea670b442974b53935d1edc7fd64eb21e047a839171b60405160405180910390a45b5050565b600061514a836000018373ffffffffffffffffffffffffffffffffffffffff1660001b615c24565b905092915050565b6000811415615160576151c5565b73eeeeeeeeeeeeeeeeeeeeeeeeeeeeeeeeeeeeeeee73ffffffffffffffffffffffffffffffffffffffff168473ffffffffffffffffffffffffffffffffffffffff1614156151b7576151b28282615d38565b6151c4565b6151c384848484615de9565b5b5b50505050565b600073ffffffffffffffffffffffffffffffffffffffff168273ffffffffffffffffffffffffffffffffffffffff16141561523b576040517f08c379a000000000000000000000000000000000000000000000000000000000815260040161523290619b8e565b60405180910390fd5b61524481614ca0565b15615284576040517f08c379a000000000000000000000000000000000000000000000000000000000815260040161527b90619bfa565b60405180910390fd5b61529060008383614ddc565b600161016260008473ffffffffffffffffffffffffffffffffffffffff1673ffffffffffffffffffffffffffffffffffffffff16815260200190815260200160002060008282546152e19190618825565b9250508190555081610161600083815260200190815260200160002060006101000a81548173ffffffffffffffffffffffffffffffffffffffff021916908373ffffffffffffffffffffffffffffffffffffffff160217905550808273ffffffffffffffffffffffffffffffffffffffff16600073ffffffffffffffffffffffffffffffffffffffff167fddf252ad1be2c89b69c2b068fc378daa952ba7f163c4a11628f55a4df523b3ef60405160405180910390a46153a360008383614f2a565b5050565b60008260000182815481106153bf576153be618248565b5b9060005260206000200154905092915050565b606083156153e257829050615432565b6000835111156153f55782518084602001fd5b816040517f08c379a000000000000000000000000000000000000000000000000000000000815260040161542991906169ca565b60405180910390fd5b9392505050565b600061545a8473ffffffffffffffffffffffffffffffffffffffff16613c1e565b156155b4578373ffffffffffffffffffffffffffffffffffffffff1663150b7a02615483613d06565b8786866040518563ffffffff1660e01b81526004016154a59493929190619c1a565b6020604051808303816000875af19250505080156154e157506040513d601f19601f820116820180604052508101906154de9190619c7b565b60015b615564573d8060008114615511576040519150601f19603f3d011682016040523d82523d6000602084013e615516565b606091505b5060008151141561555c576040517f08c379a000000000000000000000000000000000000000000000000000000000815260040161555390619921565b60405180910390fd5b805181602001fd5b63150b7a0260e01b7bffffffffffffffffffffffffffffffffffffffffffffffffffffffff1916817bffffffffffffffffffffffffffffffffffffffffffffffffffffffff1916149150506155b9565b600190505b949350505050565b600081600001805490509050919050565b600060019054906101000a900460ff16615621576040517f08c379a0000000000000000000000000000000000000000000000000000000008152600401615618906199e4565b60405180910390fd5b60018081905550565b600060019054906101000a900460ff16615679576040517f08c379a0000000000000000000000000000000000000000000000000000000008152600401615670906199e4565b60405180910390fd5b565b600060019054906101000a900460ff166156ca576040517f08c379a00000000000000000000000000000000000000000000000000000000081526004016156c1906199e4565b60405180910390fd5b60005b815181101561575b576001606560008484815181106156ef576156ee618248565b5b602002602001015173ffffffffffffffffffffffffffffffffffffffff1673ffffffffffffffffffffffffffffffffffffffff16815260200190815260200160002060006101000a81548160ff02191690831515021790555080806157539061852b565b9150506156cd565b5050565b600060019054906101000a900460ff166157ae576040517f08c379a00000000000000000000000000000000000000000000000000000000081526004016157a5906199e4565b60405180910390fd5b8161015f90805190602001906157c59291906166c5565b508061016090805190602001906157dd9291906166c5565b505050565b60007f5a05180f000000000000000000000000000000000000000000000000000000007bffffffffffffffffffffffffffffffffffffffffffffffffffffffff1916827bffffffffffffffffffffffffffffffffffffffffffffffffffffffff19161480615855575061585482615ebb565b5b9050919050565b600033905090565b6060600060028360026158779190617f6c565b6158819190618825565b67ffffffffffffffff81111561589a576158996174e7565b5b6040519080825280601f01601f1916602001820160405280156158cc5781602001600182028036833780820191505090505b5090507f30000000000000000000000000000000000000000000000000000000000000008160008151811061590457615903618248565b5b60200101907effffffffffffffffffffffffffffffffffffffffffffffffffffffffffffff1916908160001a9053507f78000000000000000000000000000000000000000000000000000000000000008160018151811061596857615967618248565b5b60200101907effffffffffffffffffffffffffffffffffffffffffffffffffffffffffffff1916908160001a905350600060018460026159a89190617f6c565b6159b29190618825565b90505b6001811115615a52577f3031323334353637383961626364656600000000000000000000000000000000600f8616601081106159f4576159f3618248565b5b1a60f81b828281518110615a0b57615a0a618248565b5b60200101907effffffffffffffffffffffffffffffffffffffffffffffffffffffffffffff1916908160001a905350600485901c945080615a4b90618acb565b90506159b5565b5060008414615a96576040517f08c379a0000000000000000000000000000000000000000000000000000000008152600401615a8d90619cf4565b60405180910390fd5b8091505092915050565b615aab838383615f35565b600073ffffffffffffffffffffffffffffffffffffffff168373ffffffffffffffffffffffffffffffffffffffff161415615aee57615ae981615f3a565b615b2d565b8173ffffffffffffffffffffffffffffffffffffffff168373ffffffffffffffffffffffffffffffffffffffff1614615b2c57615b2b8382615f86565b5b5b600073ffffffffffffffffffffffffffffffffffffffff168273ffffffffffffffffffffffffffffffffffffffff161415615b7057615b6b816160f9565b615baf565b8273ffffffffffffffffffffffffffffffffffffffff168273ffffffffffffffffffffffffffffffffffffffff1614615bae57615bad82826161d1565b5b5b505050565b6000615bc08383616252565b615c19578260000182908060018154018082558091505060019003906000526020600020016000909190919091505582600001805490508360010160008481526020019081526020016000208190555060019050615c1e565b600090505b92915050565b60008083600101600084815260200190815260200160002054905060008114615d2c576000600182615c569190618a97565b9050600060018660000180549050615c6e9190618a97565b9050818114615cdd576000866000018281548110615c8f57615c8e618248565b5b9060005260206000200154905080876000018481548110615cb357615cb2618248565b5b90600052602060002001819055508387600101600083815260200190815260200160002081905550505b85600001805480615cf157615cf0619d14565b5b600190038181906000526020600020016000905590558560010160008681526020019081526020016000206000905560019350505050615d32565b60009150505b92915050565b60008273ffffffffffffffffffffffffffffffffffffffff1682604051615d5e90619d69565b60006040518083038185875af1925050503d8060008114615d9b576040519150601f19603f3d011682016040523d82523d6000602084013e615da0565b606091505b5050905080615de4576040517f08c379a0000000000000000000000000000000000000000000000000000000008152600401615ddb90619dca565b60405180910390fd5b505050565b8173ffffffffffffffffffffffffffffffffffffffff168373ffffffffffffffffffffffffffffffffffffffff161415615e2257615eb5565b3073ffffffffffffffffffffffffffffffffffffffff168373ffffffffffffffffffffffffffffffffffffffff161415615e8657615e8182828673ffffffffffffffffffffffffffffffffffffffff166162759092919063ffffffff16565b615eb4565b615eb38383838773ffffffffffffffffffffffffffffffffffffffff166162fb909392919063ffffffff16565b5b5b50505050565b60007f7965db0b000000000000000000000000000000000000000000000000000000007bffffffffffffffffffffffffffffffffffffffffffffffffffffffff1916827bffffffffffffffffffffffffffffffffffffffffffffffffffffffff19161480615f2e5750615f2d82616384565b5b9050919050565b505050565b6101938054905061019460008381526020019081526020016000208190555061019381908060018154018082558091505060019003906000526020600020016000909190919091505550565b60006001615f9384611df9565b615f9d9190618a97565b90506000610192600084815260200190815260200160002054905081811461608657600061019160008673ffffffffffffffffffffffffffffffffffffffff1673ffffffffffffffffffffffffffffffffffffffff16815260200190815260200160002060008481526020019081526020016000205490508061019160008773ffffffffffffffffffffffffffffffffffffffff1673ffffffffffffffffffffffffffffffffffffffff16815260200190815260200160002060008481526020019081526020016000208190555081610192600083815260200190815260200160002081905550505b61019260008481526020019081526020016000206000905561019160008573ffffffffffffffffffffffffffffffffffffffff1673ffffffffffffffffffffffffffffffffffffffff16815260200190815260200160002060008381526020019081526020016000206000905550505050565b600060016101938054905061610e9190618a97565b905060006101946000848152602001908152602001600020549050600061019383815481106161405761613f618248565b5b9060005260206000200154905080610193838154811061616357616162618248565b5b9060005260206000200181905550816101946000838152602001908152602001600020819055506101946000858152602001908152602001600020600090556101938054806161b5576161b4619d14565b5b6001900381819060005260206000200160009055905550505050565b60006161dc83611df9565b90508161019160008573ffffffffffffffffffffffffffffffffffffffff1673ffffffffffffffffffffffffffffffffffffffff16815260200190815260200160002060008381526020019081526020016000208190555080610192600084815260200190815260200160002081905550505050565b600080836001016000848152602001908152602001600020541415905092915050565b6162f68363a9059cbb60e01b8484604051602401616294929190616c5a565b604051602081830303815290604052907bffffffffffffffffffffffffffffffffffffffffffffffffffffffff19166020820180517bffffffffffffffffffffffffffffffffffffffffffffffffffffffff83818316178352505050506163ee565b505050565b61637e846323b872dd60e01b85858560405160240161631c93929190619dea565b604051602081830303815290604052907bffffffffffffffffffffffffffffffffffffffffffffffffffffffff19166020820180517bffffffffffffffffffffffffffffffffffffffffffffffffffffffff83818316178352505050506163ee565b50505050565b60007f01ffc9a7000000000000000000000000000000000000000000000000000000007bffffffffffffffffffffffffffffffffffffffffffffffffffffffff1916827bffffffffffffffffffffffffffffffffffffffffffffffffffffffff1916149050919050565b6000616450826040518060400160405280602081526020017f5361666545524332303a206c6f772d6c6576656c2063616c6c206661696c65648152508573ffffffffffffffffffffffffffffffffffffffff166164b59092919063ffffffff16565b90506000815111156164b057808060200190518101906164709190619e36565b6164af576040517f08c379a00000000000000000000000000000000000000000000000000000000081526004016164a690619ed5565b60405180910390fd5b5b505050565b60606164c484846000856164cd565b90509392505050565b606082471015616512576040517f08c379a000000000000000000000000000000000000000000000000000000000815260040161650990619f67565b60405180910390fd5b61651b85613c1e565b61655a576040517f08c379a000000000000000000000000000000000000000000000000000000000815260040161655190619fd3565b60405180910390fd5b6000808673ffffffffffffffffffffffffffffffffffffffff168587604051616583919061984b565b60006040518083038185875af1925050503d80600081146165c0576040519150601f19603f3d011682016040523d82523d6000602084013e6165c5565b606091505b50915091506165d58282866153d2565b92505050949350505050565b60405180610100016040528060008152602001600081526020016000815260200160008152602001600081526020016000801916815260200160008152602001600073ffffffffffffffffffffffffffffffffffffffff1681525090565b82805461664b90617c7d565b90600052602060002090601f01602090048101928261666d57600085556166b4565b82601f1061668657803560ff19168380011785556166b4565b828001600101855582156166b4579182015b828111156166b3578235825591602001919060010190616698565b5b5090506166c19190616811565b5090565b8280546166d190617c7d565b90600052602060002090601f0160209004810192826166f3576000855561673a565b82601f1061670c57805160ff191683800117855561673a565b8280016001018555821561673a579182015b8281111561673957825182559160200191906001019061671e565b5b5090506167479190616811565b5090565b50805461675790617c7d565b6000825580601f106167695750616788565b601f0160209004906000526020600020908101906167879190616811565b5b50565b82805461679790617c7d565b90600052602060002090601f0160209004810192826167b95760008555616800565b82601f106167d257803560ff1916838001178555616800565b82800160010185558215616800579182015b828111156167ff5782358255916020019190600101906167e4565b5b50905061680d9190616811565b5090565b5b8082111561682a576000816000905550600101616812565b5090565b6000604051905090565b600080fd5b600080fd5b60007fffffffff0000000000000000000000000000000000000000000000000000000082169050919050565b61687781616842565b811461688257600080fd5b50565b6000813590506168948161686e565b92915050565b6000602082840312156168b0576168af616838565b5b60006168be84828501616885565b91505092915050565b60008115159050919050565b6168dc816168c7565b82525050565b60006020820190506168f760008301846168d3565b92915050565b6000819050919050565b616910816168fd565b82525050565b600060208201905061692b6000830184616907565b92915050565b600081519050919050565b600082825260208201905092915050565b60005b8381101561696b578082015181840152602081019050616950565b8381111561697a576000848401525b50505050565b6000601f19601f8301169050919050565b600061699c82616931565b6169a6818561693c565b93506169b681856020860161694d565b6169bf81616980565b840191505092915050565b600060208201905081810360008301526169e48184616991565b905092915050565b600073ffffffffffffffffffffffffffffffffffffffff82169050919050565b6000616a17826169ec565b9050919050565b616a2781616a0c565b82525050565b6000602082019050616a426000830184616a1e565b92915050565b616a51816168fd565b8114616a5c57600080fd5b50565b600081359050616a6e81616a48565b92915050565b600060208284031215616a8a57616a89616838565b5b6000616a9884828501616a5f565b91505092915050565b616aaa81616a0c565b8114616ab557600080fd5b50565b600081359050616ac781616aa1565b92915050565b60008060408385031215616ae457616ae3616838565b5b6000616af285828601616ab8565b9250506020616b0385828601616a5f565b9150509250929050565b600060208284031215616b2357616b22616838565b5b6000616b3184828501616ab8565b91505092915050565b600080600060608486031215616b5357616b52616838565b5b6000616b6186828701616ab8565b9350506020616b7286828701616ab8565b9250506040616b8386828701616a5f565b9150509250925092565b6000819050919050565b616ba081616b8d565b8114616bab57600080fd5b50565b600081359050616bbd81616b97565b92915050565b600060208284031215616bd957616bd8616838565b5b6000616be784828501616bae565b91505092915050565b616bf981616b8d565b82525050565b6000602082019050616c146000830184616bf0565b92915050565b60008060408385031215616c3157616c30616838565b5b6000616c3f85828601616a5f565b9250506020616c5085828601616a5f565b9150509250929050565b6000604082019050616c6f6000830185616a1e565b616c7c6020830184616907565b9392505050565b60008060408385031215616c9a57616c99616838565b5b6000616ca885828601616bae565b9250506020616cb985828601616ab8565b9150509250929050565b600061ffff82169050919050565b616cda81616cc3565b82525050565b6000604082019050616cf56000830185616a1e565b616d026020830184616cd1565b9392505050565b616d12816168fd565b82525050565b616d2181616b8d565b82525050565b616d3081616a0c565b82525050565b61010082016000820151616d4d6000850182616d09565b506020820151616d606020850182616d09565b506040820151616d736040850182616d09565b506060820151616d866060850182616d09565b506080820151616d996080850182616d09565b5060a0820151616dac60a0850182616d18565b5060c0820151616dbf60c0850182616d09565b5060e0820151616dd260e0850182616d27565b50505050565b600061010082019050616dee6000830184616d36565b92915050565b600080fd5b600080fd5b600080fd5b60008083601f840112616e1957616e18616df4565b5b8235905067ffffffffffffffff811115616e3657616e35616df9565b5b602083019150836020820283011115616e5257616e51616dfe565b5b9250929050565b600080600080600080600060c0888a031215616e7857616e77616838565b5b6000616e868a828b01616ab8565b9750506020616e978a828b01616a5f565b9650506040616ea88a828b01616ab8565b9550506060616eb98a828b01616a5f565b945050608088013567ffffffffffffffff811115616eda57616ed961683d565b5b616ee68a828b01616e03565b935093505060a0616ef98a828b01616a5f565b91505092959891949750929550565b600081519050919050565b600082825260208201905092915050565b6000616f2f82616f08565b616f398185616f13565b9350616f4981856020860161694d565b616f5281616980565b840191505092915050565b60006020820190508181036000830152616f778184616f24565b905092915050565b60008060408385031215616f9657616f95616838565b5b6000616fa485828601616a5f565b9250506020616fb585828601616ab8565b9150509250929050565b6000604082019050616fd46000830185616907565b616fe16020830184616907565b9392505050565b60008060408385031215616fff57616ffe616838565b5b600061700d85828601616bae565b925050602061701e85828601616a5f565b9150509250929050565b60008083601f84011261703e5761703d616df4565b5b8235905067ffffffffffffffff81111561705b5761705a616df9565b5b60208301915083600182028301111561707757617076616dfe565b5b9250929050565b6000806020838503121561709557617094616838565b5b600083013567ffffffffffffffff8111156170b3576170b261683d565b5b6170bf85828601617028565b92509250509250929050565b6000806000606084860312156170e4576170e3616838565b5b60006170f286828701616a5f565b935050602061710386828701616ab8565b925050604061711486828701616a5f565b9150509250925092565b600060ff82169050919050565b6171348161711e565b82525050565b600060208201905061714f600083018461712b565b92915050565b61715e816168c7565b811461716957600080fd5b50565b60008135905061717b81617155565b92915050565b6000806040838503121561719857617197616838565b5b60006171a685828601616ab8565b92505060206171b78582860161716c565b9150509250929050565b60008083601f8401126171d7576171d6616df4565b5b8235905067ffffffffffffffff8111156171f4576171f3616df9565b5b6020830191508360208202830111156172105761720f616dfe565b5b9250929050565b6000806020838503121561722e5761722d616838565b5b600083013567ffffffffffffffff81111561724c5761724b61683d565b5b617258858286016171c1565b92509250509250929050565b600081519050919050565b600082825260208201905092915050565b6000819050602082019050919050565b600082825260208201905092915050565b60006172ac82616f08565b6172b68185617290565b93506172c681856020860161694d565b6172cf81616980565b840191505092915050565b60006172e683836172a1565b905092915050565b6000602082019050919050565b600061730682617264565b617310818561726f565b93508360208202850161732285617280565b8060005b8581101561735e578484038952815161733f85826172da565b945061734a836172ee565b925060208a01995050600181019050617326565b50829750879550505050505092915050565b6000602082019050818103600083015261738a81846172fb565b905092915050565b60008060008060008060a087890312156173af576173ae616838565b5b60006173bd89828a01616a5f565b96505060206173ce89828a01616ab8565b95505060406173df89828a01616a5f565b945050606087013567ffffffffffffffff811115617400576173ff61683d565b5b61740c89828a01616e03565b9350935050608061741f89828a01616a5f565b9150509295509295509295565b600060408201905061744160008301856168d3565b61744e6020830184616907565b9392505050565b60008060008060008060c0878903121561747257617471616838565b5b600061748089828a01616a5f565b965050602061749189828a01616ab8565b95505060406174a289828a01616a5f565b94505060606174b389828a01616ab8565b93505060806174c489828a01616a5f565b92505060a06174d589828a0161716c565b9150509295509295509295565b600080fd5b7f4e487b7100000000000000000000000000000000000000000000000000000000600052604160045260246000fd5b61751f82616980565b810181811067ffffffffffffffff8211171561753e5761753d6174e7565b5b80604052505050565b600061755161682e565b905061755d8282617516565b919050565b600067ffffffffffffffff82111561757d5761757c6174e7565b5b61758682616980565b9050602081019050919050565b82818337600083830152505050565b60006175b56175b084617562565b617547565b9050828152602081018484840111156175d1576175d06174e2565b5b6175dc848285617593565b509392505050565b600082601f8301126175f9576175f8616df4565b5b81356176098482602086016175a2565b91505092915050565b6000806000806080858703121561762c5761762b616838565b5b600061763a87828801616ab8565b945050602061764b87828801616ab8565b935050604061765c87828801616a5f565b925050606085013567ffffffffffffffff81111561767d5761767c61683d565b5b617689878288016175e4565b91505092959194509250565b60008083601f8401126176ab576176aa616df4565b5b8235905067ffffffffffffffff8111156176c8576176c7616df9565b5b6020830191508360018202830111156176e4576176e3616dfe565b5b9250929050565b60008060006040848603121561770457617703616838565b5b600061771286828701616a5f565b935050602084013567ffffffffffffffff8111156177335761773261683d565b5b61773f86828701617695565b92509250509250925092565b60008060008060006060868803121561776757617766616838565b5b600061777588828901616a5f565b955050602086013567ffffffffffffffff8111156177965761779561683d565b5b6177a288828901617028565b9450945050604086013567ffffffffffffffff8111156177c5576177c461683d565b5b6177d188828901617695565b92509250509295509295909350565b600067ffffffffffffffff8211156177fb576177fa6174e7565b5b61780482616980565b9050602081019050919050565b600061782461781f846177e0565b617547565b9050828152602081018484840111156178405761783f6174e2565b5b61784b848285617593565b509392505050565b600082601f83011261786857617867616df4565b5b8135617878848260208601617811565b91505092915050565b600067ffffffffffffffff82111561789c5761789b6174e7565b5b602082029050602081019050919050565b60006178c06178bb84617881565b617547565b905080838252602082019050602084028301858111156178e3576178e2616dfe565b5b835b8181101561790c57806178f88882616ab8565b8452602084019350506020810190506178e5565b5050509392505050565b600082601f83011261792b5761792a616df4565b5b813561793b8482602086016178ad565b91505092915050565b60006fffffffffffffffffffffffffffffffff82169050919050565b61796981617944565b811461797457600080fd5b50565b60008135905061798681617960565b92915050565b6000806000806000806000806000806101408b8d0312156179b0576179af616838565b5b60006179be8d828e01616ab8565b9a505060208b013567ffffffffffffffff8111156179df576179de61683d565b5b6179eb8d828e01617853565b99505060408b013567ffffffffffffffff811115617a0c57617a0b61683d565b5b617a188d828e01617853565b98505060608b013567ffffffffffffffff811115617a3957617a3861683d565b5b617a458d828e01617853565b97505060808b013567ffffffffffffffff811115617a6657617a6561683d565b5b617a728d828e01617916565b96505060a0617a838d828e01616ab8565b95505060c0617a948d828e01616ab8565b94505060e0617aa58d828e01617977565b935050610100617ab78d828e01617977565b925050610120617ac98d828e01616ab8565b9150509295989b9194979a5092959850565b60008083601f840112617af157617af0616df4565b5b8235905067ffffffffffffffff811115617b0e57617b0d616df9565b5b60208301915083610100820283011115617b2b57617b2a616dfe565b5b9250929050565b600080600060408486031215617b4b57617b4a616838565b5b600084013567ffffffffffffffff811115617b6957617b6861683d565b5b617b7586828701617adb565b93509350506020617b888682870161716c565b9150509250925092565b600080600060408486031215617bab57617baa616838565b5b600084013567ffffffffffffffff811115617bc957617bc861683d565b5b617bd5868287016175e4565b935050602084013567ffffffffffffffff811115617bf657617bf561683d565b5b617c0286828701617695565b92509250509250925092565b60008060408385031215617c2557617c24616838565b5b6000617c3385828601616ab8565b9250506020617c4485828601616ab8565b9150509250929050565b7f4e487b7100000000000000000000000000000000000000000000000000000000600052602260045260246000fd5b60006002820490506001821680617c9557607f821691505b60208210811415617ca957617ca8617c4e565b5b50919050565b7f4552433732313a20617070726f76616c20746f2063757272656e74206f776e6560008201527f7200000000000000000000000000000000000000000000000000000000000000602082015250565b6000617d0b60218361693c565b9150617d1682617caf565b604082019050919050565b60006020820190508181036000830152617d3a81617cfe565b9050919050565b7f4552433732313a20617070726f76652063616c6c6572206973206e6f7420746f60008201527f6b656e206f776e6572206e6f7220617070726f76656420666f7220616c6c0000602082015250565b6000617d9d603e8361693c565b9150617da882617d41565b604082019050919050565b60006020820190508181036000830152617dcc81617d90565b9050919050565b7f2141444d494e0000000000000000000000000000000000000000000000000000600082015250565b6000617e0960068361693c565b9150617e1482617dd3565b602082019050919050565b60006020820190508181036000830152617e3881617dfc565b9050919050565b7f3e204d41585f4250532e00000000000000000000000000000000000000000000600082015250565b6000617e75600a8361693c565b9150617e8082617e3f565b602082019050919050565b60006020820190508181036000830152617ea481617e68565b9050919050565b7f4552433732313a2063616c6c6572206973206e6f7420746f6b656e206f776e6560008201527f72206e6f7220617070726f766564000000000000000000000000000000000000602082015250565b6000617f07602e8361693c565b9150617f1282617eab565b604082019050919050565b60006020820190508181036000830152617f3681617efa565b9050919050565b7f4e487b7100000000000000000000000000000000000000000000000000000000600052601160045260246000fd5b6000617f77826168fd565b9150617f82836168fd565b9250817fffffffffffffffffffffffffffffffffffffffffffffffffffffffffffffffff0483118215151615617fbb57617fba617f3d565b5b828202905092915050565b7f4e487b7100000000000000000000000000000000000000000000000000000000600052601260045260246000fd5b6000618000826168fd565b915061800b836168fd565b92508261801b5761801a617fc6565b5b828204905092915050565b7f455243373231456e756d657261626c653a206f776e657220696e646578206f7560008201527f74206f6620626f756e6473000000000000000000000000000000000000000000602082015250565b6000618082602b8361693c565b915061808d82618026565b604082019050919050565b600060208201905081810360008301526180b181618075565b9050919050565b7f416363657373436f6e74726f6c3a2063616e206f6e6c792072656e6f756e636560008201527f20726f6c657320666f722073656c660000000000000000000000000000000000602082015250565b6000618114602f8361693c565b915061811f826180b8565b604082019050919050565b6000602082019050818103600083015261814381618107565b9050919050565b7f63616c6c6572206e6f74206f776e6572206e6f7220617070726f766564000000600082015250565b6000618180601d8361693c565b915061818b8261814a565b602082019050919050565b600060208201905081810360008301526181af81618173565b9050919050565b7f455243373231456e756d657261626c653a20676c6f62616c20696e646578206f60008201527f7574206f6620626f756e64730000000000000000000000000000000000000000602082015250565b6000618212602c8361693c565b915061821d826181b6565b604082019050919050565b6000602082019050818103600083015261824181618205565b9050919050565b7f4e487b7100000000000000000000000000000000000000000000000000000000600052603260045260246000fd5b7f3e204d41585f4250530000000000000000000000000000000000000000000000600082015250565b60006182ad60098361693c565b91506182b882618277565b602082019050919050565b600060208201905081810360008301526182dc816182a0565b9050919050565b7f4552433732313a20696e76616c696420746f6b656e2049440000000000000000600082015250565b600061831960188361693c565b9150618324826182e3565b602082019050919050565b600060208201905081810360008301526183488161830c565b9050919050565b7f4552433732313a2061646472657373207a65726f206973206e6f74206120766160008201527f6c6964206f776e65720000000000000000000000000000000000000000000000602082015250565b60006183ab60298361693c565b91506183b68261834f565b604082019050919050565b600060208201905081810360008301526183da8161839e565b9050919050565b7f5265656e7472616e637947756172643a207265656e7472616e742063616c6c00600082015250565b6000618417601f8361693c565b9150618422826183e1565b602082019050919050565b600060208201905081810360008301526184468161840a565b9050919050565b7f424f540000000000000000000000000000000000000000000000000000000000600082015250565b600061848360038361693c565b915061848e8261844d565b602082019050919050565b600060208201905081810360008301526184b281618476565b9050919050565b600080fd5b600080fd5b600080fd5b600080833560016020038436030381126184e5576184e46184b9565b5b80840192508235915067ffffffffffffffff821115618507576185066184be565b5b602083019250600182023603831315618523576185226184c3565b5b509250929050565b6000618536826168fd565b91507fffffffffffffffffffffffffffffffffffffffffffffffffffffffffffffffff82141561856957618568617f3d565b5b600182019050919050565b60008160601b9050919050565b600061858c82618574565b9050919050565b600061859e82618581565b9050919050565b6185b66185b182616a0c565b618593565b82525050565b6000819050919050565b6185d76185d2826168fd565b6185bc565b82525050565b60006185e982856185a5565b6014820191506185f982846185c6565b6020820191508190509392505050565b7f6e6f7420696e2077686974656c6973742e000000000000000000000000000000600082015250565b600061863f60118361693c565b915061864a82618609565b602082019050919050565b6000602082019050818103600083015261866e81618632565b9050919050565b7f70726f6f6620636c61696d65642e000000000000000000000000000000000000600082015250565b60006186ab600e8361693c565b91506186b682618675565b602082019050919050565b600060208201905081810360008301526186da8161869e565b9050919050565b7f696e76616c6964207175616e746974792070726f6f662e000000000000000000600082015250565b600061871760178361693c565b9150618722826186e1565b602082019050919050565b600060208201905081810360008301526187468161870a565b9050919050565b7f696e76616c69642063757272656e6379206f722070726963652e000000000000600082015250565b6000618783601a8361693c565b915061878e8261874d565b602082019050919050565b600060208201905081810360008301526187b281618776565b9050919050565b7f696e76616c6964207175616e746974792e000000000000000000000000000000600082015250565b60006187ef60118361693c565b91506187fa826187b9565b602082019050919050565b6000602082019050818103600083015261881e816187e2565b9050919050565b6000618830826168fd565b915061883b836168fd565b9250827fffffffffffffffffffffffffffffffffffffffffffffffffffffffffffffffff038211156188705761886f617f3d565b5b828201905092915050565b7f657863656564206d617820636c61696d61626c6520737570706c792e00000000600082015250565b60006188b1601c8361693c565b91506188bc8261887b565b602082019050919050565b600060208201905081810360008301526188e0816188a4565b9050919050565b7f6e6f7420656e6f756768206d696e74656420746f6b656e732e00000000000000600082015250565b600061891d60198361693c565b9150618928826188e7565b602082019050919050565b6000602082019050818103600083015261894c81618910565b9050919050565b7f657863656564206d617820746f74616c20737570706c792e0000000000000000600082015250565b600061898960188361693c565b915061899482618953565b602082019050919050565b600060208201905081810360008301526189b88161897c565b9050919050565b7f65786365656420636c61696d206c696d69740000000000000000000000000000600082015250565b60006189f560128361693c565b9150618a00826189bf565b602082019050919050565b60006020820190508181036000830152618a24816189e8565b9050919050565b7f63616e6e6f7420636c61696d2e00000000000000000000000000000000000000600082015250565b6000618a61600d8361693c565b9150618a6c82618a2b565b602082019050919050565b60006020820190508181036000830152618a9081618a54565b9050919050565b6000618aa2826168fd565b9150618aad836168fd565b925082821015618ac057618abf617f3d565b5b828203905092915050565b6000618ad6826168fd565b91506000821415618aea57618ae9617f3d565b5b600182039050919050565b7f21434f4e444954494f4e2e000000000000000000000000000000000000000000600082015250565b6000618b2b600b8361693c565b9150618b3682618af5565b602082019050919050565b60006020820190508181036000830152618b5a81618b1e565b9050919050565b600081905092915050565b60008190508160005260206000209050919050565b60008154618b8e81617c7d565b618b988186618b61565b94506001821660008114618bb35760018114618bc457618bf7565b60ff19831686528186019350618bf7565b618bcd85618b6c565b60005b83811015618bef57815481890152600182019150602081019050618bd0565b838801955050505b50505092915050565b7f3000000000000000000000000000000000000000000000000000000000000000600082015250565b6000618c36600183618b61565b9150618c4182618c00565b600182019050919050565b6000618c588284618b81565b9150618c6382618c29565b915081905092915050565b6000618c7982616931565b618c838185618b61565b9350618c9381856020860161694d565b80840191505092915050565b6000618cab8285618b81565b9150618cb78284618c6e565b91508190509392505050565b7f696e76616c696420696e6465782e000000000000000000000000000000000000600082015250565b6000618cf9600e8361693c565b9150618d0482618cc3565b602082019050919050565b60006020820190508181036000830152618d2881618cec565b9050919050565b7f6e6f7468696e6720746f2072657665616c2e0000000000000000000000000000600082015250565b6000618d6560128361693c565b9150618d7082618d2f565b602082019050919050565b60006020820190508181036000830152618d9481618d58565b9050919050565b6000604082019050618db06000830185616907565b8181036020830152618dc28184616991565b90509392505050565b6000618dd7838561693c565b9350618de4838584617593565b618ded83616980565b840190509392505050565b6000618e048385616f13565b9350618e11838584617593565b618e1a83616980565b840190509392505050565b6000608082019050618e3a6000830189616907565b618e476020830188616907565b8181036040830152618e5a818688618dcb565b90508181036060830152618e6f818486618df8565b9050979650505050505050565b7f496e697469616c697a61626c653a20636f6e747261637420697320616c72656160008201527f647920696e697469616c697a6564000000000000000000000000000000000000602082015250565b6000618ed8602e8361693c565b9150618ee382618e7c565b604082019050919050565b60006020820190508181036000830152618f0781618ecb565b9050919050565b6000819050919050565b6000819050919050565b6000618f3d618f38618f3384618f0e565b618f18565b61711e565b9050919050565b618f4d81618f22565b82525050565b6000602082019050618f686000830184618f44565b92915050565b7f5354000000000000000000000000000000000000000000000000000000000000600082015250565b6000618fa460028361693c565b9150618faf82618f6e565b602082019050919050565b60006020820190508181036000830152618fd381618f97565b9050919050565b7f6d617820737570706c7920636c61696d656420616c7265616479000000000000600082015250565b6000619010601a8361693c565b915061901b82618fda565b602082019050919050565b6000602082019050818103600083015261903f81619003565b9050919050565b6000813561905381616a48565b80915050919050565b60008160001b9050919050565b60007fffffffffffffffffffffffffffffffffffffffffffffffffffffffffffffffff6190958461905c565b9350801983169250808416831791505092915050565b60006190c66190c16190bc846168fd565b618f18565b6168fd565b9050919050565b6000819050919050565b6190e0826190ab565b6190f36190ec826190cd565b8354619069565b8255505050565b6000813561910781616b97565b80915050919050565b600061911b82616b8d565b9050919050565b60008160001c9050919050565b600061913a82619122565b9050919050565b61914a82619110565b61915d6191568261912f565b8354619069565b8255505050565b6000813561917181616aa1565b80915050919050565b600073ffffffffffffffffffffffffffffffffffffffff61919a8461905c565b9350801983169250808416831791505092915050565b60006191cb6191c66191c1846169ec565b618f18565b6169ec565b9050919050565b60006191dd826191b0565b9050919050565b60006191ef826191d2565b9050919050565b6000819050919050565b619209826191e4565b61921c619215826191f6565b835461917a565b8255505050565b60008101600083018061923581619046565b905061924181846190d7565b50505060018101602083018061925681619046565b905061926281846190d7565b50505060028101604083018061927781619046565b905061928381846190d7565b50505060038101606083018061929881619046565b90506192a481846190d7565b5050506004810160808301806192b981619046565b90506192c581846190d7565b5050506005810160a08301806192da816190fa565b90506192e68184619141565b5050506006810160c08301806192fb81619046565b905061930781846190d7565b5050506007810160e083018061931c81619164565b90506193288184619200565b5050505050565b6193398282619223565b5050565b600082825260208201905092915050565b6000819050919050565b60006193676020840184616a5f565b905092915050565b600061937e6020840184616bae565b905092915050565b60006193956020840184616ab8565b905092915050565b61010082016193af6000830183619358565b6193bc6000850182616d09565b506193ca6020830183619358565b6193d76020850182616d09565b506193e56040830183619358565b6193f26040850182616d09565b506194006060830183619358565b61940d6060850182616d09565b5061941b6080830183619358565b6194286080850182616d09565b5061943660a083018361936f565b61944360a0850182616d18565b5061945160c0830183619358565b61945e60c0850182616d09565b5061946c60e0830183619386565b61947960e0850182616d27565b50505050565b600061948b838361939d565b6101008301905092915050565b600082905092915050565b600061010082019050919050565b60006194bd838561933d565b93506194c88261934e565b8060005b85811015619501576194de8284619498565b6194e8888261947f565b97506194f3836194a3565b9250506001810190506194cc565b5085925050509392505050565b600060208201905081810360008301526195298184866194b1565b90509392505050565b600081905092915050565b60006195498385619532565b9350619556838584617593565b82840190509392505050565b600061956f82858761953d565b915061957b82846185c6565b602082019150819050949350505050565b7f4552433732313a207472616e736665722066726f6d20696e636f72726563742060008201527f6f776e6572000000000000000000000000000000000000000000000000000000602082015250565b60006195e860258361693c565b91506195f38261958c565b604082019050919050565b60006020820190508181036000830152619617816195db565b9050919050565b7f4552433732313a207472616e7366657220746f20746865207a65726f2061646460008201527f7265737300000000000000000000000000000000000000000000000000000000602082015250565b600061967a60248361693c565b91506196858261961e565b604082019050919050565b600060208201905081810360008301526196a98161966d565b9050919050565b7f6d7573742073656e6420746f74616c2070726963652e00000000000000000000600082015250565b60006196e660168361693c565b91506196f1826196b0565b602082019050919050565b60006020820190508181036000830152619715816196d9565b9050919050565b7f4552433732313a20617070726f766520746f2063616c6c657200000000000000600082015250565b600061975260198361693c565b915061975d8261971c565b602082019050919050565b6000602082019050818103600083015261978181619745565b9050919050565b7f416464726573733a2064656c65676174652063616c6c20746f206e6f6e2d636f60008201527f6e74726163740000000000000000000000000000000000000000000000000000602082015250565b60006197e460268361693c565b91506197ef82619788565b604082019050919050565b60006020820190508181036000830152619813816197d7565b9050919050565b600061982582616f08565b61982f8185619532565b935061983f81856020860161694d565b80840191505092915050565b6000619857828461981a565b915081905092915050565b6000819050919050565b61987d61987882616b8d565b619862565b82525050565b600061988f828561986c565b60208201915061989f828461986c565b6020820191508190509392505050565b7f4552433732313a207472616e7366657220746f206e6f6e20455243373231526560008201527f63656976657220696d706c656d656e7465720000000000000000000000000000602082015250565b600061990b60328361693c565b9150619916826198af565b604082019050919050565b6000602082019050818103600083015261993a816198fe565b9050919050565b600061994c826168fd565b9150619957836168fd565b92508261996757619966617fc6565b5b828206905092915050565b7f496e697469616c697a61626c653a20636f6e7472616374206973206e6f74206960008201527f6e697469616c697a696e67000000000000000000000000000000000000000000602082015250565b60006199ce602b8361693c565b91506199d982619972565b604082019050919050565b600060208201905081810360008301526199fd816199c1565b9050919050565b7f416363657373436f6e74726f6c3a206163636f756e7420000000000000000000600082015250565b6000619a3a601783618b61565b9150619a4582619a04565b601782019050919050565b7f206973206d697373696e6720726f6c6520000000000000000000000000000000600082015250565b6000619a86601183618b61565b9150619a9182619a50565b601182019050919050565b6000619aa782619a2d565b9150619ab38285618c6e565b9150619abe82619a79565b9150619aca8284618c6e565b91508190509392505050565b7f215452414e534645525f524f4c45000000000000000000000000000000000000600082015250565b6000619b0c600e8361693c565b9150619b1782619ad6565b602082019050919050565b60006020820190508181036000830152619b3b81619aff565b9050919050565b7f4552433732313a206d696e7420746f20746865207a65726f2061646472657373600082015250565b6000619b7860208361693c565b9150619b8382619b42565b602082019050919050565b60006020820190508181036000830152619ba781619b6b565b9050919050565b7f4552433732313a20746f6b656e20616c7265616479206d696e74656400000000600082015250565b6000619be4601c8361693c565b9150619bef82619bae565b602082019050919050565b60006020820190508181036000830152619c1381619bd7565b9050919050565b6000608082019050619c2f6000830187616a1e565b619c3c6020830186616a1e565b619c496040830185616907565b8181036060830152619c5b8184616f24565b905095945050505050565b600081519050619c758161686e565b92915050565b600060208284031215619c9157619c90616838565b5b6000619c9f84828501619c66565b91505092915050565b7f537472696e67733a20686578206c656e67746820696e73756666696369656e74600082015250565b6000619cde60208361693c565b9150619ce982619ca8565b602082019050919050565b60006020820190508181036000830152619d0d81619cd1565b9050919050565b7f4e487b7100000000000000000000000000000000000000000000000000000000600052603160045260246000fd5b50565b6000619d53600083619532565b9150619d5e82619d43565b600082019050919050565b6000619d7482619d46565b9150819050919050565b7f6e617469766520746f6b656e207472616e73666572206661696c656400000000600082015250565b6000619db4601c8361693c565b9150619dbf82619d7e565b602082019050919050565b60006020820190508181036000830152619de381619da7565b9050919050565b6000606082019050619dff6000830186616a1e565b619e0c6020830185616a1e565b619e196040830184616907565b949350505050565b600081519050619e3081617155565b92915050565b600060208284031215619e4c57619e4b616838565b5b6000619e5a84828501619e21565b91505092915050565b7f5361666545524332303a204552433230206f7065726174696f6e20646964206e60008201527f6f74207375636365656400000000000000000000000000000000000000000000602082015250565b6000619ebf602a8361693c565b9150619eca82619e63565b604082019050919050565b60006020820190508181036000830152619eee81619eb2565b9050919050565b7f416464726573733a20696e73756666696369656e742062616c616e636520666f60008201527f722063616c6c0000000000000000000000000000000000000000000000000000602082015250565b6000619f5160268361693c565b9150619f5c82619ef5565b604082019050919050565b60006020820190508181036000830152619f8081619f44565b9050919050565b7f416464726573733a2063616c6c20746f206e6f6e2d636f6e7472616374000000600082015250565b6000619fbd601d8361693c565b9150619fc882619f87565b602082019050919050565b60006020820190508181036000830152619fec81619fb0565b905091905056fe416464726573733a206c6f772d6c6576656c2064656c65676174652063616c6c206661696c6564a26469706673582212209189b05a847a383167b1cb98e9ed0498e443b788f7584e1e533dcc263c5090cf64736f6c634300080b0033",
  "linkReferences": {},
  "deployedLinkReferences": {}
}