{
  "_format": "hh-sol-artifact-1",
  "contractName": "GenZero",
  "sourceName": "contracts/GenZero.sol",
  "abi": [
    {
      "inputs": [
        {
          "internalType": "string",
          "name": "baseURI",
          "type": "string"
        }
      ],
      "stateMutability": "nonpayable",
      "type": "constructor"
    },
    {
      "inputs": [],
      "name": "ApprovalCallerNotOwnerNorApproved",
      "type": "error"
    },
    {
      "inputs": [],
      "name": "ApprovalQueryForNonexistentToken",
      "type": "error"
    },
    {
      "inputs": [],
      "name": "ApprovalToCurrentOwner",
      "type": "error"
    },
    {
      "inputs": [],
      "name": "ApproveToCaller",
      "type": "error"
    },
    {
      "inputs": [],
      "name": "BalanceQueryForZeroAddress",
      "type": "error"
    },
    {
      "inputs": [],
      "name": "MintToZeroAddress",
      "type": "error"
    },
    {
      "inputs": [],
      "name": "MintZeroQuantity",
      "type": "error"
    },
    {
      "inputs": [],
      "name": "OwnerQueryForNonexistentToken",
      "type": "error"
    },
    {
      "inputs": [],
      "name": "TransferCallerNotOwnerNorApproved",
      "type": "error"
    },
    {
      "inputs": [],
      "name": "TransferFromIncorrectOwner",
      "type": "error"
    },
    {
      "inputs": [],
      "name": "TransferToNonERC721ReceiverImplementer",
      "type": "error"
    },
    {
      "inputs": [],
      "name": "TransferToZeroAddress",
      "type": "error"
    },
    {
      "inputs": [],
      "name": "URIQueryForNonexistentToken",
      "type": "error"
    },
    {
      "anonymous": false,
      "inputs": [
        {
          "indexed": true,
          "internalType": "address",
          "name": "owner",
          "type": "address"
        },
        {
          "indexed": true,
          "internalType": "address",
          "name": "approved",
          "type": "address"
        },
        {
          "indexed": true,
          "internalType": "uint256",
          "name": "tokenId",
          "type": "uint256"
        }
      ],
      "name": "Approval",
      "type": "event"
    },
    {
      "anonymous": false,
      "inputs": [
        {
          "indexed": true,
          "internalType": "address",
          "name": "owner",
          "type": "address"
        },
        {
          "indexed": true,
          "internalType": "address",
          "name": "operator",
          "type": "address"
        },
        {
          "indexed": false,
          "internalType": "bool",
          "name": "approved",
          "type": "bool"
        }
      ],
      "name": "ApprovalForAll",
      "type": "event"
    },
    {
      "anonymous": false,
      "inputs": [
        {
          "indexed": true,
          "internalType": "address",
          "name": "account",
          "type": "address"
        },
        {
          "indexed": false,
          "internalType": "uint256",
          "name": "amount",
          "type": "uint256"
        }
      ],
      "name": "Claimed",
      "type": "event"
    },
    {
      "anonymous": false,
      "inputs": [
        {
          "indexed": false,
          "internalType": "uint256",
          "name": "tokenId",
          "type": "uint256"
        },
        {
          "indexed": false,
          "internalType": "string",
          "name": "newBaseURI",
          "type": "string"
        }
      ],
      "name": "GenUpdated",
      "type": "event"
    },
    {
      "anonymous": false,
      "inputs": [
        {
          "indexed": false,
          "internalType": "bytes32",
          "name": "merkleRoot",
          "type": "bytes32"
        }
      ],
      "name": "MerkleRootChanged",
      "type": "event"
    },
    {
      "anonymous": false,
      "inputs": [
        {
          "indexed": true,
          "internalType": "address",
          "name": "previousOwner",
          "type": "address"
        },
        {
          "indexed": true,
          "internalType": "address",
          "name": "newOwner",
          "type": "address"
        }
      ],
      "name": "OwnershipTransferred",
      "type": "event"
    },
    {
      "anonymous": false,
      "inputs": [
        {
          "indexed": true,
          "internalType": "address",
          "name": "from",
          "type": "address"
        },
        {
          "indexed": true,
          "internalType": "address",
          "name": "to",
          "type": "address"
        },
        {
          "indexed": true,
          "internalType": "uint256",
          "name": "tokenId",
          "type": "uint256"
        }
      ],
      "name": "Transfer",
      "type": "event"
    },
    {
      "inputs": [
        {
          "internalType": "address",
          "name": "to",
          "type": "address"
        },
        {
          "internalType": "uint256",
          "name": "tokenId",
          "type": "uint256"
        }
      ],
      "name": "approve",
      "outputs": [],
      "stateMutability": "nonpayable",
      "type": "function"
    },
    {
      "inputs": [
        {
          "internalType": "uint256",
          "name": "numberOfGens",
          "type": "uint256"
        },
        {
          "internalType": "bytes32[]",
          "name": "merkleProof",
          "type": "bytes32[]"
        }
      ],
      "name": "arcListMint",
      "outputs": [],
      "stateMutability": "nonpayable",
      "type": "function"
    },
    {
      "inputs": [
        {
          "internalType": "address",
          "name": "owner",
          "type": "address"
        }
      ],
      "name": "balanceOf",
      "outputs": [
        {
          "internalType": "uint256",
          "name": "",
          "type": "uint256"
        }
      ],
      "stateMutability": "view",
      "type": "function"
    },
    {
      "inputs": [
        {
          "internalType": "uint256[]",
          "name": "tokenIds",
          "type": "uint256[]"
        }
      ],
      "name": "bioUpgrade",
      "outputs": [],
      "stateMutability": "payable",
      "type": "function"
    },
    {
      "inputs": [],
      "name": "bioUpgradingIsActive",
      "outputs": [
        {
          "internalType": "bool",
          "name": "",
          "type": "bool"
        }
      ],
      "stateMutability": "view",
      "type": "function"
    },
    {
      "inputs": [],
      "name": "currentSeasonalCollectionURI",
      "outputs": [
        {
          "internalType": "string",
          "name": "",
          "type": "string"
        }
      ],
      "stateMutability": "view",
      "type": "function"
    },
    {
      "inputs": [],
      "name": "flipBioUpgradingState",
      "outputs": [],
      "stateMutability": "nonpayable",
      "type": "function"
    },
    {
      "inputs": [],
      "name": "flipMintingState",
      "outputs": [],
      "stateMutability": "nonpayable",
      "type": "function"
    },
    {
      "inputs": [],
      "name": "flipPublicState",
      "outputs": [],
      "stateMutability": "nonpayable",
      "type": "function"
    },
    {
      "inputs": [
        {
          "internalType": "address",
          "name": "from",
          "type": "address"
        }
      ],
      "name": "getAllowListMinted",
      "outputs": [
        {
          "internalType": "uint256",
          "name": "",
          "type": "uint256"
        }
      ],
      "stateMutability": "view",
      "type": "function"
    },
    {
      "inputs": [
        {
          "internalType": "uint256",
          "name": "tokenId",
          "type": "uint256"
        }
      ],
      "name": "getApproved",
      "outputs": [
        {
          "internalType": "address",
          "name": "",
          "type": "address"
        }
      ],
      "stateMutability": "view",
      "type": "function"
    },
    {
      "inputs": [
        {
          "internalType": "address",
          "name": "owner",
          "type": "address"
        },
        {
          "internalType": "address",
          "name": "operator",
          "type": "address"
        }
      ],
      "name": "isApprovedForAll",
      "outputs": [
        {
          "internalType": "bool",
          "name": "",
          "type": "bool"
        }
      ],
      "stateMutability": "view",
      "type": "function"
    },
    {
      "inputs": [
        {
          "internalType": "uint256",
          "name": "tokenId",
          "type": "uint256"
        }
      ],
      "name": "isMinted",
      "outputs": [
        {
          "internalType": "bool",
          "name": "",
          "type": "bool"
        }
      ],
      "stateMutability": "view",
      "type": "function"
    },
    {
      "inputs": [],
      "name": "maxGenZero",
      "outputs": [
        {
          "internalType": "uint256",
          "name": "",
          "type": "uint256"
        }
      ],
      "stateMutability": "view",
      "type": "function"
    },
    {
      "inputs": [],
      "name": "maxPerMint",
      "outputs": [
        {
          "internalType": "uint256",
          "name": "",
          "type": "uint256"
        }
      ],
      "stateMutability": "view",
      "type": "function"
    },
    {
      "inputs": [],
      "name": "merkleRoot",
      "outputs": [
        {
          "internalType": "bytes32",
          "name": "",
          "type": "bytes32"
        }
      ],
      "stateMutability": "view",
      "type": "function"
    },
    {
      "inputs": [],
      "name": "mintPrice",
      "outputs": [
        {
          "internalType": "uint256",
          "name": "",
          "type": "uint256"
        }
      ],
      "stateMutability": "view",
      "type": "function"
    },
    {
      "inputs": [],
      "name": "mintingIsActive",
      "outputs": [
        {
          "internalType": "bool",
          "name": "",
          "type": "bool"
        }
      ],
      "stateMutability": "view",
      "type": "function"
    },
    {
      "inputs": [],
      "name": "name",
      "outputs": [
        {
          "internalType": "string",
          "name": "",
          "type": "string"
        }
      ],
      "stateMutability": "view",
      "type": "function"
    },
    {
      "inputs": [
        {
          "internalType": "address",
          "name": "claimer",
          "type": "address"
        },
        {
          "internalType": "bytes32[]",
          "name": "proof",
          "type": "bytes32[]"
        }
      ],
      "name": "onAllowList",
      "outputs": [
        {
          "internalType": "bool",
          "name": "",
          "type": "bool"
        }
      ],
      "stateMutability": "view",
      "type": "function"
    },
    {
      "inputs": [],
      "name": "owner",
      "outputs": [
        {
          "internalType": "address",
          "name": "",
          "type": "address"
        }
      ],
      "stateMutability": "view",
      "type": "function"
    },
    {
      "inputs": [
        {
          "internalType": "uint256",
          "name": "tokenId",
          "type": "uint256"
        }
      ],
      "name": "ownerOf",
      "outputs": [
        {
          "internalType": "address",
          "name": "",
          "type": "address"
        }
      ],
      "stateMutability": "view",
      "type": "function"
    },
    {
      "inputs": [],
      "name": "publicIsActive",
      "outputs": [
        {
          "internalType": "bool",
          "name": "",
          "type": "bool"
        }
      ],
      "stateMutability": "view",
      "type": "function"
    },
    {
      "inputs": [
        {
          "internalType": "uint256",
          "name": "numberOfGens",
          "type": "uint256"
        }
      ],
      "name": "publicMint",
      "outputs": [],
      "stateMutability": "payable",
      "type": "function"
    },
    {
      "inputs": [],
      "name": "renounceOwnership",
      "outputs": [],
      "stateMutability": "nonpayable",
      "type": "function"
    },
    {
      "inputs": [
        {
          "internalType": "address",
          "name": "from",
          "type": "address"
        },
        {
          "internalType": "address",
          "name": "to",
          "type": "address"
        },
        {
          "internalType": "uint256",
          "name": "tokenId",
          "type": "uint256"
        }
      ],
      "name": "safeTransferFrom",
      "outputs": [],
      "stateMutability": "nonpayable",
      "type": "function"
    },
    {
      "inputs": [
        {
          "internalType": "address",
          "name": "from",
          "type": "address"
        },
        {
          "internalType": "address",
          "name": "to",
          "type": "address"
        },
        {
          "internalType": "uint256",
          "name": "tokenId",
          "type": "uint256"
        },
        {
          "internalType": "bytes",
          "name": "_data",
          "type": "bytes"
        }
      ],
      "name": "safeTransferFrom",
      "outputs": [],
      "stateMutability": "nonpayable",
      "type": "function"
    },
    {
      "inputs": [
        {
          "internalType": "bytes32",
          "name": "merkleRoot",
          "type": "bytes32"
        }
      ],
      "name": "setAllowList",
      "outputs": [],
      "stateMutability": "nonpayable",
      "type": "function"
    },
    {
      "inputs": [
        {
          "internalType": "address",
          "name": "operator",
          "type": "address"
        },
        {
          "internalType": "bool",
          "name": "approved",
          "type": "bool"
        }
      ],
      "name": "setApprovalForAll",
      "outputs": [],
      "stateMutability": "nonpayable",
      "type": "function"
    },
    {
      "inputs": [
        {
          "internalType": "string",
          "name": "newuri",
          "type": "string"
        }
      ],
      "name": "setCurrentCollectionBaseURI",
      "outputs": [],
      "stateMutability": "nonpayable",
      "type": "function"
    },
    {
      "inputs": [
        {
          "internalType": "uint256",
          "name": "newPrice",
          "type": "uint256"
        }
      ],
      "name": "setMintCost",
      "outputs": [],
      "stateMutability": "nonpayable",
      "type": "function"
    },
    {
      "inputs": [
        {
          "internalType": "uint256",
          "name": "newMax",
          "type": "uint256"
        }
      ],
      "name": "setMintMax",
      "outputs": [],
      "stateMutability": "nonpayable",
      "type": "function"
    },
    {
      "inputs": [
        {
          "internalType": "bytes4",
          "name": "interfaceId",
          "type": "bytes4"
        }
      ],
      "name": "supportsInterface",
      "outputs": [
        {
          "internalType": "bool",
          "name": "",
          "type": "bool"
        }
      ],
      "stateMutability": "view",
      "type": "function"
    },
    {
      "inputs": [],
      "name": "symbol",
      "outputs": [
        {
          "internalType": "string",
          "name": "",
          "type": "string"
        }
      ],
      "stateMutability": "view",
      "type": "function"
    },
    {
      "inputs": [
        {
          "internalType": "uint256",
          "name": "tokenId",
          "type": "uint256"
        }
      ],
      "name": "tokenURI",
      "outputs": [
        {
          "internalType": "string",
          "name": "",
          "type": "string"
        }
      ],
      "stateMutability": "view",
      "type": "function"
    },
    {
      "inputs": [],
      "name": "totalSupply",
      "outputs": [
        {
          "internalType": "uint256",
          "name": "",
          "type": "uint256"
        }
      ],
      "stateMutability": "view",
      "type": "function"
    },
    {
      "inputs": [
        {
          "internalType": "address",
          "name": "from",
          "type": "address"
        },
        {
          "internalType": "address",
          "name": "to",
          "type": "address"
        },
        {
          "internalType": "uint256",
          "name": "tokenId",
          "type": "uint256"
        }
      ],
      "name": "transferFrom",
      "outputs": [],
      "stateMutability": "nonpayable",
      "type": "function"
    },
    {
      "inputs": [
        {
          "internalType": "address",
          "name": "newOwner",
          "type": "address"
        }
      ],
      "name": "transferOwnership",
      "outputs": [],
      "stateMutability": "nonpayable",
      "type": "function"
    },
    {
      "inputs": [],
      "name": "withdraw",
      "outputs": [],
      "stateMutability": "nonpayable",
      "type": "function"
    }
  ],
  "bytecode": "0x60806040526064600c55600d805462ffffff191690553480156200002257600080fd5b5060405162002a6238038062002a628339810160408190526200004591620001de565b604080518082018252601081526f08ae8cae4dcd2e8f24086dedae0d8caf60831b60208083019182528351808501909452600784526647656e5a65726f60c81b9084015281519192916200009c9160029162000138565b508051620000b290600390602084019062000138565b50506000805550620000c433620000e6565b6001600b558051620000de90600e90602084019062000138565b505062000307565b600a80546001600160a01b038381166001600160a01b0319831681179093556040519116919082907f8be0079c531659141344cd1fd0a4f28419497f9722a3daafe3b4186f6b6457e090600090a35050565b8280546200014690620002b4565b90600052602060002090601f0160209004810192826200016a5760008555620001b5565b82601f106200018557805160ff1916838001178555620001b5565b82800160010185558215620001b5579182015b82811115620001b557825182559160200191906001019062000198565b50620001c3929150620001c7565b5090565b5b80821115620001c35760008155600101620001c8565b60006020808385031215620001f1578182fd5b82516001600160401b038082111562000208578384fd5b818501915085601f8301126200021c578384fd5b815181811115620002315762000231620002f1565b604051601f8201601f19908116603f011681019083821181831017156200025c576200025c620002f1565b81604052828152888684870101111562000274578687fd5b8693505b8284101562000297578484018601518185018701529285019262000278565b82841115620002a857868684830101525b98975050505050505050565b600181811c90821680620002c957607f821691505b60208210811415620002eb57634e487b7160e01b600052602260045260246000fd5b50919050565b634e487b7160e01b600052604160045260246000fd5b61274b80620003176000396000f3fe6080604052600436106102305760003560e01c80635ea1ef521161012e57806395d89b41116100ab578063b88d4fde1161006f578063b88d4fde14610632578063c87b56dd14610652578063e985e9c514610672578063f2fde38b146106bb578063f655ff22146106db57600080fd5b806395d89b411461059e578063a216a49d146105b3578063a22cb465146105d2578063afc3cb49146105f2578063b32c56801461061257600080fd5b80637efd1a68116100f25780637efd1a681461051657806384584d071461052b5780638545f4ea1461054b578063882b18081461056b5780638da5cb5b1461058057600080fd5b80635ea1ef52146104755780636352211e146104ab5780636817c76c146104cb57806370a08231146104e1578063715018a61461050157600080fd5b80632bad62e5116101bc5780633ccfd60b116101805780633ccfd60b146103f057806342842e0e146104055780634728b9f414610425578063507e094f1461043f5780635a504e741461045557600080fd5b80632bad62e51461037c5780632db11544146103925780632eb4a7ab146103a557806333c41a90146103bb57806333cc4c29146103db57600080fd5b8063095ea7b311610203578063095ea7b3146102e457806318160ddd14610306578063184c4a3f146103295780631e2a23c01461034957806323b872dd1461035c57600080fd5b806301ffc9a714610235578063033a02d61461026a57806306fdde031461028a578063081812fc146102ac575b600080fd5b34801561024157600080fd5b5061025561025036600461235d565b6106f0565b60405190151581526020015b60405180910390f35b34801561027657600080fd5b50600d546102559062010000900460ff1681565b34801561029657600080fd5b5061029f610742565b60405161026191906124b0565b3480156102b857600080fd5b506102cc6102c7366004612345565b6107d4565b6040516001600160a01b039091168152602001610261565b3480156102f057600080fd5b506103046102ff36600461228a565b610818565b005b34801561031257600080fd5b50600154600054035b604051908152602001610261565b34801561033557600080fd5b506103046103443660046123da565b61089f565b6103046103573660046122b3565b610aa5565b34801561036857600080fd5b50610304610377366004612152565b610d7b565b34801561038857600080fd5b5061031b61177081565b6103046103a0366004612345565b610d86565b3480156103b157600080fd5b5061031b60085481565b3480156103c757600080fd5b506102556103d6366004612345565b610f8b565b3480156103e757600080fd5b5061029f610f96565b3480156103fc57600080fd5b50610304611024565b34801561041157600080fd5b50610304610420366004612152565b611079565b34801561043157600080fd5b50600d546102559060ff1681565b34801561044b57600080fd5b5061031b600c5481565b34801561046157600080fd5b50610304610470366004612395565b611094565b34801561048157600080fd5b5061031b610490366004612106565b6001600160a01b031660009081526009602052604090205490565b3480156104b757600080fd5b506102cc6104c6366004612345565b6110af565b3480156104d757600080fd5b5061031b600f5481565b3480156104ed57600080fd5b5061031b6104fc366004612106565b6110c1565b34801561050d57600080fd5b5061030461110f565b34801561052257600080fd5b50610304611123565b34801561053757600080fd5b50610304610546366004612345565b611148565b34801561055757600080fd5b50610304610566366004612345565b611159565b34801561057757600080fd5b50610304611166565b34801561058c57600080fd5b50600a546001600160a01b03166102cc565b3480156105aa57600080fd5b5061029f61118d565b3480156105bf57600080fd5b50600d5461025590610100900460ff1681565b3480156105de57600080fd5b506103046105ed366004612250565b61119c565b3480156105fe57600080fd5b5061030461060d366004612345565b611232565b34801561061e57600080fd5b5061025561062d366004612205565b61123f565b34801561063e57600080fd5b5061030461064d36600461218d565b611290565b34801561065e57600080fd5b5061029f61066d366004612345565b6112da565b34801561067e57600080fd5b5061025561068d366004612120565b6001600160a01b03918216600090815260076020908152604080832093909416825291909152205460ff1690565b3480156106c757600080fd5b506103046106d6366004612106565b6113f0565b3480156106e757600080fd5b50610304611466565b60006001600160e01b031982166380ac58cd60e01b148061072157506001600160e01b03198216635b5e139f60e01b145b8061073c57506301ffc9a760e01b6001600160e01b03198316145b92915050565b60606002805461075190612653565b80601f016020809104026020016040519081016040528092919081815260200182805461077d90612653565b80156107ca5780601f1061079f576101008083540402835291602001916107ca565b820191906000526020600020905b8154815290600101906020018083116107ad57829003601f168201915b5050505050905090565b60006107df82611482565b6107fc576040516333d1c03960e21b815260040160405180910390fd5b506000908152600660205260409020546001600160a01b031690565b6000610823826110af565b9050806001600160a01b0316836001600160a01b031614156108585760405163250fdee360e21b815260040160405180910390fd5b336001600160a01b0382161461088f57610872813361068d565b61088f576040516367d9dca160e11b815260040160405180910390fd5b61089a8383836114ad565b505050565b33816108ab828261123f565b6108f05760405162461bcd60e51b8152602060048201526011602482015270139bdd081bdb88185b1b1bddc81b1a5cdd607a1b60448201526064015b60405180910390fd5b83611770816109026001546000540390565b61090c91906125c5565b111561094d5760405162461bcd60e51b815260206004820152601060248201526f4d617820546f6b656e20537570706c7960801b60448201526064016108e7565b6002600b5414156109a05760405162461bcd60e51b815260206004820152601f60248201527f5265656e7472616e637947756172643a207265656e7472616e742063616c6c0060448201526064016108e7565b6002600b55600d5460ff166109ea5760405162461bcd60e51b815260206004820152601060248201526f636c61696d206e6f742061637469766560801b60448201526064016108e7565b60008511610a2d5760405162461bcd60e51b815260206004820152601060248201526f63616e6e6f74206d696e74207a65726f60801b60448201526064016108e7565b60005b85811015610a8457600e6010600083600054610a4c91906125c5565b8152602001908152602001600020908054610a6690612653565b610a71929190611f10565b5080610a7c8161268e565b915050610a30565b50610a8f3386611509565b610a993386611578565b50506001600b55505050565b600d54610100900460ff16610afc5760405162461bcd60e51b815260206004820152601760248201527f42696f557067726164696e67206e6f742061637469766500000000000000000060448201526064016108e7565b34600f548251610b0c91906125f1565b14610b535760405162461bcd60e51b8152602060048201526017602482015276115d1a195c881d985b1d59481b9bdd0818dbdc9c9958dd604a1b60448201526064016108e7565b60005b8151811015610c2b57336001600160a01b0316610b99838381518110610b8c57634e487b7160e01b600052603260045260246000fd5b60200260200101516110af565b6001600160a01b0316141580610bdc5750610bda828281518110610bcd57634e487b7160e01b600052603260045260246000fd5b6020026020010151611482565b155b15610c195760405162461bcd60e51b815260206004820152600d60248201526c11d95b881b9bdd081bdddb9959609a1b60448201526064016108e7565b80610c238161268e565b915050610b56565b5060005b8151811015610d7757611770828281518110610c5b57634e487b7160e01b600052603260045260246000fd5b602002602001015110610cb05760405162461bcd60e51b815260206004820152601760248201527f546f6b656e20657863656564206d617820737570706c7900000000000000000060448201526064016108e7565b600e60106000848481518110610cd657634e487b7160e01b600052603260045260246000fd5b60200260200101518152602001908152602001600020908054610cf890612653565b610d03929190611f10565b507f266bc8906175770d5acdb15c764e656bc33c059f4339d709a51e95be76c6bc76828281518110610d4557634e487b7160e01b600052603260045260246000fd5b6020026020010151600e604051610d5d9291906124c3565b60405180910390a180610d6f8161268e565b915050610c2f565b5050565b61089a838383611592565b8061177081610d986001546000540390565b610da291906125c5565b1115610de35760405162461bcd60e51b815260206004820152601060248201526f4d617820546f6b656e20537570706c7960801b60448201526064016108e7565b6002600b541415610e365760405162461bcd60e51b815260206004820152601f60248201527f5265656e7472616e637947756172643a207265656e7472616e742063616c6c0060448201526064016108e7565b6002600b55600d5462010000900460ff16610e885760405162461bcd60e51b81526020600482015260126024820152717075626c696320206e6f742061637469766560701b60448201526064016108e7565b600c54821115610eca5760405162461bcd60e51b815260206004820152600d60248201526c1bdd995c881b585e081b5a5b9d609a1b60448201526064016108e7565b34600f5483610ed991906125f1565b14610f205760405162461bcd60e51b8152602060048201526017602482015276115d1a195c881d985b1d59481b9bdd0818dbdc9c9958dd604a1b60448201526064016108e7565b60005b82811015610f7757600e6010600083600054610f3f91906125c5565b8152602001908152602001600020908054610f5990612653565b610f64929190611f10565b5080610f6f8161268e565b915050610f23565b50610f823383611578565b50506001600b55565b600061073c82611482565b600e8054610fa390612653565b80601f0160208091040260200160405190810160405280929190818152602001828054610fcf90612653565b801561101c5780601f10610ff15761010080835404028352916020019161101c565b820191906000526020600020905b815481529060010190602001808311610fff57829003601f168201915b505050505081565b61102c61177f565b6000471161106b5760405162461bcd60e51b815260206004820152600c60248201526b5a65726f2062616c616e636560a01b60448201526064016108e7565b4761107633826117d9565b50565b61089a83838360405180602001604052806000815250611290565b61109c61177f565b8051610d7790600e906020840190611f9b565b60006110ba826118f2565b5192915050565b60006001600160a01b0382166110ea576040516323d3ad8160e21b815260040160405180910390fd5b506001600160a01b03166000908152600560205260409020546001600160401b031690565b61111761177f565b6111216000611a0c565b565b61112b61177f565b600d805461ff001981166101009182900460ff1615909102179055565b61115061177f565b61107681611a5e565b61116161177f565b600f55565b61116e61177f565b600d805462ff0000198116620100009182900460ff1615909102179055565b60606003805461075190612653565b6001600160a01b0382163314156111c65760405163b06307db60e01b815260040160405180910390fd5b3360008181526007602090815260408083206001600160a01b03871680855290835292819020805460ff191686151590811790915590519081529192917f17307eab39ab6107e8899845ad3d59bd9653f200f220920489ca2b5937696c31910160405180910390a35050565b61123a61177f565b600c55565b6040516bffffffffffffffffffffffff19606084901b16602082015260009081906034016040516020818303038152906040528051906020012090506112888360085483611a99565b949350505050565b61129b848484611592565b6001600160a01b0383163b156112d4576112b784848484611aaf565b6112d4576040516368d2bf6b60e11b815260040160405180910390fd5b50505050565b60606112e582611482565b6113255760405162461bcd60e51b81526020600482015260116024820152703737b732bc34b9ba32b73a103a37b5b2b760791b60448201526064016108e7565b6000828152601060205260408120805461133e90612653565b80601f016020809104026020016040519081016040528092919081815260200182805461136a90612653565b80156113b75780601f1061138c576101008083540402835291602001916113b7565b820191906000526020600020905b81548152906001019060200180831161139a57829003601f168201915b50505050509050806113c884611ba6565b6040516020016113d9929190612434565b604051602081830303815290604052915050919050565b6113f861177f565b6001600160a01b03811661145d5760405162461bcd60e51b815260206004820152602660248201527f4f776e61626c653a206e6577206f776e657220697320746865207a65726f206160448201526564647265737360d01b60648201526084016108e7565b61107681611a0c565b61146e61177f565b600d805460ff19811660ff90911615179055565b600080548210801561073c575050600090815260046020526040902054600160e01b900460ff161590565b60008281526006602052604080822080546001600160a01b0319166001600160a01b0387811691821790925591518593918516917f8c5be1e5ebec7d5bd14f71427d1e84f3dd0314c0f7b2291e5b200ac8c7c3b92591a4505050565b6001600160a01b038216600090815260096020526040812080548392906115319084906125c5565b90915550506040518181526001600160a01b038316907fd8138f8a3f377c5259ca548e70e4c2de94f129f5a11036a15b69513cba2b426a9060200160405180910390a25050565b610d77828260405180602001604052806000815250611cbf565b600061159d826118f2565b9050836001600160a01b031681600001516001600160a01b0316146115d45760405162a1148160e81b815260040160405180910390fd5b6000336001600160a01b03861614806115f257506115f2853361068d565b8061160d575033611602846107d4565b6001600160a01b0316145b90508061162d57604051632ce44b5f60e11b815260040160405180910390fd5b6001600160a01b03841661165457604051633a954ecd60e21b815260040160405180910390fd5b611660600084876114ad565b6001600160a01b038581166000908152600560209081526040808320805467ffffffffffffffff198082166001600160401b0392831660001901831617909255898616808652838620805493841693831660019081018416949094179055898652600490945282852080546001600160e01b031916909417600160a01b4290921691909102178355870180845292208054919390911661173457600054821461173457805460208601516001600160401b0316600160a01b026001600160e01b03199091166001600160a01b038a16171781555b50505082846001600160a01b0316866001600160a01b03167fddf252ad1be2c89b69c2b068fc378daa952ba7f163c4a11628f55a4df523b3ef60405160405180910390a45050505050565b600a546001600160a01b031633146111215760405162461bcd60e51b815260206004820181905260248201527f4f776e61626c653a2063616c6c6572206973206e6f7420746865206f776e657260448201526064016108e7565b804710156118295760405162461bcd60e51b815260206004820152601d60248201527f416464726573733a20696e73756666696369656e742062616c616e636500000060448201526064016108e7565b6000826001600160a01b03168260405160006040518083038185875af1925050503d8060008114611876576040519150601f19603f3d011682016040523d82523d6000602084013e61187b565b606091505b505090508061089a5760405162461bcd60e51b815260206004820152603a60248201527f416464726573733a20756e61626c6520746f2073656e642076616c75652c207260448201527f6563697069656e74206d6179206861766520726576657274656400000000000060648201526084016108e7565b6040805160608101825260008082526020820181905291810191909152816000548110156119f357600081815260046020908152604091829020825160608101845290546001600160a01b0381168252600160a01b81046001600160401b031692820192909252600160e01b90910460ff161515918101829052906119f15780516001600160a01b031615611988579392505050565b5060001901600081815260046020908152604091829020825160608101845290546001600160a01b038116808352600160a01b82046001600160401b031693830193909352600160e01b900460ff16151592810192909252156119ec579392505050565b611988565b505b604051636f96cda160e11b815260040160405180910390fd5b600a80546001600160a01b038381166001600160a01b0319831681179093556040519116919082907f8be0079c531659141344cd1fd0a4f28419497f9722a3daafe3b4186f6b6457e090600090a35050565b60088190556040518181527f1b930366dfeaa7eb3b325021e4ae81e36527063452ee55b86c95f85b36f4c31c9060200160405180910390a150565b600082611aa68584611e83565b14949350505050565b604051630a85bd0160e11b81526000906001600160a01b0385169063150b7a0290611ae4903390899088908890600401612473565b602060405180830381600087803b158015611afe57600080fd5b505af1925050508015611b2e575060408051601f3d908101601f19168201909252611b2b91810190612379565b60015b611b89573d808015611b5c576040519150601f19603f3d011682016040523d82523d6000602084013e611b61565b606091505b508051611b81576040516368d2bf6b60e11b815260040160405180910390fd5b805181602001fd5b6001600160e01b031916630a85bd0160e11b149050949350505050565b606081611bca5750506040805180820190915260018152600360fc1b602082015290565b8160005b8115611bf45780611bde8161268e565b9150611bed9050600a836125dd565b9150611bce565b6000816001600160401b03811115611c1c57634e487b7160e01b600052604160045260246000fd5b6040519080825280601f01601f191660200182016040528015611c46576020820181803683370190505b5090505b841561128857611c5b600183612610565b9150611c68600a866126a9565b611c739060306125c5565b60f81b818381518110611c9657634e487b7160e01b600052603260045260246000fd5b60200101906001600160f81b031916908160001a905350611cb8600a866125dd565b9450611c4a565b6000546001600160a01b038416611ce857604051622e076360e81b815260040160405180910390fd5b82611d065760405163b562e8dd60e01b815260040160405180910390fd5b6001600160a01b038416600081815260056020908152604080832080546fffffffffffffffffffffffffffffffff1981166001600160401b038083168b0181169182176801000000000000000067ffffffffffffffff1990941690921783900481168b01811690920217909155858452600490925290912080546001600160e01b0319168317600160a01b42909316929092029190911790558190818501903b15611e2e575b60405182906001600160a01b038816906000907fddf252ad1be2c89b69c2b068fc378daa952ba7f163c4a11628f55a4df523b3ef908290a4611df76000878480600101955087611aaf565b611e14576040516368d2bf6b60e11b815260040160405180910390fd5b808210611dac578260005414611e2957600080fd5b611e73565b5b6040516001830192906001600160a01b038816906000907fddf252ad1be2c89b69c2b068fc378daa952ba7f163c4a11628f55a4df523b3ef908290a4808210611e2f575b5060009081556112d49085838684565b600081815b8451811015611ed657611ec282868381518110611eb557634e487b7160e01b600052603260045260246000fd5b6020026020010151611ede565b915080611ece8161268e565b915050611e88565b509392505050565b6000818310611efa576000828152602084905260409020611f09565b60008381526020839052604090205b9392505050565b828054611f1c90612653565b90600052602060002090601f016020900481019282611f3e5760008555611f8b565b82601f10611f4f5780548555611f8b565b82800160010185558215611f8b57600052602060002091601f016020900482015b82811115611f8b578254825591600101919060010190611f70565b50611f9792915061200f565b5090565b828054611fa790612653565b90600052602060002090601f016020900481019282611fc95760008555611f8b565b82601f10611fe257805160ff1916838001178555611f8b565b82800160010185558215611f8b579182015b82811115611f8b578251825591602001919060010190611ff4565b5b80821115611f975760008155600101612010565b60006001600160401b0383111561203d5761203d6126e9565b612050601f8401601f1916602001612572565b905082815283838301111561206457600080fd5b828260208301376000602084830101529392505050565b80356001600160a01b038116811461209257600080fd5b919050565b600082601f8301126120a7578081fd5b813560206120bc6120b7836125a2565b612572565b80838252828201915082860187848660051b89010111156120db578586fd5b855b858110156120f9578135845292840192908401906001016120dd565b5090979650505050505050565b600060208284031215612117578081fd5b611f098261207b565b60008060408385031215612132578081fd5b61213b8361207b565b91506121496020840161207b565b90509250929050565b600080600060608486031215612166578081fd5b61216f8461207b565b925061217d6020850161207b565b9150604084013590509250925092565b600080600080608085870312156121a2578081fd5b6121ab8561207b565b93506121b96020860161207b565b92506040850135915060608501356001600160401b038111156121da578182fd5b8501601f810187136121ea578182fd5b6121f987823560208401612024565b91505092959194509250565b60008060408385031215612217578182fd5b6122208361207b565b915060208301356001600160401b0381111561223a578182fd5b61224685828601612097565b9150509250929050565b60008060408385031215612262578182fd5b61226b8361207b565b91506020830135801515811461227f578182fd5b809150509250929050565b6000806040838503121561229c578182fd5b6122a58361207b565b946020939093013593505050565b600060208083850312156122c5578182fd5b82356001600160401b038111156122da578283fd5b8301601f810185136122ea578283fd5b80356122f86120b7826125a2565b80828252848201915084840188868560051b8701011115612317578687fd5b8694505b8385101561233957803583526001949094019391850191850161231b565b50979650505050505050565b600060208284031215612356578081fd5b5035919050565b60006020828403121561236e578081fd5b8135611f09816126ff565b60006020828403121561238a578081fd5b8151611f09816126ff565b6000602082840312156123a6578081fd5b81356001600160401b038111156123bb578182fd5b8201601f810184136123cb578182fd5b61128884823560208401612024565b600080604083850312156123ec578182fd5b8235915060208301356001600160401b0381111561223a578182fd5b60008151808452612420816020860160208601612627565b601f01601f19169290920160200192915050565b60008351612446818460208801612627565b83519083019061245a818360208801612627565b64173539b7b760d91b9101908152600501949350505050565b6001600160a01b03858116825284166020820152604081018390526080606082018190526000906124a690830184612408565b9695505050505050565b602081526000611f096020830184612408565b8281526000602060408184015281845483600182811c9150808316806124ea57607f831692505b85831081141561250857634e487b7160e01b87526022600452602487fd5b6040880183905260608801818015612527576001811461253857612562565b60ff19861682528782019650612562565b60008b815260209020895b8681101561255c57815484820152908501908901612543565b83019750505b50949a9950505050505050505050565b604051601f8201601f191681016001600160401b038111828210171561259a5761259a6126e9565b604052919050565b60006001600160401b038211156125bb576125bb6126e9565b5060051b60200190565b600082198211156125d8576125d86126bd565b500190565b6000826125ec576125ec6126d3565b500490565b600081600019048311821515161561260b5761260b6126bd565b500290565b600082821015612622576126226126bd565b500390565b60005b8381101561264257818101518382015260200161262a565b838111156112d45750506000910152565b600181811c9082168061266757607f821691505b6020821081141561268857634e487b7160e01b600052602260045260246000fd5b50919050565b60006000198214156126a2576126a26126bd565b5060010190565b6000826126b8576126b86126d3565b500690565b634e487b7160e01b600052601160045260246000fd5b634e487b7160e01b600052601260045260246000fd5b634e487b7160e01b600052604160045260246000fd5b6001600160e01b03198116811461107657600080fdfea2646970667358221220a115852f3ef01206d38853ecfa9ff4dfa57c8a839c464bb4a754b74928ca60ae64736f6c63430008040033",
  "linkReferences": {},
  "deployedLinkReferences": {}
}