{
  "_format": "hh-sol-artifact-1",
  "contractName": "Gen",
  "sourceName": "contracts/Gen.sol",
  "abi": [
    {
      "inputs": [
        {
          "internalType": "string",
          "name": "baseURI",
          "type": "string"
        }
      ],
      "stateMutability": "nonpayable",
      "type": "constructor"
    },
    {
      "anonymous": false,
      "inputs": [
        {
          "indexed": true,
          "internalType": "address",
          "name": "owner",
          "type": "address"
        },
        {
          "indexed": true,
          "internalType": "address",
          "name": "approved",
          "type": "address"
        },
        {
          "indexed": true,
          "internalType": "uint256",
          "name": "tokenId",
          "type": "uint256"
        }
      ],
      "name": "Approval",
      "type": "event"
    },
    {
      "anonymous": false,
      "inputs": [
        {
          "indexed": true,
          "internalType": "address",
          "name": "owner",
          "type": "address"
        },
        {
          "indexed": true,
          "internalType": "address",
          "name": "operator",
          "type": "address"
        },
        {
          "indexed": false,
          "internalType": "bool",
          "name": "approved",
          "type": "bool"
        }
      ],
      "name": "ApprovalForAll",
      "type": "event"
    },
    {
      "anonymous": false,
      "inputs": [
        {
          "indexed": false,
          "internalType": "uint256",
          "name": "tokenId",
          "type": "uint256"
        }
      ],
      "name": "GenMinted",
      "type": "event"
    },
    {
      "anonymous": false,
      "inputs": [
        {
          "indexed": false,
          "internalType": "uint256",
          "name": "tokenId",
          "type": "uint256"
        },
        {
          "indexed": false,
          "internalType": "string",
          "name": "newBaseURI",
          "type": "string"
        }
      ],
      "name": "GenUpdated",
      "type": "event"
    },
    {
      "anonymous": false,
      "inputs": [
        {
          "indexed": true,
          "internalType": "address",
          "name": "previousOwner",
          "type": "address"
        },
        {
          "indexed": true,
          "internalType": "address",
          "name": "newOwner",
          "type": "address"
        }
      ],
      "name": "OwnershipTransferred",
      "type": "event"
    },
    {
      "anonymous": false,
      "inputs": [
        {
          "indexed": true,
          "internalType": "address",
          "name": "from",
          "type": "address"
        },
        {
          "indexed": true,
          "internalType": "address",
          "name": "to",
          "type": "address"
        },
        {
          "indexed": true,
          "internalType": "uint256",
          "name": "tokenId",
          "type": "uint256"
        }
      ],
      "name": "Transfer",
      "type": "event"
    },
    {
      "inputs": [],
      "name": "MAX_GENS",
      "outputs": [
        {
          "internalType": "uint256",
          "name": "",
          "type": "uint256"
        }
      ],
      "stateMutability": "view",
      "type": "function"
    },
    {
      "inputs": [
        {
          "internalType": "address",
          "name": "to",
          "type": "address"
        },
        {
          "internalType": "uint256",
          "name": "tokenId",
          "type": "uint256"
        }
      ],
      "name": "approve",
      "outputs": [],
      "stateMutability": "nonpayable",
      "type": "function"
    },
    {
      "inputs": [],
      "name": "arcturiumContract",
      "outputs": [
        {
          "internalType": "address",
          "name": "",
          "type": "address"
        }
      ],
      "stateMutability": "view",
      "type": "function"
    },
    {
      "inputs": [
        {
          "internalType": "address",
          "name": "owner",
          "type": "address"
        }
      ],
      "name": "balanceOf",
      "outputs": [
        {
          "internalType": "uint256",
          "name": "",
          "type": "uint256"
        }
      ],
      "stateMutability": "view",
      "type": "function"
    },
    {
      "inputs": [
        {
          "internalType": "uint256[]",
          "name": "tokenIds",
          "type": "uint256[]"
        }
      ],
      "name": "bioUpgrade",
      "outputs": [],
      "stateMutability": "payable",
      "type": "function"
    },
    {
      "inputs": [],
      "name": "bioUpgradingIsActive",
      "outputs": [
        {
          "internalType": "bool",
          "name": "",
          "type": "bool"
        }
      ],
      "stateMutability": "view",
      "type": "function"
    },
    {
      "inputs": [],
      "name": "currentSeasonalCollectionURI",
      "outputs": [
        {
          "internalType": "string",
          "name": "",
          "type": "string"
        }
      ],
      "stateMutability": "view",
      "type": "function"
    },
    {
      "inputs": [],
      "name": "flipBioUpgradingState",
      "outputs": [],
      "stateMutability": "nonpayable",
      "type": "function"
    },
    {
      "inputs": [],
      "name": "flipMintingState",
      "outputs": [],
      "stateMutability": "nonpayable",
      "type": "function"
    },
    {
      "inputs": [],
      "name": "flipPublicState",
      "outputs": [],
      "stateMutability": "nonpayable",
      "type": "function"
    },
    {
      "inputs": [
        {
          "internalType": "uint256",
          "name": "tokenId",
          "type": "uint256"
        }
      ],
      "name": "getApproved",
      "outputs": [
        {
          "internalType": "address",
          "name": "",
          "type": "address"
        }
      ],
      "stateMutability": "view",
      "type": "function"
    },
    {
      "inputs": [
        {
          "internalType": "address",
          "name": "owner",
          "type": "address"
        },
        {
          "internalType": "address",
          "name": "operator",
          "type": "address"
        }
      ],
      "name": "isApprovedForAll",
      "outputs": [
        {
          "internalType": "bool",
          "name": "",
          "type": "bool"
        }
      ],
      "stateMutability": "view",
      "type": "function"
    },
    {
      "inputs": [
        {
          "internalType": "uint256",
          "name": "tokenId",
          "type": "uint256"
        }
      ],
      "name": "isMinted",
      "outputs": [
        {
          "internalType": "bool",
          "name": "",
          "type": "bool"
        }
      ],
      "stateMutability": "view",
      "type": "function"
    },
    {
      "inputs": [],
      "name": "maxPerMint",
      "outputs": [
        {
          "internalType": "uint256",
          "name": "",
          "type": "uint256"
        }
      ],
      "stateMutability": "view",
      "type": "function"
    },
    {
      "inputs": [
        {
          "internalType": "uint256[]",
          "name": "tokenIds",
          "type": "uint256[]"
        }
      ],
      "name": "mintGen",
      "outputs": [],
      "stateMutability": "nonpayable",
      "type": "function"
    },
    {
      "inputs": [],
      "name": "mintPrice",
      "outputs": [
        {
          "internalType": "uint256",
          "name": "",
          "type": "uint256"
        }
      ],
      "stateMutability": "view",
      "type": "function"
    },
    {
      "inputs": [
        {
          "internalType": "uint256[]",
          "name": "tokenIds",
          "type": "uint256[]"
        }
      ],
      "name": "mintPublicGen",
      "outputs": [],
      "stateMutability": "payable",
      "type": "function"
    },
    {
      "inputs": [],
      "name": "mintingIsActive",
      "outputs": [
        {
          "internalType": "bool",
          "name": "",
          "type": "bool"
        }
      ],
      "stateMutability": "view",
      "type": "function"
    },
    {
      "inputs": [],
      "name": "name",
      "outputs": [
        {
          "internalType": "string",
          "name": "",
          "type": "string"
        }
      ],
      "stateMutability": "view",
      "type": "function"
    },
    {
      "inputs": [],
      "name": "owner",
      "outputs": [
        {
          "internalType": "address",
          "name": "",
          "type": "address"
        }
      ],
      "stateMutability": "view",
      "type": "function"
    },
    {
      "inputs": [
        {
          "internalType": "uint256",
          "name": "tokenId",
          "type": "uint256"
        }
      ],
      "name": "ownerOf",
      "outputs": [
        {
          "internalType": "address",
          "name": "",
          "type": "address"
        }
      ],
      "stateMutability": "view",
      "type": "function"
    },
    {
      "inputs": [],
      "name": "publicIsActive",
      "outputs": [
        {
          "internalType": "bool",
          "name": "",
          "type": "bool"
        }
      ],
      "stateMutability": "view",
      "type": "function"
    },
    {
      "inputs": [],
      "name": "renounceOwnership",
      "outputs": [],
      "stateMutability": "nonpayable",
      "type": "function"
    },
    {
      "inputs": [
        {
          "internalType": "address",
          "name": "from",
          "type": "address"
        },
        {
          "internalType": "address",
          "name": "to",
          "type": "address"
        },
        {
          "internalType": "uint256",
          "name": "tokenId",
          "type": "uint256"
        }
      ],
      "name": "safeTransferFrom",
      "outputs": [],
      "stateMutability": "nonpayable",
      "type": "function"
    },
    {
      "inputs": [
        {
          "internalType": "address",
          "name": "from",
          "type": "address"
        },
        {
          "internalType": "address",
          "name": "to",
          "type": "address"
        },
        {
          "internalType": "uint256",
          "name": "tokenId",
          "type": "uint256"
        },
        {
          "internalType": "bytes",
          "name": "data",
          "type": "bytes"
        }
      ],
      "name": "safeTransferFrom",
      "outputs": [],
      "stateMutability": "nonpayable",
      "type": "function"
    },
    {
      "inputs": [
        {
          "internalType": "address",
          "name": "operator",
          "type": "address"
        },
        {
          "internalType": "bool",
          "name": "approved",
          "type": "bool"
        }
      ],
      "name": "setApprovalForAll",
      "outputs": [],
      "stateMutability": "nonpayable",
      "type": "function"
    },
    {
      "inputs": [
        {
          "internalType": "string",
          "name": "newuri",
          "type": "string"
        }
      ],
      "name": "setCurrentCollectionBaseURI",
      "outputs": [],
      "stateMutability": "nonpayable",
      "type": "function"
    },
    {
      "inputs": [
        {
          "internalType": "uint256",
          "name": "newPrice",
          "type": "uint256"
        }
      ],
      "name": "setMintCost",
      "outputs": [],
      "stateMutability": "nonpayable",
      "type": "function"
    },
    {
      "inputs": [
        {
          "internalType": "uint256",
          "name": "newMax",
          "type": "uint256"
        }
      ],
      "name": "setMintMax",
      "outputs": [],
      "stateMutability": "nonpayable",
      "type": "function"
    },
    {
      "inputs": [
        {
          "internalType": "bytes4",
          "name": "interfaceId",
          "type": "bytes4"
        }
      ],
      "name": "supportsInterface",
      "outputs": [
        {
          "internalType": "bool",
          "name": "",
          "type": "bool"
        }
      ],
      "stateMutability": "view",
      "type": "function"
    },
    {
      "inputs": [],
      "name": "symbol",
      "outputs": [
        {
          "internalType": "string",
          "name": "",
          "type": "string"
        }
      ],
      "stateMutability": "view",
      "type": "function"
    },
    {
      "inputs": [
        {
          "internalType": "uint256",
          "name": "index",
          "type": "uint256"
        }
      ],
      "name": "tokenByIndex",
      "outputs": [
        {
          "internalType": "uint256",
          "name": "",
          "type": "uint256"
        }
      ],
      "stateMutability": "view",
      "type": "function"
    },
    {
      "inputs": [
        {
          "internalType": "address",
          "name": "owner",
          "type": "address"
        },
        {
          "internalType": "uint256",
          "name": "index",
          "type": "uint256"
        }
      ],
      "name": "tokenOfOwnerByIndex",
      "outputs": [
        {
          "internalType": "uint256",
          "name": "",
          "type": "uint256"
        }
      ],
      "stateMutability": "view",
      "type": "function"
    },
    {
      "inputs": [
        {
          "internalType": "uint256",
          "name": "tokenId",
          "type": "uint256"
        }
      ],
      "name": "tokenURI",
      "outputs": [
        {
          "internalType": "string",
          "name": "",
          "type": "string"
        }
      ],
      "stateMutability": "view",
      "type": "function"
    },
    {
      "inputs": [],
      "name": "totalSupply",
      "outputs": [
        {
          "internalType": "uint256",
          "name": "",
          "type": "uint256"
        }
      ],
      "stateMutability": "view",
      "type": "function"
    },
    {
      "inputs": [
        {
          "internalType": "address",
          "name": "from",
          "type": "address"
        },
        {
          "internalType": "address",
          "name": "to",
          "type": "address"
        },
        {
          "internalType": "uint256",
          "name": "tokenId",
          "type": "uint256"
        }
      ],
      "name": "transferFrom",
      "outputs": [],
      "stateMutability": "nonpayable",
      "type": "function"
    },
    {
      "inputs": [
        {
          "internalType": "address",
          "name": "newOwner",
          "type": "address"
        }
      ],
      "name": "transferOwnership",
      "outputs": [],
      "stateMutability": "nonpayable",
      "type": "function"
    },
    {
      "inputs": [],
      "name": "withdraw",
      "outputs": [],
      "stateMutability": "nonpayable",
      "type": "function"
    }
  ],
  "bytecode": "0x6080604052600a600b556000600c60006101000a81548160ff0219169083151502179055506000600c60016101000a81548160ff0219169083151502179055506000600c60026101000a81548160ff0219169083151502179055506000600e5573f710f3e8be1180a3a4863330d5009278e799d4a8601160006101000a81548173ffffffffffffffffffffffffffffffffffffffff021916908373ffffffffffffffffffffffffffffffffffffffff160217905550348015620000c157600080fd5b50604051620053ce380380620053ce8339818101604052810190620000e79190620003b7565b6040518060400160405280600381526020017f47656e00000000000000000000000000000000000000000000000000000000008152506040518060400160405280600381526020017f47656e000000000000000000000000000000000000000000000000000000000081525081600090805190602001906200016b92919062000295565b5080600190805190602001906200018492919062000295565b505050620001a76200019b620001c760201b60201c565b620001cf60201b60201c565b80600d9080519060200190620001bf92919062000295565b50506200056c565b600033905090565b6000600a60009054906101000a900473ffffffffffffffffffffffffffffffffffffffff16905081600a60006101000a81548173ffffffffffffffffffffffffffffffffffffffff021916908373ffffffffffffffffffffffffffffffffffffffff1602179055508173ffffffffffffffffffffffffffffffffffffffff168173ffffffffffffffffffffffffffffffffffffffff167f8be0079c531659141344cd1fd0a4f28419497f9722a3daafe3b4186f6b6457e060405160405180910390a35050565b828054620002a39062000491565b90600052602060002090601f016020900481019282620002c7576000855562000313565b82601f10620002e257805160ff191683800117855562000313565b8280016001018555821562000313579182015b8281111562000312578251825591602001919060010190620002f5565b5b50905062000322919062000326565b5090565b5b808211156200034157600081600090555060010162000327565b5090565b60006200035c620003568462000425565b620003fc565b9050828152602081018484840111156200037557600080fd5b620003828482856200045b565b509392505050565b600082601f8301126200039c57600080fd5b8151620003ae84826020860162000345565b91505092915050565b600060208284031215620003ca57600080fd5b600082015167ffffffffffffffff811115620003e557600080fd5b620003f3848285016200038a565b91505092915050565b6000620004086200041b565b9050620004168282620004c7565b919050565b6000604051905090565b600067ffffffffffffffff8211156200044357620004426200052c565b5b6200044e826200055b565b9050602081019050919050565b60005b838110156200047b5780820151818401526020810190506200045e565b838111156200048b576000848401525b50505050565b60006002820490506001821680620004aa57607f821691505b60208210811415620004c157620004c0620004fd565b5b50919050565b620004d2826200055b565b810181811067ffffffffffffffff82111715620004f457620004f36200052c565b5b80604052505050565b7f4e487b7100000000000000000000000000000000000000000000000000000000600052602260045260246000fd5b7f4e487b7100000000000000000000000000000000000000000000000000000000600052604160045260246000fd5b6000601f19601f8301169050919050565b614e52806200057c6000396000f3fe6080604052600436106102255760003560e01c806370a0823111610123578063a22cb465116100ab578063e985e9c51161006f578063e985e9c5146107c5578063ec9b08f114610802578063f2fde38b1461082d578063f655ff2214610856578063f7eb17cc1461086d57610225565b8063a22cb465146106f1578063afc3cb491461071a578063b88d4fde14610743578063c87b56dd1461076c578063d99bcbd8146107a957610225565b806387683a47116100f257806387683a4714610630578063882b1808146106595780638da5cb5b1461067057806395d89b411461069b578063a216a49d146106c657610225565b806370a082311461059c578063715018a6146105d95780637efd1a68146105f05780638545f4ea1461060757610225565b806333c41a90116101b15780634f6ccce7116101755780634f6ccce7146104a3578063507e094f146104e05780635a504e741461050b5780636352211e146105345780636817c76c1461057157610225565b806333c41a90146103d057806333cc4c291461040d5780633ccfd60b1461043857806342842e0e1461044f5780634728b9f41461047857610225565b8063095ea7b3116101f8578063095ea7b3146102fa57806318160ddd146103235780631e2a23c01461034e57806323b872dd1461036a5780632f745c591461039357610225565b806301ffc9a71461022a578063033a02d61461026757806306fdde0314610292578063081812fc146102bd575b600080fd5b34801561023657600080fd5b50610251600480360381019061024c91906136e2565b610898565b60405161025e9190613db3565b60405180910390f35b34801561027357600080fd5b5061027c6108aa565b6040516102899190613db3565b60405180910390f35b34801561029e57600080fd5b506102a76108bd565b6040516102b49190613dce565b60405180910390f35b3480156102c957600080fd5b506102e460048036038101906102df9190613775565b61094f565b6040516102f19190613d4c565b60405180910390f35b34801561030657600080fd5b50610321600480360381019061031c9190613665565b610995565b005b34801561032f57600080fd5b50610338610aad565b6040516103459190614170565b60405180910390f35b610368600480360381019061036391906136a1565b610aba565b005b34801561037657600080fd5b50610391600480360381019061038c919061355f565b610d93565b005b34801561039f57600080fd5b506103ba60048036038101906103b59190613665565b610df3565b6040516103c79190614170565b60405180910390f35b3480156103dc57600080fd5b506103f760048036038101906103f29190613775565b610e98565b6040516104049190613db3565b60405180910390f35b34801561041957600080fd5b50610422610eaa565b60405161042f9190613dce565b60405180910390f35b34801561044457600080fd5b5061044d610f38565b005b34801561045b57600080fd5b506104766004803603810190610471919061355f565b610f95565b005b34801561048457600080fd5b5061048d610fb5565b60405161049a9190613db3565b60405180910390f35b3480156104af57600080fd5b506104ca60048036038101906104c59190613775565b610fc8565b6040516104d79190614170565b60405180910390f35b3480156104ec57600080fd5b506104f561105f565b6040516105029190614170565b60405180910390f35b34801561051757600080fd5b50610532600480360381019061052d9190613734565b611065565b005b34801561054057600080fd5b5061055b60048036038101906105569190613775565b611087565b6040516105689190613d4c565b60405180910390f35b34801561057d57600080fd5b50610586611139565b6040516105939190614170565b60405180910390f35b3480156105a857600080fd5b506105c360048036038101906105be91906134d1565b61113f565b6040516105d09190614170565b60405180910390f35b3480156105e557600080fd5b506105ee6111f7565b005b3480156105fc57600080fd5b5061060561120b565b005b34801561061357600080fd5b5061062e60048036038101906106299190613775565b61123f565b005b34801561063c57600080fd5b50610657600480360381019061065291906136a1565b611251565b005b34801561066557600080fd5b5061066e6115bf565b005b34801561067c57600080fd5b506106856115f3565b6040516106929190613d4c565b60405180910390f35b3480156106a757600080fd5b506106b061161d565b6040516106bd9190613dce565b60405180910390f35b3480156106d257600080fd5b506106db6116af565b6040516106e89190613db3565b60405180910390f35b3480156106fd57600080fd5b5061071860048036038101906107139190613629565b6116c2565b005b34801561072657600080fd5b50610741600480360381019061073c9190613775565b6116d8565b005b34801561074f57600080fd5b5061076a600480360381019061076591906135ae565b6116ea565b005b34801561077857600080fd5b50610793600480360381019061078e9190613775565b61174c565b6040516107a09190613dce565b60405180910390f35b6107c360048036038101906107be91906136a1565b611868565b005b3480156107d157600080fd5b506107ec60048036038101906107e79190613523565b611ac1565b6040516107f99190613db3565b60405180910390f35b34801561080e57600080fd5b50610817611b55565b6040516108249190613d4c565b60405180910390f35b34801561083957600080fd5b50610854600480360381019061084f91906134d1565b611b7b565b005b34801561086257600080fd5b5061086b611bff565b005b34801561087957600080fd5b50610882611c33565b60405161088f9190614170565b60405180910390f35b60006108a382611c38565b9050919050565b600c60029054906101000a900460ff1681565b6060600080546108cc9061449c565b80601f01602080910402602001604051908101604052809291908181526020018280546108f89061449c565b80156109455780601f1061091a57610100808354040283529160200191610945565b820191906000526020600020905b81548152906001019060200180831161092857829003601f168201915b5050505050905090565b600061095a82611cb2565b6004600083815260200190815260200160002060009054906101000a900473ffffffffffffffffffffffffffffffffffffffff169050919050565b60006109a082611087565b90508073ffffffffffffffffffffffffffffffffffffffff168373ffffffffffffffffffffffffffffffffffffffff161415610a11576040517f08c379a0000000000000000000000000000000000000000000000000000000008152600401610a08906140b0565b60405180910390fd5b8073ffffffffffffffffffffffffffffffffffffffff16610a30611cfd565b73ffffffffffffffffffffffffffffffffffffffff161480610a5f5750610a5e81610a59611cfd565b611ac1565b5b610a9e576040517f08c379a0000000000000000000000000000000000000000000000000000000008152600401610a9590614010565b60405180910390fd5b610aa88383611d05565b505050565b6000600880549050905090565b600c60019054906101000a900460ff16610b09576040517f08c379a0000000000000000000000000000000000000000000000000000000008152600401610b0090613eb0565b60405180910390fd5b34600e548251610b199190614358565b14610b59576040517f08c379a0000000000000000000000000000000000000000000000000000000008152600401610b5090613f90565b60405180910390fd5b60005b8151811015610c88573373ffffffffffffffffffffffffffffffffffffffff16610bc5838381518110610bb8577f4e487b7100000000000000000000000000000000000000000000000000000000600052603260045260246000fd5b6020026020010151611087565b73ffffffffffffffffffffffffffffffffffffffff16141580610c2e5750610c2c828281518110610c1f577f4e487b7100000000000000000000000000000000000000000000000000000000600052603260045260246000fd5b6020026020010151611dbe565b155b15610c75576000610c74576040517f08c379a0000000000000000000000000000000000000000000000000000000008152600401610c6b90614130565b60405180910390fd5b5b8080610c80906144ff565b915050610b5c565b5060005b8151811015610d8f57600d60106000848481518110610cd4577f4e487b7100000000000000000000000000000000000000000000000000000000600052603260045260246000fd5b60200260200101518152602001908152602001600020908054610cf69061449c565b610d019291906131bd565b507f266bc8906175770d5acdb15c764e656bc33c059f4339d709a51e95be76c6bc76828281518110610d5c577f4e487b7100000000000000000000000000000000000000000000000000000000600052603260045260246000fd5b6020026020010151600d604051610d7492919061418b565b60405180910390a18080610d87906144ff565b915050610c8c565b5050565b610da4610d9e611cfd565b82611e2a565b610de3576040517f08c379a0000000000000000000000000000000000000000000000000000000008152600401610dda90614110565b60405180910390fd5b610dee838383611ebf565b505050565b6000610dfe8361113f565b8210610e3f576040517f08c379a0000000000000000000000000000000000000000000000000000000008152600401610e3690613e10565b60405180910390fd5b600660008473ffffffffffffffffffffffffffffffffffffffff1673ffffffffffffffffffffffffffffffffffffffff168152602001908152602001600020600083815260200190815260200160002054905092915050565b6000610ea382611dbe565b9050919050565b600d8054610eb79061449c565b80601f0160208091040260200160405190810160405280929190818152602001828054610ee39061449c565b8015610f305780601f10610f0557610100808354040283529160200191610f30565b820191906000526020600020905b815481529060010190602001808311610f1357829003601f168201915b505050505081565b610f40612126565b60004711610f83576040517f08c379a0000000000000000000000000000000000000000000000000000000008152600401610f7a90613f50565b60405180910390fd5b6000479050610f9233826121a4565b50565b610fb0838383604051806020016040528060008152506116ea565b505050565b600c60009054906101000a900460ff1681565b6000610fd2610aad565b8210611013576040517f08c379a000000000000000000000000000000000000000000000000000000000815260040161100a906140f0565b60405180910390fd5b6008828154811061104d577f4e487b7100000000000000000000000000000000000000000000000000000000600052603260045260246000fd5b90600052602060002001549050919050565b600b5481565b61106d612126565b80600d908051906020019061108392919061324a565b5050565b6000806002600084815260200190815260200160002060009054906101000a900473ffffffffffffffffffffffffffffffffffffffff169050600073ffffffffffffffffffffffffffffffffffffffff168173ffffffffffffffffffffffffffffffffffffffff161415611130576040517f08c379a000000000000000000000000000000000000000000000000000000000815260040161112790614090565b60405180910390fd5b80915050919050565b600e5481565b60008073ffffffffffffffffffffffffffffffffffffffff168273ffffffffffffffffffffffffffffffffffffffff1614156111b0576040517f08c379a00000000000000000000000000000000000000000000000000000000081526004016111a790613ff0565b60405180910390fd5b600360008373ffffffffffffffffffffffffffffffffffffffff1673ffffffffffffffffffffffffffffffffffffffff168152602001908152602001600020549050919050565b6111ff612126565b6112096000612298565b565b611213612126565b600c60019054906101000a900460ff1615600c60016101000a81548160ff021916908315150217905550565b611247612126565b80600e8190555050565b600b5481511115611297576040517f08c379a000000000000000000000000000000000000000000000000000000000815260040161128e90613f70565b60405180910390fd5b600c60009054906101000a900460ff166112e6576040517f08c379a00000000000000000000000000000000000000000000000000000000081526004016112dd90613ed0565b60405180910390fd5b600a81516112f2610aad565b6112fc91906142d1565b111561133d576040517f08c379a000000000000000000000000000000000000000000000000000000000815260040161133490613ef0565b60405180910390fd5b6000601160009054906101000a900473ffffffffffffffffffffffffffffffffffffffff16905060005b8251811015611550573373ffffffffffffffffffffffffffffffffffffffff168273ffffffffffffffffffffffffffffffffffffffff16636352211e8584815181106113dc577f4e487b7100000000000000000000000000000000000000000000000000000000600052603260045260246000fd5b60200260200101516040518263ffffffff1660e01b81526004016114009190614170565b60206040518083038186803b15801561141857600080fd5b505afa15801561142c573d6000803e3d6000fd5b505050506040513d601f19601f8201168201806040525081019061145091906134fa565b73ffffffffffffffffffffffffffffffffffffffff16146114ad5760006114ac576040517f08c379a00000000000000000000000000000000000000000000000000000000081526004016114a390613df0565b60405180910390fd5b5b6114f68382815181106114e9577f4e487b7100000000000000000000000000000000000000000000000000000000600052603260045260246000fd5b6020026020010151611dbe565b1561153d57600061153c576040517f08c379a0000000000000000000000000000000000000000000000000000000008152600401611533906140d0565b60405180910390fd5b5b8080611548906144ff565b915050611367565b5060005b82518110156115ba576115a73384838151811061159a577f4e487b7100000000000000000000000000000000000000000000000000000000600052603260045260246000fd5b602002602001015161235e565b80806115b2906144ff565b915050611554565b505050565b6115c7612126565b600c60029054906101000a900460ff1615600c60026101000a81548160ff021916908315150217905550565b6000600a60009054906101000a900473ffffffffffffffffffffffffffffffffffffffff16905090565b60606001805461162c9061449c565b80601f01602080910402602001604051908101604052809291908181526020018280546116589061449c565b80156116a55780601f1061167a576101008083540402835291602001916116a5565b820191906000526020600020905b81548152906001019060200180831161168857829003601f168201915b5050505050905090565b600c60019054906101000a900460ff1681565b6116d46116cd611cfd565b8383612448565b5050565b6116e0612126565b80600b8190555050565b6116fb6116f5611cfd565b83611e2a565b61173a576040517f08c379a000000000000000000000000000000000000000000000000000000000815260040161173190614110565b60405180910390fd5b611746848484846125b5565b50505050565b606061175782611dbe565b611796576040517f08c379a000000000000000000000000000000000000000000000000000000000815260040161178d90614070565b60405180910390fd5b60006010600084815260200190815260200160002080546117b69061449c565b80601f01602080910402602001604051908101604052809291908181526020018280546117e29061449c565b801561182f5780601f106118045761010080835404028352916020019161182f565b820191906000526020600020905b81548152906001019060200180831161181257829003601f168201915b505050505090508061184084612611565b604051602001611851929190613d08565b604051602081830303815290604052915050919050565b600b54815111156118ae576040517f08c379a00000000000000000000000000000000000000000000000000000000081526004016118a590613f70565b60405180910390fd5b600c60029054906101000a900460ff166118fd576040517f08c379a00000000000000000000000000000000000000000000000000000000081526004016118f490614150565b60405180910390fd5b600a8151611909610aad565b61191391906142d1565b1115611954576040517f08c379a000000000000000000000000000000000000000000000000000000000815260040161194b90613ef0565b60405180910390fd5b34600e5482516119649190614358565b146119a4576040517f08c379a000000000000000000000000000000000000000000000000000000000815260040161199b90613f90565b60405180910390fd5b60005b8151811015611a53576119f98282815181106119ec577f4e487b7100000000000000000000000000000000000000000000000000000000600052603260045260246000fd5b6020026020010151611dbe565b15611a40576000611a3f576040517f08c379a0000000000000000000000000000000000000000000000000000000008152600401611a36906140d0565b60405180910390fd5b5b8080611a4b906144ff565b9150506119a7565b5060005b8151811015611abd57611aaa33838381518110611a9d577f4e487b7100000000000000000000000000000000000000000000000000000000600052603260045260246000fd5b602002602001015161235e565b8080611ab5906144ff565b915050611a57565b5050565b6000600560008473ffffffffffffffffffffffffffffffffffffffff1673ffffffffffffffffffffffffffffffffffffffff16815260200190815260200160002060008373ffffffffffffffffffffffffffffffffffffffff1673ffffffffffffffffffffffffffffffffffffffff16815260200190815260200160002060009054906101000a900460ff16905092915050565b601160009054906101000a900473ffffffffffffffffffffffffffffffffffffffff1681565b611b83612126565b600073ffffffffffffffffffffffffffffffffffffffff168173ffffffffffffffffffffffffffffffffffffffff161415611bf3576040517f08c379a0000000000000000000000000000000000000000000000000000000008152600401611bea90613e50565b60405180910390fd5b611bfc81612298565b50565b611c07612126565b600c60009054906101000a900460ff1615600c60006101000a81548160ff021916908315150217905550565b600a81565b60007f780e9d63000000000000000000000000000000000000000000000000000000007bffffffffffffffffffffffffffffffffffffffffffffffffffffffff1916827bffffffffffffffffffffffffffffffffffffffffffffffffffffffff19161480611cab5750611caa826127be565b5b9050919050565b611cbb81611dbe565b611cfa576040517f08c379a0000000000000000000000000000000000000000000000000000000008152600401611cf190614090565b60405180910390fd5b50565b600033905090565b816004600083815260200190815260200160002060006101000a81548173ffffffffffffffffffffffffffffffffffffffff021916908373ffffffffffffffffffffffffffffffffffffffff160217905550808273ffffffffffffffffffffffffffffffffffffffff16611d7883611087565b73ffffffffffffffffffffffffffffffffffffffff167f8c5be1e5ebec7d5bd14f71427d1e84f3dd0314c0f7b2291e5b200ac8c7c3b92560405160405180910390a45050565b60008073ffffffffffffffffffffffffffffffffffffffff166002600084815260200190815260200160002060009054906101000a900473ffffffffffffffffffffffffffffffffffffffff1673ffffffffffffffffffffffffffffffffffffffff1614159050919050565b600080611e3683611087565b90508073ffffffffffffffffffffffffffffffffffffffff168473ffffffffffffffffffffffffffffffffffffffff161480611e785750611e778185611ac1565b5b80611eb657508373ffffffffffffffffffffffffffffffffffffffff16611e9e8461094f565b73ffffffffffffffffffffffffffffffffffffffff16145b91505092915050565b8273ffffffffffffffffffffffffffffffffffffffff16611edf82611087565b73ffffffffffffffffffffffffffffffffffffffff1614611f35576040517f08c379a0000000000000000000000000000000000000000000000000000000008152600401611f2c90613e70565b60405180910390fd5b600073ffffffffffffffffffffffffffffffffffffffff168273ffffffffffffffffffffffffffffffffffffffff161415611fa5576040517f08c379a0000000000000000000000000000000000000000000000000000000008152600401611f9c90613f10565b60405180910390fd5b611fb08383836128a0565b611fbb600082611d05565b6001600360008573ffffffffffffffffffffffffffffffffffffffff1673ffffffffffffffffffffffffffffffffffffffff168152602001908152602001600020600082825461200b91906143b2565b925050819055506001600360008473ffffffffffffffffffffffffffffffffffffffff1673ffffffffffffffffffffffffffffffffffffffff168152602001908152602001600020600082825461206291906142d1565b92505081905550816002600083815260200190815260200160002060006101000a81548173ffffffffffffffffffffffffffffffffffffffff021916908373ffffffffffffffffffffffffffffffffffffffff160217905550808273ffffffffffffffffffffffffffffffffffffffff168473ffffffffffffffffffffffffffffffffffffffff167fddf252ad1be2c89b69c2b068fc378daa952ba7f163c4a11628f55a4df523b3ef60405160405180910390a46121218383836128b0565b505050565b61212e611cfd565b73ffffffffffffffffffffffffffffffffffffffff1661214c6115f3565b73ffffffffffffffffffffffffffffffffffffffff16146121a2576040517f08c379a000000000000000000000000000000000000000000000000000000000815260040161219990614050565b60405180910390fd5b565b804710156121e7576040517f08c379a00000000000000000000000000000000000000000000000000000000081526004016121de90613fd0565b60405180910390fd5b60008273ffffffffffffffffffffffffffffffffffffffff168260405161220d90613d37565b60006040518083038185875af1925050503d806000811461224a576040519150601f19603f3d011682016040523d82523d6000602084013e61224f565b606091505b5050905080612293576040517f08c379a000000000000000000000000000000000000000000000000000000000815260040161228a90613fb0565b60405180910390fd5b505050565b6000600a60009054906101000a900473ffffffffffffffffffffffffffffffffffffffff16905081600a60006101000a81548173ffffffffffffffffffffffffffffffffffffffff021916908373ffffffffffffffffffffffffffffffffffffffff1602179055508173ffffffffffffffffffffffffffffffffffffffff168173ffffffffffffffffffffffffffffffffffffffff167f8be0079c531659141344cd1fd0a4f28419497f9722a3daafe3b4186f6b6457e060405160405180910390a35050565b600a81108015612374575061237281611dbe565b155b80156123a4575060001515600f600083815260200190815260200160002060009054906101000a900460ff161515145b15612444576123b382826128b5565b6001600f600083815260200190815260200160002060006101000a81548160ff021916908315150217905550600d601060008381526020019081526020016000209080546124009061449c565b61240b9291906131bd565b507f6be8115b43ea74bc93c32e35adc4fa01662a2a5eeac8b816d75a3980a84239048160405161243b9190614170565b60405180910390a15b5050565b8173ffffffffffffffffffffffffffffffffffffffff168373ffffffffffffffffffffffffffffffffffffffff1614156124b7576040517f08c379a00000000000000000000000000000000000000000000000000000000081526004016124ae90613f30565b60405180910390fd5b80600560008573ffffffffffffffffffffffffffffffffffffffff1673ffffffffffffffffffffffffffffffffffffffff16815260200190815260200160002060008473ffffffffffffffffffffffffffffffffffffffff1673ffffffffffffffffffffffffffffffffffffffff16815260200190815260200160002060006101000a81548160ff0219169083151502179055508173ffffffffffffffffffffffffffffffffffffffff168373ffffffffffffffffffffffffffffffffffffffff167f17307eab39ab6107e8899845ad3d59bd9653f200f220920489ca2b5937696c31836040516125a89190613db3565b60405180910390a3505050565b6125c0848484611ebf565b6125cc848484846128d3565b61260b576040517f08c379a000000000000000000000000000000000000000000000000000000000815260040161260290613e30565b60405180910390fd5b50505050565b60606000821415612659576040518060400160405280600181526020017f300000000000000000000000000000000000000000000000000000000000000081525090506127b9565b600082905060005b6000821461268b578080612674906144ff565b915050600a826126849190614327565b9150612661565b60008167ffffffffffffffff8111156126cd577f4e487b7100000000000000000000000000000000000000000000000000000000600052604160045260246000fd5b6040519080825280601f01601f1916602001820160405280156126ff5781602001600182028036833780820191505090505b5090505b600085146127b25760018261271891906143b2565b9150600a856127279190614548565b603061273391906142d1565b60f81b81838151811061276f577f4e487b7100000000000000000000000000000000000000000000000000000000600052603260045260246000fd5b60200101907effffffffffffffffffffffffffffffffffffffffffffffffffffffffffffff1916908160001a905350600a856127ab9190614327565b9450612703565b8093505050505b919050565b60007f80ac58cd000000000000000000000000000000000000000000000000000000007bffffffffffffffffffffffffffffffffffffffffffffffffffffffff1916827bffffffffffffffffffffffffffffffffffffffffffffffffffffffff1916148061288957507f5b5e139f000000000000000000000000000000000000000000000000000000007bffffffffffffffffffffffffffffffffffffffffffffffffffffffff1916827bffffffffffffffffffffffffffffffffffffffffffffffffffffffff1916145b80612899575061289882612a6a565b5b9050919050565b6128ab838383612ad4565b505050565b505050565b6128cf828260405180602001604052806000815250612be8565b5050565b60006128f48473ffffffffffffffffffffffffffffffffffffffff16612c43565b15612a5d578373ffffffffffffffffffffffffffffffffffffffff1663150b7a0261291d611cfd565b8786866040518563ffffffff1660e01b815260040161293f9493929190613d67565b602060405180830381600087803b15801561295957600080fd5b505af192505050801561298a57506040513d601f19601f82011682018060405250810190612987919061370b565b60015b612a0d573d80600081146129ba576040519150601f19603f3d011682016040523d82523d6000602084013e6129bf565b606091505b50600081511415612a05576040517f08c379a00000000000000000000000000000000000000000000000000000000081526004016129fc90613e30565b60405180910390fd5b805181602001fd5b63150b7a0260e01b7bffffffffffffffffffffffffffffffffffffffffffffffffffffffff1916817bffffffffffffffffffffffffffffffffffffffffffffffffffffffff191614915050612a62565b600190505b949350505050565b60007f01ffc9a7000000000000000000000000000000000000000000000000000000007bffffffffffffffffffffffffffffffffffffffffffffffffffffffff1916827bffffffffffffffffffffffffffffffffffffffffffffffffffffffff1916149050919050565b612adf838383612c66565b600073ffffffffffffffffffffffffffffffffffffffff168373ffffffffffffffffffffffffffffffffffffffff161415612b2257612b1d81612c6b565b612b61565b8173ffffffffffffffffffffffffffffffffffffffff168373ffffffffffffffffffffffffffffffffffffffff1614612b6057612b5f8382612cb4565b5b5b600073ffffffffffffffffffffffffffffffffffffffff168273ffffffffffffffffffffffffffffffffffffffff161415612ba457612b9f81612e21565b612be3565b8273ffffffffffffffffffffffffffffffffffffffff168273ffffffffffffffffffffffffffffffffffffffff1614612be257612be18282612f64565b5b5b505050565b612bf28383612fe3565b612bff60008484846128d3565b612c3e576040517f08c379a0000000000000000000000000000000000000000000000000000000008152600401612c3590613e30565b60405180910390fd5b505050565b6000808273ffffffffffffffffffffffffffffffffffffffff163b119050919050565b505050565b6008805490506009600083815260200190815260200160002081905550600881908060018154018082558091505060019003906000526020600020016000909190919091505550565b60006001612cc18461113f565b612ccb91906143b2565b9050600060076000848152602001908152602001600020549050818114612db0576000600660008673ffffffffffffffffffffffffffffffffffffffff1673ffffffffffffffffffffffffffffffffffffffff168152602001908152602001600020600084815260200190815260200160002054905080600660008773ffffffffffffffffffffffffffffffffffffffff1673ffffffffffffffffffffffffffffffffffffffff168152602001908152602001600020600084815260200190815260200160002081905550816007600083815260200190815260200160002081905550505b6007600084815260200190815260200160002060009055600660008573ffffffffffffffffffffffffffffffffffffffff1673ffffffffffffffffffffffffffffffffffffffff16815260200190815260200160002060008381526020019081526020016000206000905550505050565b60006001600880549050612e3591906143b2565b9050600060096000848152602001908152602001600020549050600060088381548110612e8b577f4e487b7100000000000000000000000000000000000000000000000000000000600052603260045260246000fd5b906000526020600020015490508060088381548110612ed3577f4e487b7100000000000000000000000000000000000000000000000000000000600052603260045260246000fd5b906000526020600020018190555081600960008381526020019081526020016000208190555060096000858152602001908152602001600020600090556008805480612f48577f4e487b7100000000000000000000000000000000000000000000000000000000600052603160045260246000fd5b6001900381819060005260206000200160009055905550505050565b6000612f6f8361113f565b905081600660008573ffffffffffffffffffffffffffffffffffffffff1673ffffffffffffffffffffffffffffffffffffffff168152602001908152602001600020600083815260200190815260200160002081905550806007600084815260200190815260200160002081905550505050565b600073ffffffffffffffffffffffffffffffffffffffff168273ffffffffffffffffffffffffffffffffffffffff161415613053576040517f08c379a000000000000000000000000000000000000000000000000000000000815260040161304a90614030565b60405180910390fd5b61305c81611dbe565b1561309c576040517f08c379a000000000000000000000000000000000000000000000000000000000815260040161309390613e90565b60405180910390fd5b6130a8600083836128a0565b6001600360008473ffffffffffffffffffffffffffffffffffffffff1673ffffffffffffffffffffffffffffffffffffffff16815260200190815260200160002060008282546130f891906142d1565b92505081905550816002600083815260200190815260200160002060006101000a81548173ffffffffffffffffffffffffffffffffffffffff021916908373ffffffffffffffffffffffffffffffffffffffff160217905550808273ffffffffffffffffffffffffffffffffffffffff16600073ffffffffffffffffffffffffffffffffffffffff167fddf252ad1be2c89b69c2b068fc378daa952ba7f163c4a11628f55a4df523b3ef60405160405180910390a46131b9600083836128b0565b5050565b8280546131c99061449c565b90600052602060002090601f0160209004810192826131eb5760008555613239565b82601f106131fc5780548555613239565b8280016001018555821561323957600052602060002091601f016020900482015b8281111561323857825482559160010191906001019061321d565b5b50905061324691906132d0565b5090565b8280546132569061449c565b90600052602060002090601f01602090048101928261327857600085556132bf565b82601f1061329157805160ff19168380011785556132bf565b828001600101855582156132bf579182015b828111156132be5782518255916020019190600101906132a3565b5b5090506132cc91906132d0565b5090565b5b808211156132e95760008160009055506001016132d1565b5090565b60006133006132fb846141e0565b6141bb565b9050808382526020820190508285602086028201111561331f57600080fd5b60005b8581101561334f578161333588826134bc565b845260208401935060208301925050600181019050613322565b5050509392505050565b600061336c6133678461420c565b6141bb565b90508281526020810184848401111561338457600080fd5b61338f84828561445a565b509392505050565b60006133aa6133a58461423d565b6141bb565b9050828152602081018484840111156133c257600080fd5b6133cd84828561445a565b509392505050565b6000813590506133e481614dc0565b92915050565b6000815190506133f981614dc0565b92915050565b600082601f83011261341057600080fd5b81356134208482602086016132ed565b91505092915050565b60008135905061343881614dd7565b92915050565b60008135905061344d81614dee565b92915050565b60008151905061346281614dee565b92915050565b600082601f83011261347957600080fd5b8135613489848260208601613359565b91505092915050565b600082601f8301126134a357600080fd5b81356134b3848260208601613397565b91505092915050565b6000813590506134cb81614e05565b92915050565b6000602082840312156134e357600080fd5b60006134f1848285016133d5565b91505092915050565b60006020828403121561350c57600080fd5b600061351a848285016133ea565b91505092915050565b6000806040838503121561353657600080fd5b6000613544858286016133d5565b9250506020613555858286016133d5565b9150509250929050565b60008060006060848603121561357457600080fd5b6000613582868287016133d5565b9350506020613593868287016133d5565b92505060406135a4868287016134bc565b9150509250925092565b600080600080608085870312156135c457600080fd5b60006135d2878288016133d5565b94505060206135e3878288016133d5565b93505060406135f4878288016134bc565b925050606085013567ffffffffffffffff81111561361157600080fd5b61361d87828801613468565b91505092959194509250565b6000806040838503121561363c57600080fd5b600061364a858286016133d5565b925050602061365b85828601613429565b9150509250929050565b6000806040838503121561367857600080fd5b6000613686858286016133d5565b9250506020613697858286016134bc565b9150509250929050565b6000602082840312156136b357600080fd5b600082013567ffffffffffffffff8111156136cd57600080fd5b6136d9848285016133ff565b91505092915050565b6000602082840312156136f457600080fd5b60006137028482850161343e565b91505092915050565b60006020828403121561371d57600080fd5b600061372b84828501613453565b91505092915050565b60006020828403121561374657600080fd5b600082013567ffffffffffffffff81111561376057600080fd5b61376c84828501613492565b91505092915050565b60006020828403121561378757600080fd5b6000613795848285016134bc565b91505092915050565b6137a7816143e6565b82525050565b6137b6816143f8565b82525050565b60006137c782614283565b6137d18185614299565b93506137e1818560208601614469565b6137ea81614635565b840191505092915050565b60006138008261428e565b61380a81856142b5565b935061381a818560208601614469565b61382381614635565b840191505092915050565b60006138398261428e565b61384381856142c6565b9350613853818560208601614469565b80840191505092915050565b6000815461386c8161449c565b61387681866142b5565b9450600182166000811461389157600181146138a3576138d6565b60ff19831686526020860193506138d6565b6138ac8561426e565b60005b838110156138ce578154818901526001820191506020810190506138af565b808801955050505b50505092915050565b60006138ec602b836142b5565b91506138f782614646565b604082019050919050565b600061390f602b836142b5565b915061391a82614695565b604082019050919050565b60006139326032836142b5565b915061393d826146e4565b604082019050919050565b60006139556026836142b5565b915061396082614733565b604082019050919050565b60006139786025836142b5565b915061398382614782565b604082019050919050565b600061399b601c836142b5565b91506139a6826147d1565b602082019050919050565b60006139be602c836142b5565b91506139c9826147fa565b604082019050919050565b60006139e16022836142b5565b91506139ec82614849565b604082019050919050565b6000613a046024836142b5565b9150613a0f82614898565b604082019050919050565b6000613a276024836142b5565b9150613a32826148e7565b604082019050919050565b6000613a4a6019836142b5565b9150613a5582614936565b602082019050919050565b6000613a6d6014836142b5565b9150613a788261495f565b602082019050919050565b6000613a906029836142b5565b9150613a9b82614988565b604082019050919050565b6000613ab3601f836142b5565b9150613abe826149d7565b602082019050919050565b6000613ad6603a836142b5565b9150613ae182614a00565b604082019050919050565b6000613af9601d836142b5565b9150613b0482614a4f565b602082019050919050565b6000613b1c6029836142b5565b9150613b2782614a78565b604082019050919050565b6000613b3f603e836142b5565b9150613b4a82614ac7565b604082019050919050565b6000613b626020836142b5565b9150613b6d82614b16565b602082019050919050565b6000613b856005836142c6565b9150613b9082614b3f565b600582019050919050565b6000613ba86020836142b5565b9150613bb382614b68565b602082019050919050565b6000613bcb602f836142b5565b9150613bd682614b91565b604082019050919050565b6000613bee6018836142b5565b9150613bf982614be0565b602082019050919050565b6000613c116021836142b5565b9150613c1c82614c09565b604082019050919050565b6000613c34601b836142b5565b9150613c3f82614c58565b602082019050919050565b6000613c576000836142aa565b9150613c6282614c81565b600082019050919050565b6000613c7a602c836142b5565b9150613c8582614c84565b604082019050919050565b6000613c9d602e836142b5565b9150613ca882614cd3565b604082019050919050565b6000613cc06030836142b5565b9150613ccb82614d22565b604082019050919050565b6000613ce36029836142b5565b9150613cee82614d71565b604082019050919050565b613d0281614450565b82525050565b6000613d14828561382e565b9150613d20828461382e565b9150613d2b82613b78565b91508190509392505050565b6000613d4282613c4a565b9150819050919050565b6000602082019050613d61600083018461379e565b92915050565b6000608082019050613d7c600083018761379e565b613d89602083018661379e565b613d966040830185613cf9565b8181036060830152613da881846137bc565b905095945050505050565b6000602082019050613dc860008301846137ad565b92915050565b60006020820190508181036000830152613de881846137f5565b905092915050565b60006020820190508181036000830152613e09816138df565b9050919050565b60006020820190508181036000830152613e2981613902565b9050919050565b60006020820190508181036000830152613e4981613925565b9050919050565b60006020820190508181036000830152613e6981613948565b9050919050565b60006020820190508181036000830152613e898161396b565b9050919050565b60006020820190508181036000830152613ea98161398e565b9050919050565b60006020820190508181036000830152613ec9816139b1565b9050919050565b60006020820190508181036000830152613ee9816139d4565b9050919050565b60006020820190508181036000830152613f09816139f7565b9050919050565b60006020820190508181036000830152613f2981613a1a565b9050919050565b60006020820190508181036000830152613f4981613a3d565b9050919050565b60006020820190508181036000830152613f6981613a60565b9050919050565b60006020820190508181036000830152613f8981613a83565b9050919050565b60006020820190508181036000830152613fa981613aa6565b9050919050565b60006020820190508181036000830152613fc981613ac9565b9050919050565b60006020820190508181036000830152613fe981613aec565b9050919050565b6000602082019050818103600083015261400981613b0f565b9050919050565b6000602082019050818103600083015261402981613b32565b9050919050565b6000602082019050818103600083015261404981613b55565b9050919050565b6000602082019050818103600083015261406981613b9b565b9050919050565b6000602082019050818103600083015261408981613bbe565b9050919050565b600060208201905081810360008301526140a981613be1565b9050919050565b600060208201905081810360008301526140c981613c04565b9050919050565b600060208201905081810360008301526140e981613c27565b9050919050565b6000602082019050818103600083015261410981613c6d565b9050919050565b6000602082019050818103600083015261412981613c90565b9050919050565b6000602082019050818103600083015261414981613cb3565b9050919050565b6000602082019050818103600083015261416981613cd6565b9050919050565b60006020820190506141856000830184613cf9565b92915050565b60006040820190506141a06000830185613cf9565b81810360208301526141b2818461385f565b90509392505050565b60006141c56141d6565b90506141d182826144ce565b919050565b6000604051905090565b600067ffffffffffffffff8211156141fb576141fa614606565b5b602082029050602081019050919050565b600067ffffffffffffffff82111561422757614226614606565b5b61423082614635565b9050602081019050919050565b600067ffffffffffffffff82111561425857614257614606565b5b61426182614635565b9050602081019050919050565b60008190508160005260206000209050919050565b600081519050919050565b600081519050919050565b600082825260208201905092915050565b600081905092915050565b600082825260208201905092915050565b600081905092915050565b60006142dc82614450565b91506142e783614450565b9250827fffffffffffffffffffffffffffffffffffffffffffffffffffffffffffffffff0382111561431c5761431b614579565b5b828201905092915050565b600061433282614450565b915061433d83614450565b92508261434d5761434c6145a8565b5b828204905092915050565b600061436382614450565b915061436e83614450565b9250817fffffffffffffffffffffffffffffffffffffffffffffffffffffffffffffffff04831182151516156143a7576143a6614579565b5b828202905092915050565b60006143bd82614450565b91506143c883614450565b9250828210156143db576143da614579565b5b828203905092915050565b60006143f182614430565b9050919050565b60008115159050919050565b60007fffffffff0000000000000000000000000000000000000000000000000000000082169050919050565b600073ffffffffffffffffffffffffffffffffffffffff82169050919050565b6000819050919050565b82818337600083830152505050565b60005b8381101561448757808201518184015260208101905061446c565b83811115614496576000848401525b50505050565b600060028204905060018216806144b457607f821691505b602082108114156144c8576144c76145d7565b5b50919050565b6144d782614635565b810181811067ffffffffffffffff821117156144f6576144f5614606565b5b80604052505050565b600061450a82614450565b91507fffffffffffffffffffffffffffffffffffffffffffffffffffffffffffffffff82141561453d5761453c614579565b5b600182019050919050565b600061455382614450565b915061455e83614450565b92508261456e5761456d6145a8565b5b828206905092915050565b7f4e487b7100000000000000000000000000000000000000000000000000000000600052601160045260246000fd5b7f4e487b7100000000000000000000000000000000000000000000000000000000600052601260045260246000fd5b7f4e487b7100000000000000000000000000000000000000000000000000000000600052602260045260246000fd5b7f4e487b7100000000000000000000000000000000000000000000000000000000600052604160045260246000fd5b6000601f19601f8301169050919050565b7f417474656d707420746f206d696e742047656e20666f72206e6f6e206f776e6560008201527f642041726374757269756d000000000000000000000000000000000000000000602082015250565b7f455243373231456e756d657261626c653a206f776e657220696e646578206f7560008201527f74206f6620626f756e6473000000000000000000000000000000000000000000602082015250565b7f4552433732313a207472616e7366657220746f206e6f6e20455243373231526560008201527f63656976657220696d706c656d656e7465720000000000000000000000000000602082015250565b7f4f776e61626c653a206e6577206f776e657220697320746865207a65726f206160008201527f6464726573730000000000000000000000000000000000000000000000000000602082015250565b7f4552433732313a207472616e736665722066726f6d20696e636f72726563742060008201527f6f776e6572000000000000000000000000000000000000000000000000000000602082015250565b7f4552433732313a20746f6b656e20616c7265616479206d696e74656400000000600082015250565b7f42696f557067726164696e67206d7573742062652061637469766520746f206360008201527f68616e676520736561736f6e0000000000000000000000000000000000000000602082015250565b7f4d696e74696e67206d7573742062652061637469766520746f206d696e74204760008201527f656e000000000000000000000000000000000000000000000000000000000000602082015250565b7f4d696e7420776f756c6420657863656564206d617820737570706c79206f662060008201527f47656e3000000000000000000000000000000000000000000000000000000000602082015250565b7f4552433732313a207472616e7366657220746f20746865207a65726f2061646460008201527f7265737300000000000000000000000000000000000000000000000000000000602082015250565b7f4552433732313a20617070726f766520746f2063616c6c657200000000000000600082015250565b7f496e73756666696369656e742062616c616e6365000000000000000000000000600082015250565b7f4d696e74696e6720746f6f206d756368206174206f6e6365206973206e6f742060008201527f737570706f727465640000000000000000000000000000000000000000000000602082015250565b7f45746865722076616c75652073656e74206973206e6f7420636f727265637400600082015250565b7f416464726573733a20756e61626c6520746f2073656e642076616c75652c207260008201527f6563697069656e74206d61792068617665207265766572746564000000000000602082015250565b7f416464726573733a20696e73756666696369656e742062616c616e6365000000600082015250565b7f4552433732313a2061646472657373207a65726f206973206e6f74206120766160008201527f6c6964206f776e65720000000000000000000000000000000000000000000000602082015250565b7f4552433732313a20617070726f76652063616c6c6572206973206e6f7420746f60008201527f6b656e206f776e6572206e6f7220617070726f76656420666f7220616c6c0000602082015250565b7f4552433732313a206d696e7420746f20746865207a65726f2061646472657373600082015250565b7f2e6a736f6e000000000000000000000000000000000000000000000000000000600082015250565b7f4f776e61626c653a2063616c6c6572206973206e6f7420746865206f776e6572600082015250565b7f4552433732314d657461646174613a2055524920717565727920666f72206e6f60008201527f6e6578697374656e7420746f6b656e0000000000000000000000000000000000602082015250565b7f4552433732313a20696e76616c696420746f6b656e2049440000000000000000600082015250565b7f4552433732313a20617070726f76616c20746f2063757272656e74206f776e6560008201527f7200000000000000000000000000000000000000000000000000000000000000602082015250565b7f547279696e6720746f206d696e74206578697374696e672047656e0000000000600082015250565b50565b7f455243373231456e756d657261626c653a20676c6f62616c20696e646578206f60008201527f7574206f6620626f756e64730000000000000000000000000000000000000000602082015250565b7f4552433732313a2063616c6c6572206973206e6f7420746f6b656e206f776e6560008201527f72206e6f7220617070726f766564000000000000000000000000000000000000602082015250565b7f547279696e6720746f2042696f2055706772616465206e6f6e2065786973746960008201527f6e672f6e6f74206f776e65642047656e00000000000000000000000000000000602082015250565b7f5075626c6963204d696e74696e67206d7573742062652061637469766520746f60008201527f206d696e742047656e0000000000000000000000000000000000000000000000602082015250565b614dc9816143e6565b8114614dd457600080fd5b50565b614de0816143f8565b8114614deb57600080fd5b50565b614df781614404565b8114614e0257600080fd5b50565b614e0e81614450565b8114614e1957600080fd5b5056fea2646970667358221220f5e6f25ea96b76da0d40760d7933b77408cda348f64ebd56eb9eaf5f320871a664736f6c63430008040033",
  "linkReferences": {},
  "deployedLinkReferences": {}
}