{
  "_format": "hh-sol-artifact-1",
  "contractName": "Gen",
  "sourceName": "contracts/Gen.sol",
  "abi": [
    {
      "inputs": [
        {
          "internalType": "string",
          "name": "baseURI",
          "type": "string"
        }
      ],
      "stateMutability": "nonpayable",
      "type": "constructor"
    },
    {
      "anonymous": false,
      "inputs": [
        {
          "indexed": true,
          "internalType": "address",
          "name": "owner",
          "type": "address"
        },
        {
          "indexed": true,
          "internalType": "address",
          "name": "approved",
          "type": "address"
        },
        {
          "indexed": true,
          "internalType": "uint256",
          "name": "tokenId",
          "type": "uint256"
        }
      ],
      "name": "Approval",
      "type": "event"
    },
    {
      "anonymous": false,
      "inputs": [
        {
          "indexed": true,
          "internalType": "address",
          "name": "owner",
          "type": "address"
        },
        {
          "indexed": true,
          "internalType": "address",
          "name": "operator",
          "type": "address"
        },
        {
          "indexed": false,
          "internalType": "bool",
          "name": "approved",
          "type": "bool"
        }
      ],
      "name": "ApprovalForAll",
      "type": "event"
    },
    {
      "anonymous": false,
      "inputs": [
        {
          "indexed": false,
          "internalType": "uint256",
          "name": "tokenId",
          "type": "uint256"
        }
      ],
      "name": "GenMinted",
      "type": "event"
    },
    {
      "anonymous": false,
      "inputs": [
        {
          "indexed": false,
          "internalType": "uint256",
          "name": "tokenId",
          "type": "uint256"
        },
        {
          "indexed": false,
          "internalType": "string",
          "name": "newBaseURI",
          "type": "string"
        }
      ],
      "name": "GenUpdated",
      "type": "event"
    },
    {
      "anonymous": false,
      "inputs": [
        {
          "indexed": true,
          "internalType": "address",
          "name": "previousOwner",
          "type": "address"
        },
        {
          "indexed": true,
          "internalType": "address",
          "name": "newOwner",
          "type": "address"
        }
      ],
      "name": "OwnershipTransferred",
      "type": "event"
    },
    {
      "anonymous": false,
      "inputs": [
        {
          "indexed": true,
          "internalType": "address",
          "name": "from",
          "type": "address"
        },
        {
          "indexed": true,
          "internalType": "address",
          "name": "to",
          "type": "address"
        },
        {
          "indexed": true,
          "internalType": "uint256",
          "name": "tokenId",
          "type": "uint256"
        }
      ],
      "name": "Transfer",
      "type": "event"
    },
    {
      "inputs": [],
      "name": "MAX_GENS",
      "outputs": [
        {
          "internalType": "uint256",
          "name": "",
          "type": "uint256"
        }
      ],
      "stateMutability": "view",
      "type": "function"
    },
    {
      "inputs": [
        {
          "internalType": "address",
          "name": "to",
          "type": "address"
        },
        {
          "internalType": "uint256",
          "name": "tokenId",
          "type": "uint256"
        }
      ],
      "name": "approve",
      "outputs": [],
      "stateMutability": "nonpayable",
      "type": "function"
    },
    {
      "inputs": [],
      "name": "arcturiumContract",
      "outputs": [
        {
          "internalType": "address",
          "name": "",
          "type": "address"
        }
      ],
      "stateMutability": "view",
      "type": "function"
    },
    {
      "inputs": [
        {
          "internalType": "address",
          "name": "owner",
          "type": "address"
        }
      ],
      "name": "balanceOf",
      "outputs": [
        {
          "internalType": "uint256",
          "name": "",
          "type": "uint256"
        }
      ],
      "stateMutability": "view",
      "type": "function"
    },
    {
      "inputs": [
        {
          "internalType": "uint256[]",
          "name": "tokenIds",
          "type": "uint256[]"
        }
      ],
      "name": "bioUpgrade",
      "outputs": [],
      "stateMutability": "payable",
      "type": "function"
    },
    {
      "inputs": [],
      "name": "bioUpgradingIsActive",
      "outputs": [
        {
          "internalType": "bool",
          "name": "",
          "type": "bool"
        }
      ],
      "stateMutability": "view",
      "type": "function"
    },
    {
      "inputs": [],
      "name": "currentSeasonalCollectionURI",
      "outputs": [
        {
          "internalType": "string",
          "name": "",
          "type": "string"
        }
      ],
      "stateMutability": "view",
      "type": "function"
    },
    {
      "inputs": [],
      "name": "flipBioUpgradingState",
      "outputs": [],
      "stateMutability": "nonpayable",
      "type": "function"
    },
    {
      "inputs": [],
      "name": "flipMintingState",
      "outputs": [],
      "stateMutability": "nonpayable",
      "type": "function"
    },
    {
      "inputs": [],
      "name": "flipPublicState",
      "outputs": [],
      "stateMutability": "nonpayable",
      "type": "function"
    },
    {
      "inputs": [
        {
          "internalType": "uint256",
          "name": "tokenId",
          "type": "uint256"
        }
      ],
      "name": "getApproved",
      "outputs": [
        {
          "internalType": "address",
          "name": "",
          "type": "address"
        }
      ],
      "stateMutability": "view",
      "type": "function"
    },
    {
      "inputs": [
        {
          "internalType": "address",
          "name": "owner",
          "type": "address"
        },
        {
          "internalType": "address",
          "name": "operator",
          "type": "address"
        }
      ],
      "name": "isApprovedForAll",
      "outputs": [
        {
          "internalType": "bool",
          "name": "",
          "type": "bool"
        }
      ],
      "stateMutability": "view",
      "type": "function"
    },
    {
      "inputs": [
        {
          "internalType": "uint256",
          "name": "tokenId",
          "type": "uint256"
        }
      ],
      "name": "isMinted",
      "outputs": [
        {
          "internalType": "bool",
          "name": "",
          "type": "bool"
        }
      ],
      "stateMutability": "view",
      "type": "function"
    },
    {
      "inputs": [],
      "name": "maxPerMint",
      "outputs": [
        {
          "internalType": "uint256",
          "name": "",
          "type": "uint256"
        }
      ],
      "stateMutability": "view",
      "type": "function"
    },
    {
      "inputs": [
        {
          "internalType": "uint256[]",
          "name": "tokenIds",
          "type": "uint256[]"
        }
      ],
      "name": "mintGen",
      "outputs": [],
      "stateMutability": "nonpayable",
      "type": "function"
    },
    {
      "inputs": [],
      "name": "mintPrice",
      "outputs": [
        {
          "internalType": "uint256",
          "name": "",
          "type": "uint256"
        }
      ],
      "stateMutability": "view",
      "type": "function"
    },
    {
      "inputs": [
        {
          "internalType": "uint256[]",
          "name": "tokenIds",
          "type": "uint256[]"
        }
      ],
      "name": "mintPublicGen",
      "outputs": [],
      "stateMutability": "payable",
      "type": "function"
    },
    {
      "inputs": [],
      "name": "mintingIsActive",
      "outputs": [
        {
          "internalType": "bool",
          "name": "",
          "type": "bool"
        }
      ],
      "stateMutability": "view",
      "type": "function"
    },
    {
      "inputs": [],
      "name": "name",
      "outputs": [
        {
          "internalType": "string",
          "name": "",
          "type": "string"
        }
      ],
      "stateMutability": "view",
      "type": "function"
    },
    {
      "inputs": [],
      "name": "owner",
      "outputs": [
        {
          "internalType": "address",
          "name": "",
          "type": "address"
        }
      ],
      "stateMutability": "view",
      "type": "function"
    },
    {
      "inputs": [
        {
          "internalType": "uint256",
          "name": "tokenId",
          "type": "uint256"
        }
      ],
      "name": "ownerOf",
      "outputs": [
        {
          "internalType": "address",
          "name": "",
          "type": "address"
        }
      ],
      "stateMutability": "view",
      "type": "function"
    },
    {
      "inputs": [],
      "name": "publicIsActive",
      "outputs": [
        {
          "internalType": "bool",
          "name": "",
          "type": "bool"
        }
      ],
      "stateMutability": "view",
      "type": "function"
    },
    {
      "inputs": [],
      "name": "renounceOwnership",
      "outputs": [],
      "stateMutability": "nonpayable",
      "type": "function"
    },
    {
      "inputs": [
        {
          "internalType": "address",
          "name": "from",
          "type": "address"
        },
        {
          "internalType": "address",
          "name": "to",
          "type": "address"
        },
        {
          "internalType": "uint256",
          "name": "tokenId",
          "type": "uint256"
        }
      ],
      "name": "safeTransferFrom",
      "outputs": [],
      "stateMutability": "nonpayable",
      "type": "function"
    },
    {
      "inputs": [
        {
          "internalType": "address",
          "name": "from",
          "type": "address"
        },
        {
          "internalType": "address",
          "name": "to",
          "type": "address"
        },
        {
          "internalType": "uint256",
          "name": "tokenId",
          "type": "uint256"
        },
        {
          "internalType": "bytes",
          "name": "data",
          "type": "bytes"
        }
      ],
      "name": "safeTransferFrom",
      "outputs": [],
      "stateMutability": "nonpayable",
      "type": "function"
    },
    {
      "inputs": [
        {
          "internalType": "address",
          "name": "operator",
          "type": "address"
        },
        {
          "internalType": "bool",
          "name": "approved",
          "type": "bool"
        }
      ],
      "name": "setApprovalForAll",
      "outputs": [],
      "stateMutability": "nonpayable",
      "type": "function"
    },
    {
      "inputs": [
        {
          "internalType": "string",
          "name": "newuri",
          "type": "string"
        }
      ],
      "name": "setCurrentCollectionBaseURI",
      "outputs": [],
      "stateMutability": "nonpayable",
      "type": "function"
    },
    {
      "inputs": [
        {
          "internalType": "uint256",
          "name": "newMax",
          "type": "uint256"
        }
      ],
      "name": "setMintMax",
      "outputs": [],
      "stateMutability": "nonpayable",
      "type": "function"
    },
    {
      "inputs": [
        {
          "internalType": "uint256",
          "name": "newPrice",
          "type": "uint256"
        }
      ],
      "name": "setMintPrice",
      "outputs": [],
      "stateMutability": "nonpayable",
      "type": "function"
    },
    {
      "inputs": [
        {
          "internalType": "bytes4",
          "name": "interfaceId",
          "type": "bytes4"
        }
      ],
      "name": "supportsInterface",
      "outputs": [
        {
          "internalType": "bool",
          "name": "",
          "type": "bool"
        }
      ],
      "stateMutability": "view",
      "type": "function"
    },
    {
      "inputs": [],
      "name": "symbol",
      "outputs": [
        {
          "internalType": "string",
          "name": "",
          "type": "string"
        }
      ],
      "stateMutability": "view",
      "type": "function"
    },
    {
      "inputs": [
        {
          "internalType": "uint256",
          "name": "index",
          "type": "uint256"
        }
      ],
      "name": "tokenByIndex",
      "outputs": [
        {
          "internalType": "uint256",
          "name": "",
          "type": "uint256"
        }
      ],
      "stateMutability": "view",
      "type": "function"
    },
    {
      "inputs": [
        {
          "internalType": "address",
          "name": "owner",
          "type": "address"
        },
        {
          "internalType": "uint256",
          "name": "index",
          "type": "uint256"
        }
      ],
      "name": "tokenOfOwnerByIndex",
      "outputs": [
        {
          "internalType": "uint256",
          "name": "",
          "type": "uint256"
        }
      ],
      "stateMutability": "view",
      "type": "function"
    },
    {
      "inputs": [
        {
          "internalType": "uint256",
          "name": "tokenId",
          "type": "uint256"
        }
      ],
      "name": "tokenURI",
      "outputs": [
        {
          "internalType": "string",
          "name": "",
          "type": "string"
        }
      ],
      "stateMutability": "view",
      "type": "function"
    },
    {
      "inputs": [],
      "name": "totalSupply",
      "outputs": [
        {
          "internalType": "uint256",
          "name": "",
          "type": "uint256"
        }
      ],
      "stateMutability": "view",
      "type": "function"
    },
    {
      "inputs": [
        {
          "internalType": "address",
          "name": "from",
          "type": "address"
        },
        {
          "internalType": "address",
          "name": "to",
          "type": "address"
        },
        {
          "internalType": "uint256",
          "name": "tokenId",
          "type": "uint256"
        }
      ],
      "name": "transferFrom",
      "outputs": [],
      "stateMutability": "nonpayable",
      "type": "function"
    },
    {
      "inputs": [
        {
          "internalType": "address",
          "name": "newOwner",
          "type": "address"
        }
      ],
      "name": "transferOwnership",
      "outputs": [],
      "stateMutability": "nonpayable",
      "type": "function"
    },
    {
      "inputs": [],
      "name": "withdraw",
      "outputs": [],
      "stateMutability": "nonpayable",
      "type": "function"
    }
  ],
  "bytecode": "0x60806040526064600b556000600c60006101000a81548160ff0219169083151502179055506000600c60016101000a81548160ff0219169083151502179055506000600c60026101000a81548160ff0219169083151502179055506000600e55734b396f08cda12a9f6c0cd9cbab6bdfa06585077b601160006101000a81548173ffffffffffffffffffffffffffffffffffffffff021916908373ffffffffffffffffffffffffffffffffffffffff160217905550348015620000c157600080fd5b5060405162005416380380620054168339818101604052810190620000e79190620004e2565b6040518060400160405280600381526020017f47656e00000000000000000000000000000000000000000000000000000000008152506040518060400160405280600381526020017f47656e000000000000000000000000000000000000000000000000000000000081525081600090805190602001906200016b92919062000295565b5080600190805190602001906200018492919062000295565b505050620001a76200019b620001c760201b60201c565b620001cf60201b60201c565b80600d9080519060200190620001bf92919062000295565b505062000598565b600033905090565b6000600a60009054906101000a900473ffffffffffffffffffffffffffffffffffffffff16905081600a60006101000a81548173ffffffffffffffffffffffffffffffffffffffff021916908373ffffffffffffffffffffffffffffffffffffffff1602179055508173ffffffffffffffffffffffffffffffffffffffff168173ffffffffffffffffffffffffffffffffffffffff167f8be0079c531659141344cd1fd0a4f28419497f9722a3daafe3b4186f6b6457e060405160405180910390a35050565b828054620002a39062000562565b90600052602060002090601f016020900481019282620002c7576000855562000313565b82601f10620002e257805160ff191683800117855562000313565b8280016001018555821562000313579182015b8281111562000312578251825591602001919060010190620002f5565b5b50905062000322919062000326565b5090565b5b808211156200034157600081600090555060010162000327565b5090565b6000604051905090565b600080fd5b600080fd5b600080fd5b600080fd5b6000601f19601f8301169050919050565b7f4e487b7100000000000000000000000000000000000000000000000000000000600052604160045260246000fd5b620003ae8262000363565b810181811067ffffffffffffffff82111715620003d057620003cf62000374565b5b80604052505050565b6000620003e562000345565b9050620003f38282620003a3565b919050565b600067ffffffffffffffff82111562000416576200041562000374565b5b620004218262000363565b9050602081019050919050565b60005b838110156200044e57808201518184015260208101905062000431565b838111156200045e576000848401525b50505050565b60006200047b6200047584620003f8565b620003d9565b9050828152602081018484840111156200049a57620004996200035e565b5b620004a78482856200042e565b509392505050565b600082601f830112620004c757620004c662000359565b5b8151620004d984826020860162000464565b91505092915050565b600060208284031215620004fb57620004fa6200034f565b5b600082015167ffffffffffffffff8111156200051c576200051b62000354565b5b6200052a84828501620004af565b91505092915050565b7f4e487b7100000000000000000000000000000000000000000000000000000000600052602260045260246000fd5b600060028204905060018216806200057b57607f821691505b6020821081141562000592576200059162000533565b5b50919050565b614e6e80620005a86000396000f3fe6080604052600436106102255760003560e01c806370a0823111610123578063afc3cb49116100ab578063ec9b08f11161006f578063ec9b08f1146107d9578063f2fde38b14610804578063f4a0a5281461082d578063f655ff2214610856578063f7eb17cc1461086d57610225565b8063afc3cb49146106f1578063b88d4fde1461071a578063c87b56dd14610743578063d99bcbd814610780578063e985e9c51461079c57610225565b8063882b1808116100f2578063882b1808146106305780638da5cb5b1461064757806395d89b4114610672578063a216a49d1461069d578063a22cb465146106c857610225565b806370a082311461059c578063715018a6146105d95780637efd1a68146105f057806387683a471461060757610225565b806333c41a90116101b15780634f6ccce7116101755780634f6ccce7146104a3578063507e094f146104e05780635a504e741461050b5780636352211e146105345780636817c76c1461057157610225565b806333c41a90146103d057806333cc4c291461040d5780633ccfd60b1461043857806342842e0e1461044f5780634728b9f41461047857610225565b8063095ea7b3116101f8578063095ea7b3146102fa57806318160ddd146103235780631e2a23c01461034e57806323b872dd1461036a5780632f745c591461039357610225565b806301ffc9a71461022a578063033a02d61461026757806306fdde0314610292578063081812fc146102bd575b600080fd5b34801561023657600080fd5b50610251600480360381019061024c919061321f565b610898565b60405161025e9190613267565b60405180910390f35b34801561027357600080fd5b5061027c6108aa565b6040516102899190613267565b60405180910390f35b34801561029e57600080fd5b506102a76108bd565b6040516102b4919061331b565b60405180910390f35b3480156102c957600080fd5b506102e460048036038101906102df9190613373565b61094f565b6040516102f191906133e1565b60405180910390f35b34801561030657600080fd5b50610321600480360381019061031c9190613428565b610995565b005b34801561032f57600080fd5b50610338610aad565b6040516103459190613477565b60405180910390f35b610368600480360381019061036391906135da565b610aba565b005b34801561037657600080fd5b50610391600480360381019061038c9190613623565b610d59565b005b34801561039f57600080fd5b506103ba60048036038101906103b59190613428565b610db9565b6040516103c79190613477565b60405180910390f35b3480156103dc57600080fd5b506103f760048036038101906103f29190613373565b610e5e565b6040516104049190613267565b60405180910390f35b34801561041957600080fd5b50610422610e70565b60405161042f919061331b565b60405180910390f35b34801561044457600080fd5b5061044d610efe565b005b34801561045b57600080fd5b5061047660048036038101906104719190613623565b610f5b565b005b34801561048457600080fd5b5061048d610f7b565b60405161049a9190613267565b60405180910390f35b3480156104af57600080fd5b506104ca60048036038101906104c59190613373565b610f8e565b6040516104d79190613477565b60405180910390f35b3480156104ec57600080fd5b506104f5610fff565b6040516105029190613477565b60405180910390f35b34801561051757600080fd5b50610532600480360381019061052d919061372b565b611005565b005b34801561054057600080fd5b5061055b60048036038101906105569190613373565b611027565b60405161056891906133e1565b60405180910390f35b34801561057d57600080fd5b506105866110d9565b6040516105939190613477565b60405180910390f35b3480156105a857600080fd5b506105c360048036038101906105be9190613774565b6110df565b6040516105d09190613477565b60405180910390f35b3480156105e557600080fd5b506105ee611197565b005b3480156105fc57600080fd5b506106056111ab565b005b34801561061357600080fd5b5061062e600480360381019061062991906135da565b6111df565b005b34801561063c57600080fd5b5061064561152b565b005b34801561065357600080fd5b5061065c61155f565b60405161066991906133e1565b60405180910390f35b34801561067e57600080fd5b50610687611589565b604051610694919061331b565b60405180910390f35b3480156106a957600080fd5b506106b261161b565b6040516106bf9190613267565b60405180910390f35b3480156106d457600080fd5b506106ef60048036038101906106ea91906137cd565b61162e565b005b3480156106fd57600080fd5b5061071860048036038101906107139190613373565b611644565b005b34801561072657600080fd5b50610741600480360381019061073c91906138ae565b611656565b005b34801561074f57600080fd5b5061076a60048036038101906107659190613373565b6116b8565b604051610777919061331b565b60405180910390f35b61079a600480360381019061079591906135da565b6117d4565b005b3480156107a857600080fd5b506107c360048036038101906107be9190613931565b611a40565b6040516107d09190613267565b60405180910390f35b3480156107e557600080fd5b506107ee611ad4565b6040516107fb91906133e1565b60405180910390f35b34801561081057600080fd5b5061082b60048036038101906108269190613774565b611afa565b005b34801561083957600080fd5b50610854600480360381019061084f9190613373565b611b7e565b005b34801561086257600080fd5b5061086b611b90565b005b34801561087957600080fd5b50610882611bc4565b60405161088f9190613477565b60405180910390f35b60006108a382611bca565b9050919050565b600c60029054906101000a900460ff1681565b6060600080546108cc906139a0565b80601f01602080910402602001604051908101604052809291908181526020018280546108f8906139a0565b80156109455780601f1061091a57610100808354040283529160200191610945565b820191906000526020600020905b81548152906001019060200180831161092857829003601f168201915b5050505050905090565b600061095a82611c44565b6004600083815260200190815260200160002060009054906101000a900473ffffffffffffffffffffffffffffffffffffffff169050919050565b60006109a082611027565b90508073ffffffffffffffffffffffffffffffffffffffff168373ffffffffffffffffffffffffffffffffffffffff161415610a11576040517f08c379a0000000000000000000000000000000000000000000000000000000008152600401610a0890613a44565b60405180910390fd5b8073ffffffffffffffffffffffffffffffffffffffff16610a30611c8f565b73ffffffffffffffffffffffffffffffffffffffff161480610a5f5750610a5e81610a59611c8f565b611a40565b5b610a9e576040517f08c379a0000000000000000000000000000000000000000000000000000000008152600401610a9590613ad6565b60405180910390fd5b610aa88383611c97565b505050565b6000600880549050905090565b600c60019054906101000a900460ff16610b09576040517f08c379a0000000000000000000000000000000000000000000000000000000008152600401610b0090613b68565b60405180910390fd5b34600e548251610b199190613bb7565b14610b59576040517f08c379a0000000000000000000000000000000000000000000000000000000008152600401610b5090613c5d565b60405180910390fd5b60005b8151811015610c3c573373ffffffffffffffffffffffffffffffffffffffff16610b9f838381518110610b9257610b91613c7d565b5b6020026020010151611027565b73ffffffffffffffffffffffffffffffffffffffff16141580610be25750610be0828281518110610bd357610bd2613c7d565b5b6020026020010151611d50565b155b15610c29576000610c28576040517f08c379a0000000000000000000000000000000000000000000000000000000008152600401610c1f90613d1e565b60405180910390fd5b5b8080610c3490613d3e565b915050610b5c565b5060005b8151811015610d5557611770828281518110610c5f57610c5e613c7d565b5b602002602001015110610ca7576040517f08c379a0000000000000000000000000000000000000000000000000000000008152600401610c9e90613df9565b60405180910390fd5b600d60106000848481518110610cc057610cbf613c7d565b5b60200260200101518152602001908152602001600020908054610ce2906139a0565b610ced929190613083565b507f266bc8906175770d5acdb15c764e656bc33c059f4339d709a51e95be76c6bc76828281518110610d2257610d21613c7d565b5b6020026020010151600d604051610d3a929190613eae565b60405180910390a18080610d4d90613d3e565b915050610c40565b5050565b610d6a610d64611c8f565b82611dbc565b610da9576040517f08c379a0000000000000000000000000000000000000000000000000000000008152600401610da090613f50565b60405180910390fd5b610db4838383611e51565b505050565b6000610dc4836110df565b8210610e05576040517f08c379a0000000000000000000000000000000000000000000000000000000008152600401610dfc90613fe2565b60405180910390fd5b600660008473ffffffffffffffffffffffffffffffffffffffff1673ffffffffffffffffffffffffffffffffffffffff168152602001908152602001600020600083815260200190815260200160002054905092915050565b6000610e6982611d50565b9050919050565b600d8054610e7d906139a0565b80601f0160208091040260200160405190810160405280929190818152602001828054610ea9906139a0565b8015610ef65780601f10610ecb57610100808354040283529160200191610ef6565b820191906000526020600020905b815481529060010190602001808311610ed957829003601f168201915b505050505081565b610f066120b8565b60004711610f49576040517f08c379a0000000000000000000000000000000000000000000000000000000008152600401610f409061404e565b60405180910390fd5b6000479050610f583382612136565b50565b610f7683838360405180602001604052806000815250611656565b505050565b600c60009054906101000a900460ff1681565b6000610f98610aad565b8210610fd9576040517f08c379a0000000000000000000000000000000000000000000000000000000008152600401610fd0906140e0565b60405180910390fd5b60088281548110610fed57610fec613c7d565b5b90600052602060002001549050919050565b600b5481565b61100d6120b8565b80600d9080519060200190611023929190613110565b5050565b6000806002600084815260200190815260200160002060009054906101000a900473ffffffffffffffffffffffffffffffffffffffff169050600073ffffffffffffffffffffffffffffffffffffffff168173ffffffffffffffffffffffffffffffffffffffff1614156110d0576040517f08c379a00000000000000000000000000000000000000000000000000000000081526004016110c79061414c565b60405180910390fd5b80915050919050565b600e5481565b60008073ffffffffffffffffffffffffffffffffffffffff168273ffffffffffffffffffffffffffffffffffffffff161415611150576040517f08c379a0000000000000000000000000000000000000000000000000000000008152600401611147906141de565b60405180910390fd5b600360008373ffffffffffffffffffffffffffffffffffffffff1673ffffffffffffffffffffffffffffffffffffffff168152602001908152602001600020549050919050565b61119f6120b8565b6111a9600061222a565b565b6111b36120b8565b600c60019054906101000a900460ff1615600c60016101000a81548160ff021916908315150217905550565b600b5481511115611225576040517f08c379a000000000000000000000000000000000000000000000000000000000815260040161121c90614270565b60405180910390fd5b600c60009054906101000a900460ff16611274576040517f08c379a000000000000000000000000000000000000000000000000000000000815260040161126b90614302565b60405180910390fd5b6117708151611281610aad565b61128b9190614322565b11156112cc576040517f08c379a00000000000000000000000000000000000000000000000000000000081526004016112c3906143ea565b60405180910390fd5b6000601160009054906101000a900473ffffffffffffffffffffffffffffffffffffffff16905060005b8251811015611484573373ffffffffffffffffffffffffffffffffffffffff168273ffffffffffffffffffffffffffffffffffffffff16636352211e85848151811061134557611344613c7d565b5b60200260200101516040518263ffffffff1660e01b81526004016113699190613477565b602060405180830381865afa158015611386573d6000803e3d6000fd5b505050506040513d601f19601f820116820180604052508101906113aa919061441f565b73ffffffffffffffffffffffffffffffffffffffff1614611407576000611406576040517f08c379a00000000000000000000000000000000000000000000000000000000081526004016113fd906144be565b60405180910390fd5b5b61142a83828151811061141d5761141c613c7d565b5b6020026020010151611d50565b15611471576000611470576040517f08c379a00000000000000000000000000000000000000000000000000000000081526004016114679061452a565b60405180910390fd5b5b808061147c90613d3e565b9150506112f6565b5060005b8251811015611526576117708382815181106114a7576114a6613c7d565b5b6020026020010151106114ef576040517f08c379a00000000000000000000000000000000000000000000000000000000081526004016114e690613df9565b60405180910390fd5b6115133384838151811061150657611505613c7d565b5b60200260200101516122f0565b808061151e90613d3e565b915050611488565b505050565b6115336120b8565b600c60029054906101000a900460ff1615600c60026101000a81548160ff021916908315150217905550565b6000600a60009054906101000a900473ffffffffffffffffffffffffffffffffffffffff16905090565b606060018054611598906139a0565b80601f01602080910402602001604051908101604052809291908181526020018280546115c4906139a0565b80156116115780601f106115e657610100808354040283529160200191611611565b820191906000526020600020905b8154815290600101906020018083116115f457829003601f168201915b5050505050905090565b600c60019054906101000a900460ff1681565b611640611639611c8f565b83836123db565b5050565b61164c6120b8565b80600b8190555050565b611667611661611c8f565b83611dbc565b6116a6576040517f08c379a000000000000000000000000000000000000000000000000000000000815260040161169d90613f50565b60405180910390fd5b6116b284848484612548565b50505050565b60606116c382611d50565b611702576040517f08c379a00000000000000000000000000000000000000000000000000000000081526004016116f9906145bc565b60405180910390fd5b6000601060008481526020019081526020016000208054611722906139a0565b80601f016020809104026020016040519081016040528092919081815260200182805461174e906139a0565b801561179b5780601f106117705761010080835404028352916020019161179b565b820191906000526020600020905b81548152906001019060200180831161177e57829003601f168201915b50505050509050806117ac846125a4565b6040516020016117bd929190614664565b604051602081830303815290604052915050919050565b600b548151111561181a576040517f08c379a000000000000000000000000000000000000000000000000000000000815260040161181190614270565b60405180910390fd5b600c60029054906101000a900460ff16611869576040517f08c379a000000000000000000000000000000000000000000000000000000000815260040161186090614705565b60405180910390fd5b6117708151611876610aad565b6118809190614322565b11156118c1576040517f08c379a00000000000000000000000000000000000000000000000000000000081526004016118b8906143ea565b60405180910390fd5b34600e5482516118d19190613bb7565b14611911576040517f08c379a000000000000000000000000000000000000000000000000000000000815260040161190890613c5d565b60405180910390fd5b60005b815181101561199a5761194082828151811061193357611932613c7d565b5b6020026020010151611d50565b15611987576000611986576040517f08c379a000000000000000000000000000000000000000000000000000000000815260040161197d9061452a565b60405180910390fd5b5b808061199290613d3e565b915050611914565b5060005b8151811015611a3c576117708282815181106119bd576119bc613c7d565b5b602002602001015110611a05576040517f08c379a00000000000000000000000000000000000000000000000000000000081526004016119fc90613df9565b60405180910390fd5b611a2933838381518110611a1c57611a1b613c7d565b5b60200260200101516122f0565b8080611a3490613d3e565b91505061199e565b5050565b6000600560008473ffffffffffffffffffffffffffffffffffffffff1673ffffffffffffffffffffffffffffffffffffffff16815260200190815260200160002060008373ffffffffffffffffffffffffffffffffffffffff1673ffffffffffffffffffffffffffffffffffffffff16815260200190815260200160002060009054906101000a900460ff16905092915050565b601160009054906101000a900473ffffffffffffffffffffffffffffffffffffffff1681565b611b026120b8565b600073ffffffffffffffffffffffffffffffffffffffff168173ffffffffffffffffffffffffffffffffffffffff161415611b72576040517f08c379a0000000000000000000000000000000000000000000000000000000008152600401611b6990614797565b60405180910390fd5b611b7b8161222a565b50565b611b866120b8565b80600e8190555050565b611b986120b8565b600c60009054906101000a900460ff1615600c60006101000a81548160ff021916908315150217905550565b61177081565b60007f780e9d63000000000000000000000000000000000000000000000000000000007bffffffffffffffffffffffffffffffffffffffffffffffffffffffff1916827bffffffffffffffffffffffffffffffffffffffffffffffffffffffff19161480611c3d5750611c3c82612705565b5b9050919050565b611c4d81611d50565b611c8c576040517f08c379a0000000000000000000000000000000000000000000000000000000008152600401611c839061414c565b60405180910390fd5b50565b600033905090565b816004600083815260200190815260200160002060006101000a81548173ffffffffffffffffffffffffffffffffffffffff021916908373ffffffffffffffffffffffffffffffffffffffff160217905550808273ffffffffffffffffffffffffffffffffffffffff16611d0a83611027565b73ffffffffffffffffffffffffffffffffffffffff167f8c5be1e5ebec7d5bd14f71427d1e84f3dd0314c0f7b2291e5b200ac8c7c3b92560405160405180910390a45050565b60008073ffffffffffffffffffffffffffffffffffffffff166002600084815260200190815260200160002060009054906101000a900473ffffffffffffffffffffffffffffffffffffffff1673ffffffffffffffffffffffffffffffffffffffff1614159050919050565b600080611dc883611027565b90508073ffffffffffffffffffffffffffffffffffffffff168473ffffffffffffffffffffffffffffffffffffffff161480611e0a5750611e098185611a40565b5b80611e4857508373ffffffffffffffffffffffffffffffffffffffff16611e308461094f565b73ffffffffffffffffffffffffffffffffffffffff16145b91505092915050565b8273ffffffffffffffffffffffffffffffffffffffff16611e7182611027565b73ffffffffffffffffffffffffffffffffffffffff1614611ec7576040517f08c379a0000000000000000000000000000000000000000000000000000000008152600401611ebe90614829565b60405180910390fd5b600073ffffffffffffffffffffffffffffffffffffffff168273ffffffffffffffffffffffffffffffffffffffff161415611f37576040517f08c379a0000000000000000000000000000000000000000000000000000000008152600401611f2e906148bb565b60405180910390fd5b611f428383836127e7565b611f4d600082611c97565b6001600360008573ffffffffffffffffffffffffffffffffffffffff1673ffffffffffffffffffffffffffffffffffffffff1681526020019081526020016000206000828254611f9d91906148db565b925050819055506001600360008473ffffffffffffffffffffffffffffffffffffffff1673ffffffffffffffffffffffffffffffffffffffff1681526020019081526020016000206000828254611ff49190614322565b92505081905550816002600083815260200190815260200160002060006101000a81548173ffffffffffffffffffffffffffffffffffffffff021916908373ffffffffffffffffffffffffffffffffffffffff160217905550808273ffffffffffffffffffffffffffffffffffffffff168473ffffffffffffffffffffffffffffffffffffffff167fddf252ad1be2c89b69c2b068fc378daa952ba7f163c4a11628f55a4df523b3ef60405160405180910390a46120b38383836127f7565b505050565b6120c0611c8f565b73ffffffffffffffffffffffffffffffffffffffff166120de61155f565b73ffffffffffffffffffffffffffffffffffffffff1614612134576040517f08c379a000000000000000000000000000000000000000000000000000000000815260040161212b9061495b565b60405180910390fd5b565b80471015612179576040517f08c379a0000000000000000000000000000000000000000000000000000000008152600401612170906149c7565b60405180910390fd5b60008273ffffffffffffffffffffffffffffffffffffffff168260405161219f90614a18565b60006040518083038185875af1925050503d80600081146121dc576040519150601f19603f3d011682016040523d82523d6000602084013e6121e1565b606091505b5050905080612225576040517f08c379a000000000000000000000000000000000000000000000000000000000815260040161221c90614a9f565b60405180910390fd5b505050565b6000600a60009054906101000a900473ffffffffffffffffffffffffffffffffffffffff16905081600a60006101000a81548173ffffffffffffffffffffffffffffffffffffffff021916908373ffffffffffffffffffffffffffffffffffffffff1602179055508173ffffffffffffffffffffffffffffffffffffffff168173ffffffffffffffffffffffffffffffffffffffff167f8be0079c531659141344cd1fd0a4f28419497f9722a3daafe3b4186f6b6457e060405160405180910390a35050565b61177081108015612307575061230581611d50565b155b8015612337575060001515600f600083815260200190815260200160002060009054906101000a900460ff161515145b156123d75761234682826127fc565b6001600f600083815260200190815260200160002060006101000a81548160ff021916908315150217905550600d60106000838152602001908152602001600020908054612393906139a0565b61239e929190613083565b507f6be8115b43ea74bc93c32e35adc4fa01662a2a5eeac8b816d75a3980a8423904816040516123ce9190613477565b60405180910390a15b5050565b8173ffffffffffffffffffffffffffffffffffffffff168373ffffffffffffffffffffffffffffffffffffffff16141561244a576040517f08c379a000000000000000000000000000000000000000000000000000000000815260040161244190614b0b565b60405180910390fd5b80600560008573ffffffffffffffffffffffffffffffffffffffff1673ffffffffffffffffffffffffffffffffffffffff16815260200190815260200160002060008473ffffffffffffffffffffffffffffffffffffffff1673ffffffffffffffffffffffffffffffffffffffff16815260200190815260200160002060006101000a81548160ff0219169083151502179055508173ffffffffffffffffffffffffffffffffffffffff168373ffffffffffffffffffffffffffffffffffffffff167f17307eab39ab6107e8899845ad3d59bd9653f200f220920489ca2b5937696c318360405161253b9190613267565b60405180910390a3505050565b612553848484611e51565b61255f8484848461281a565b61259e576040517f08c379a000000000000000000000000000000000000000000000000000000000815260040161259590614b9d565b60405180910390fd5b50505050565b606060008214156125ec576040518060400160405280600181526020017f30000000000000000000000000000000000000000000000000000000000000008152509050612700565b600082905060005b6000821461261e57808061260790613d3e565b915050600a826126179190614bec565b91506125f4565b60008167ffffffffffffffff81111561263a57612639613497565b5b6040519080825280601f01601f19166020018201604052801561266c5781602001600182028036833780820191505090505b5090505b600085146126f95760018261268591906148db565b9150600a856126949190614c1d565b60306126a09190614322565b60f81b8183815181106126b6576126b5613c7d565b5b60200101907effffffffffffffffffffffffffffffffffffffffffffffffffffffffffffff1916908160001a905350600a856126f29190614bec565b9450612670565b8093505050505b919050565b60007f80ac58cd000000000000000000000000000000000000000000000000000000007bffffffffffffffffffffffffffffffffffffffffffffffffffffffff1916827bffffffffffffffffffffffffffffffffffffffffffffffffffffffff191614806127d057507f5b5e139f000000000000000000000000000000000000000000000000000000007bffffffffffffffffffffffffffffffffffffffffffffffffffffffff1916827bffffffffffffffffffffffffffffffffffffffffffffffffffffffff1916145b806127e057506127df826129a2565b5b9050919050565b6127f2838383612a0c565b505050565b505050565b612816828260405180602001604052806000815250612b20565b5050565b600061283b8473ffffffffffffffffffffffffffffffffffffffff16612b7b565b15612995578373ffffffffffffffffffffffffffffffffffffffff1663150b7a02612864611c8f565b8786866040518563ffffffff1660e01b81526004016128869493929190614ca3565b6020604051808303816000875af19250505080156128c257506040513d601f19601f820116820180604052508101906128bf9190614d04565b60015b612945573d80600081146128f2576040519150601f19603f3d011682016040523d82523d6000602084013e6128f7565b606091505b5060008151141561293d576040517f08c379a000000000000000000000000000000000000000000000000000000000815260040161293490614b9d565b60405180910390fd5b805181602001fd5b63150b7a0260e01b7bffffffffffffffffffffffffffffffffffffffffffffffffffffffff1916817bffffffffffffffffffffffffffffffffffffffffffffffffffffffff19161491505061299a565b600190505b949350505050565b60007f01ffc9a7000000000000000000000000000000000000000000000000000000007bffffffffffffffffffffffffffffffffffffffffffffffffffffffff1916827bffffffffffffffffffffffffffffffffffffffffffffffffffffffff1916149050919050565b612a17838383612b9e565b600073ffffffffffffffffffffffffffffffffffffffff168373ffffffffffffffffffffffffffffffffffffffff161415612a5a57612a5581612ba3565b612a99565b8173ffffffffffffffffffffffffffffffffffffffff168373ffffffffffffffffffffffffffffffffffffffff1614612a9857612a978382612bec565b5b5b600073ffffffffffffffffffffffffffffffffffffffff168273ffffffffffffffffffffffffffffffffffffffff161415612adc57612ad781612d59565b612b1b565b8273ffffffffffffffffffffffffffffffffffffffff168273ffffffffffffffffffffffffffffffffffffffff1614612b1a57612b198282612e2a565b5b5b505050565b612b2a8383612ea9565b612b37600084848461281a565b612b76576040517f08c379a0000000000000000000000000000000000000000000000000000000008152600401612b6d90614b9d565b60405180910390fd5b505050565b6000808273ffffffffffffffffffffffffffffffffffffffff163b119050919050565b505050565b6008805490506009600083815260200190815260200160002081905550600881908060018154018082558091505060019003906000526020600020016000909190919091505550565b60006001612bf9846110df565b612c0391906148db565b9050600060076000848152602001908152602001600020549050818114612ce8576000600660008673ffffffffffffffffffffffffffffffffffffffff1673ffffffffffffffffffffffffffffffffffffffff168152602001908152602001600020600084815260200190815260200160002054905080600660008773ffffffffffffffffffffffffffffffffffffffff1673ffffffffffffffffffffffffffffffffffffffff168152602001908152602001600020600084815260200190815260200160002081905550816007600083815260200190815260200160002081905550505b6007600084815260200190815260200160002060009055600660008573ffffffffffffffffffffffffffffffffffffffff1673ffffffffffffffffffffffffffffffffffffffff16815260200190815260200160002060008381526020019081526020016000206000905550505050565b60006001600880549050612d6d91906148db565b9050600060096000848152602001908152602001600020549050600060088381548110612d9d57612d9c613c7d565b5b906000526020600020015490508060088381548110612dbf57612dbe613c7d565b5b906000526020600020018190555081600960008381526020019081526020016000208190555060096000858152602001908152602001600020600090556008805480612e0e57612e0d614d31565b5b6001900381819060005260206000200160009055905550505050565b6000612e35836110df565b905081600660008573ffffffffffffffffffffffffffffffffffffffff1673ffffffffffffffffffffffffffffffffffffffff168152602001908152602001600020600083815260200190815260200160002081905550806007600084815260200190815260200160002081905550505050565b600073ffffffffffffffffffffffffffffffffffffffff168273ffffffffffffffffffffffffffffffffffffffff161415612f19576040517f08c379a0000000000000000000000000000000000000000000000000000000008152600401612f1090614dac565b60405180910390fd5b612f2281611d50565b15612f62576040517f08c379a0000000000000000000000000000000000000000000000000000000008152600401612f5990614e18565b60405180910390fd5b612f6e600083836127e7565b6001600360008473ffffffffffffffffffffffffffffffffffffffff1673ffffffffffffffffffffffffffffffffffffffff1681526020019081526020016000206000828254612fbe9190614322565b92505081905550816002600083815260200190815260200160002060006101000a81548173ffffffffffffffffffffffffffffffffffffffff021916908373ffffffffffffffffffffffffffffffffffffffff160217905550808273ffffffffffffffffffffffffffffffffffffffff16600073ffffffffffffffffffffffffffffffffffffffff167fddf252ad1be2c89b69c2b068fc378daa952ba7f163c4a11628f55a4df523b3ef60405160405180910390a461307f600083836127f7565b5050565b82805461308f906139a0565b90600052602060002090601f0160209004810192826130b157600085556130ff565b82601f106130c257805485556130ff565b828001600101855582156130ff57600052602060002091601f016020900482015b828111156130fe5782548255916001019190600101906130e3565b5b50905061310c9190613196565b5090565b82805461311c906139a0565b90600052602060002090601f01602090048101928261313e5760008555613185565b82601f1061315757805160ff1916838001178555613185565b82800160010185558215613185579182015b82811115613184578251825591602001919060010190613169565b5b5090506131929190613196565b5090565b5b808211156131af576000816000905550600101613197565b5090565b6000604051905090565b600080fd5b600080fd5b60007fffffffff0000000000000000000000000000000000000000000000000000000082169050919050565b6131fc816131c7565b811461320757600080fd5b50565b600081359050613219816131f3565b92915050565b600060208284031215613235576132346131bd565b5b60006132438482850161320a565b91505092915050565b60008115159050919050565b6132618161324c565b82525050565b600060208201905061327c6000830184613258565b92915050565b600081519050919050565b600082825260208201905092915050565b60005b838110156132bc5780820151818401526020810190506132a1565b838111156132cb576000848401525b50505050565b6000601f19601f8301169050919050565b60006132ed82613282565b6132f7818561328d565b935061330781856020860161329e565b613310816132d1565b840191505092915050565b6000602082019050818103600083015261333581846132e2565b905092915050565b6000819050919050565b6133508161333d565b811461335b57600080fd5b50565b60008135905061336d81613347565b92915050565b600060208284031215613389576133886131bd565b5b60006133978482850161335e565b91505092915050565b600073ffffffffffffffffffffffffffffffffffffffff82169050919050565b60006133cb826133a0565b9050919050565b6133db816133c0565b82525050565b60006020820190506133f660008301846133d2565b92915050565b613405816133c0565b811461341057600080fd5b50565b600081359050613422816133fc565b92915050565b6000806040838503121561343f5761343e6131bd565b5b600061344d85828601613413565b925050602061345e8582860161335e565b9150509250929050565b6134718161333d565b82525050565b600060208201905061348c6000830184613468565b92915050565b600080fd5b7f4e487b7100000000000000000000000000000000000000000000000000000000600052604160045260246000fd5b6134cf826132d1565b810181811067ffffffffffffffff821117156134ee576134ed613497565b5b80604052505050565b60006135016131b3565b905061350d82826134c6565b919050565b600067ffffffffffffffff82111561352d5761352c613497565b5b602082029050602081019050919050565b600080fd5b600061355661355184613512565b6134f7565b905080838252602082019050602084028301858111156135795761357861353e565b5b835b818110156135a2578061358e888261335e565b84526020840193505060208101905061357b565b5050509392505050565b600082601f8301126135c1576135c0613492565b5b81356135d1848260208601613543565b91505092915050565b6000602082840312156135f0576135ef6131bd565b5b600082013567ffffffffffffffff81111561360e5761360d6131c2565b5b61361a848285016135ac565b91505092915050565b60008060006060848603121561363c5761363b6131bd565b5b600061364a86828701613413565b935050602061365b86828701613413565b925050604061366c8682870161335e565b9150509250925092565b600080fd5b600067ffffffffffffffff82111561369657613695613497565b5b61369f826132d1565b9050602081019050919050565b82818337600083830152505050565b60006136ce6136c98461367b565b6134f7565b9050828152602081018484840111156136ea576136e9613676565b5b6136f58482856136ac565b509392505050565b600082601f83011261371257613711613492565b5b81356137228482602086016136bb565b91505092915050565b600060208284031215613741576137406131bd565b5b600082013567ffffffffffffffff81111561375f5761375e6131c2565b5b61376b848285016136fd565b91505092915050565b60006020828403121561378a576137896131bd565b5b600061379884828501613413565b91505092915050565b6137aa8161324c565b81146137b557600080fd5b50565b6000813590506137c7816137a1565b92915050565b600080604083850312156137e4576137e36131bd565b5b60006137f285828601613413565b9250506020613803858286016137b8565b9150509250929050565b600067ffffffffffffffff82111561382857613827613497565b5b613831826132d1565b9050602081019050919050565b600061385161384c8461380d565b6134f7565b90508281526020810184848401111561386d5761386c613676565b5b6138788482856136ac565b509392505050565b600082601f83011261389557613894613492565b5b81356138a584826020860161383e565b91505092915050565b600080600080608085870312156138c8576138c76131bd565b5b60006138d687828801613413565b94505060206138e787828801613413565b93505060406138f88782880161335e565b925050606085013567ffffffffffffffff811115613919576139186131c2565b5b61392587828801613880565b91505092959194509250565b60008060408385031215613948576139476131bd565b5b600061395685828601613413565b925050602061396785828601613413565b9150509250929050565b7f4e487b7100000000000000000000000000000000000000000000000000000000600052602260045260246000fd5b600060028204905060018216806139b857607f821691505b602082108114156139cc576139cb613971565b5b50919050565b7f4552433732313a20617070726f76616c20746f2063757272656e74206f776e6560008201527f7200000000000000000000000000000000000000000000000000000000000000602082015250565b6000613a2e60218361328d565b9150613a39826139d2565b604082019050919050565b60006020820190508181036000830152613a5d81613a21565b9050919050565b7f4552433732313a20617070726f76652063616c6c6572206973206e6f7420746f60008201527f6b656e206f776e6572206e6f7220617070726f76656420666f7220616c6c0000602082015250565b6000613ac0603e8361328d565b9150613acb82613a64565b604082019050919050565b60006020820190508181036000830152613aef81613ab3565b9050919050565b7f42696f557067726164696e67206d7573742062652061637469766520746f206360008201527f68616e676520736561736f6e0000000000000000000000000000000000000000602082015250565b6000613b52602c8361328d565b9150613b5d82613af6565b604082019050919050565b60006020820190508181036000830152613b8181613b45565b9050919050565b7f4e487b7100000000000000000000000000000000000000000000000000000000600052601160045260246000fd5b6000613bc28261333d565b9150613bcd8361333d565b9250817fffffffffffffffffffffffffffffffffffffffffffffffffffffffffffffffff0483118215151615613c0657613c05613b88565b5b828202905092915050565b7f45746865722076616c75652073656e74206973206e6f7420636f727265637400600082015250565b6000613c47601f8361328d565b9150613c5282613c11565b602082019050919050565b60006020820190508181036000830152613c7681613c3a565b9050919050565b7f4e487b7100000000000000000000000000000000000000000000000000000000600052603260045260246000fd5b7f547279696e6720746f2042696f2055706772616465206e6f6e2065786973746960008201527f6e672f6e6f74206f776e65642047656e00000000000000000000000000000000602082015250565b6000613d0860308361328d565b9150613d1382613cac565b604082019050919050565b60006020820190508181036000830152613d3781613cfb565b9050919050565b6000613d498261333d565b91507fffffffffffffffffffffffffffffffffffffffffffffffffffffffffffffffff821415613d7c57613d7b613b88565b5b600182019050919050565b7f546f6b656e494420776f756c6420657863656564206d617820737570706c792060008201527f6f662047656e3000000000000000000000000000000000000000000000000000602082015250565b6000613de360278361328d565b9150613dee82613d87565b604082019050919050565b60006020820190508181036000830152613e1281613dd6565b9050919050565b60008190508160005260206000209050919050565b60008154613e3b816139a0565b613e45818661328d565b94506001821660008114613e605760018114613e7257613ea5565b60ff1983168652602086019350613ea5565b613e7b85613e19565b60005b83811015613e9d57815481890152600182019150602081019050613e7e565b808801955050505b50505092915050565b6000604082019050613ec36000830185613468565b8181036020830152613ed58184613e2e565b90509392505050565b7f4552433732313a2063616c6c6572206973206e6f7420746f6b656e206f776e6560008201527f72206e6f7220617070726f766564000000000000000000000000000000000000602082015250565b6000613f3a602e8361328d565b9150613f4582613ede565b604082019050919050565b60006020820190508181036000830152613f6981613f2d565b9050919050565b7f455243373231456e756d657261626c653a206f776e657220696e646578206f7560008201527f74206f6620626f756e6473000000000000000000000000000000000000000000602082015250565b6000613fcc602b8361328d565b9150613fd782613f70565b604082019050919050565b60006020820190508181036000830152613ffb81613fbf565b9050919050565b7f496e73756666696369656e742062616c616e6365000000000000000000000000600082015250565b600061403860148361328d565b915061404382614002565b602082019050919050565b600060208201905081810360008301526140678161402b565b9050919050565b7f455243373231456e756d657261626c653a20676c6f62616c20696e646578206f60008201527f7574206f6620626f756e64730000000000000000000000000000000000000000602082015250565b60006140ca602c8361328d565b91506140d58261406e565b604082019050919050565b600060208201905081810360008301526140f9816140bd565b9050919050565b7f4552433732313a20696e76616c696420746f6b656e2049440000000000000000600082015250565b600061413660188361328d565b915061414182614100565b602082019050919050565b6000602082019050818103600083015261416581614129565b9050919050565b7f4552433732313a2061646472657373207a65726f206973206e6f74206120766160008201527f6c6964206f776e65720000000000000000000000000000000000000000000000602082015250565b60006141c860298361328d565b91506141d38261416c565b604082019050919050565b600060208201905081810360008301526141f7816141bb565b9050919050565b7f4d696e74696e6720746f6f206d756368206174206f6e6365206973206e6f742060008201527f737570706f727465640000000000000000000000000000000000000000000000602082015250565b600061425a60298361328d565b9150614265826141fe565b604082019050919050565b600060208201905081810360008301526142898161424d565b9050919050565b7f4d696e74696e67206d7573742062652061637469766520746f206d696e74204760008201527f656e000000000000000000000000000000000000000000000000000000000000602082015250565b60006142ec60228361328d565b91506142f782614290565b604082019050919050565b6000602082019050818103600083015261431b816142df565b9050919050565b600061432d8261333d565b91506143388361333d565b9250827fffffffffffffffffffffffffffffffffffffffffffffffffffffffffffffffff0382111561436d5761436c613b88565b5b828201905092915050565b7f4d696e7420776f756c6420657863656564206d617820737570706c79206f662060008201527f47656e3000000000000000000000000000000000000000000000000000000000602082015250565b60006143d460248361328d565b91506143df82614378565b604082019050919050565b60006020820190508181036000830152614403816143c7565b9050919050565b600081519050614419816133fc565b92915050565b600060208284031215614435576144346131bd565b5b60006144438482850161440a565b91505092915050565b7f417474656d707420746f206d696e742047656e20666f72206e6f6e206f776e6560008201527f642041726374757269756d000000000000000000000000000000000000000000602082015250565b60006144a8602b8361328d565b91506144b38261444c565b604082019050919050565b600060208201905081810360008301526144d78161449b565b9050919050565b7f547279696e6720746f206d696e74206578697374696e672047656e0000000000600082015250565b6000614514601b8361328d565b915061451f826144de565b602082019050919050565b6000602082019050818103600083015261454381614507565b9050919050565b7f4552433732314d657461646174613a2055524920717565727920666f72206e6f60008201527f6e6578697374656e7420746f6b656e0000000000000000000000000000000000602082015250565b60006145a6602f8361328d565b91506145b18261454a565b604082019050919050565b600060208201905081810360008301526145d581614599565b9050919050565b600081905092915050565b60006145f282613282565b6145fc81856145dc565b935061460c81856020860161329e565b80840191505092915050565b7f2e6a736f6e000000000000000000000000000000000000000000000000000000600082015250565b600061464e6005836145dc565b915061465982614618565b600582019050919050565b600061467082856145e7565b915061467c82846145e7565b915061468782614641565b91508190509392505050565b7f5075626c6963204d696e74696e67206d7573742062652061637469766520746f60008201527f206d696e742047656e0000000000000000000000000000000000000000000000602082015250565b60006146ef60298361328d565b91506146fa82614693565b604082019050919050565b6000602082019050818103600083015261471e816146e2565b9050919050565b7f4f776e61626c653a206e6577206f776e657220697320746865207a65726f206160008201527f6464726573730000000000000000000000000000000000000000000000000000602082015250565b600061478160268361328d565b915061478c82614725565b604082019050919050565b600060208201905081810360008301526147b081614774565b9050919050565b7f4552433732313a207472616e736665722066726f6d20696e636f72726563742060008201527f6f776e6572000000000000000000000000000000000000000000000000000000602082015250565b600061481360258361328d565b915061481e826147b7565b604082019050919050565b6000602082019050818103600083015261484281614806565b9050919050565b7f4552433732313a207472616e7366657220746f20746865207a65726f2061646460008201527f7265737300000000000000000000000000000000000000000000000000000000602082015250565b60006148a560248361328d565b91506148b082614849565b604082019050919050565b600060208201905081810360008301526148d481614898565b9050919050565b60006148e68261333d565b91506148f18361333d565b92508282101561490457614903613b88565b5b828203905092915050565b7f4f776e61626c653a2063616c6c6572206973206e6f7420746865206f776e6572600082015250565b600061494560208361328d565b91506149508261490f565b602082019050919050565b6000602082019050818103600083015261497481614938565b9050919050565b7f416464726573733a20696e73756666696369656e742062616c616e6365000000600082015250565b60006149b1601d8361328d565b91506149bc8261497b565b602082019050919050565b600060208201905081810360008301526149e0816149a4565b9050919050565b600081905092915050565b50565b6000614a026000836149e7565b9150614a0d826149f2565b600082019050919050565b6000614a23826149f5565b9150819050919050565b7f416464726573733a20756e61626c6520746f2073656e642076616c75652c207260008201527f6563697069656e74206d61792068617665207265766572746564000000000000602082015250565b6000614a89603a8361328d565b9150614a9482614a2d565b604082019050919050565b60006020820190508181036000830152614ab881614a7c565b9050919050565b7f4552433732313a20617070726f766520746f2063616c6c657200000000000000600082015250565b6000614af560198361328d565b9150614b0082614abf565b602082019050919050565b60006020820190508181036000830152614b2481614ae8565b9050919050565b7f4552433732313a207472616e7366657220746f206e6f6e20455243373231526560008201527f63656976657220696d706c656d656e7465720000000000000000000000000000602082015250565b6000614b8760328361328d565b9150614b9282614b2b565b604082019050919050565b60006020820190508181036000830152614bb681614b7a565b9050919050565b7f4e487b7100000000000000000000000000000000000000000000000000000000600052601260045260246000fd5b6000614bf78261333d565b9150614c028361333d565b925082614c1257614c11614bbd565b5b828204905092915050565b6000614c288261333d565b9150614c338361333d565b925082614c4357614c42614bbd565b5b828206905092915050565b600081519050919050565b600082825260208201905092915050565b6000614c7582614c4e565b614c7f8185614c59565b9350614c8f81856020860161329e565b614c98816132d1565b840191505092915050565b6000608082019050614cb860008301876133d2565b614cc560208301866133d2565b614cd26040830185613468565b8181036060830152614ce48184614c6a565b905095945050505050565b600081519050614cfe816131f3565b92915050565b600060208284031215614d1a57614d196131bd565b5b6000614d2884828501614cef565b91505092915050565b7f4e487b7100000000000000000000000000000000000000000000000000000000600052603160045260246000fd5b7f4552433732313a206d696e7420746f20746865207a65726f2061646472657373600082015250565b6000614d9660208361328d565b9150614da182614d60565b602082019050919050565b60006020820190508181036000830152614dc581614d89565b9050919050565b7f4552433732313a20746f6b656e20616c7265616479206d696e74656400000000600082015250565b6000614e02601c8361328d565b9150614e0d82614dcc565b602082019050919050565b60006020820190508181036000830152614e3181614df5565b905091905056fea26469706673582212203a9a927b4ab4600b3901e3c7e8ac21cb276b37bb1deffedb189caaa9d0895bbc64736f6c634300080b0033",
  "linkReferences": {},
  "deployedLinkReferences": {}
}